{
	"test/storage_arr_test.sol": {
		"storage_arr_test": {
			"abi": [
				{
					"inputs": [
						{
							"internalType": "uint256",
							"name": "_id",
							"type": "uint256"
						}
					],
					"name": "sayHello",
					"outputs": [
						{
							"internalType": "string",
							"name": "",
							"type": "string"
						}
					],
					"stateMutability": "view",
					"type": "function"
				},
				{
					"inputs": [
						{
							"internalType": "string",
							"name": "phrase",
							"type": "string"
						},
						{
							"internalType": "uint256",
							"name": "_id",
							"type": "uint256"
						}
					],
					"name": "setInfos",
					"outputs": [],
					"stateMutability": "nonpayable",
					"type": "function"
				}
			],
			"devdoc": {
				"kind": "dev",
				"methods": {},
				"version": 1
			},
			"evm": {
				"assembly": "    /* \"test/storage_arr_test.sol\":116:889  contract storage_arr_test{... */\n  mstore(0x40, 0x80)\n    /* \"test/storage_arr_test.sol\":148:178  string strVar = \"Hello world!\" */\n  mload(0x40)\n  dup1\n  0x40\n  add\n  0x40\n  mstore\n  dup1\n  0x0c\n  dup2\n  mstore\n  0x20\n  add\n  0x48656c6c6f20776f726c64210000000000000000000000000000000000000000\n  dup2\n  mstore\n  pop\n  0x00\n  swap1\n  dup2\n  tag_1\n  swap2\n  swap1\n  tag_2\n  jump\t// in\ntag_1:\n  pop\n    /* \"test/storage_arr_test.sol\":116:889  contract storage_arr_test{... */\n  callvalue\n  dup1\n  iszero\n  tag_3\n  jumpi\n  revert(0x00, 0x00)\ntag_3:\n  pop\n  jump(tag_4)\n    /* \"#utility.yul\":7:106   */\ntag_5:\n    /* \"#utility.yul\":59:65   */\n  0x00\n    /* \"#utility.yul\":93:98   */\n  dup2\n    /* \"#utility.yul\":87:99   */\n  mload\n    /* \"#utility.yul\":77:99   */\n  swap1\n  pop\n    /* \"#utility.yul\":7:106   */\n  swap2\n  swap1\n  pop\n  jump\t// out\n    /* \"#utility.yul\":112:292   */\ntag_6:\n    /* \"#utility.yul\":160:237   */\n  0x4e487b7100000000000000000000000000000000000000000000000000000000\n    /* \"#utility.yul\":157:158   */\n  0x00\n    /* \"#utility.yul\":150:238   */\n  mstore\n    /* \"#utility.yul\":257:261   */\n  0x41\n    /* \"#utility.yul\":254:255   */\n  0x04\n    /* \"#utility.yul\":247:262   */\n  mstore\n    /* \"#utility.yul\":281:285   */\n  0x24\n    /* \"#utility.yul\":278:279   */\n  0x00\n    /* \"#utility.yul\":271:286   */\n  revert\n    /* \"#utility.yul\":298:478   */\ntag_7:\n    /* \"#utility.yul\":346:423   */\n  0x4e487b7100000000000000000000000000000000000000000000000000000000\n    /* \"#utility.yul\":343:344   */\n  0x00\n    /* \"#utility.yul\":336:424   */\n  mstore\n    /* \"#utility.yul\":443:447   */\n  0x22\n    /* \"#utility.yul\":440:441   */\n  0x04\n    /* \"#utility.yul\":433:448   */\n  mstore\n    /* \"#utility.yul\":467:471   */\n  0x24\n    /* \"#utility.yul\":464:465   */\n  0x00\n    /* \"#utility.yul\":457:472   */\n  revert\n    /* \"#utility.yul\":484:804   */\ntag_8:\n    /* \"#utility.yul\":528:534   */\n  0x00\n    /* \"#utility.yul\":565:566   */\n  0x02\n    /* \"#utility.yul\":559:563   */\n  dup3\n    /* \"#utility.yul\":555:567   */\n  div\n    /* \"#utility.yul\":545:567   */\n  swap1\n  pop\n    /* \"#utility.yul\":612:613   */\n  0x01\n    /* \"#utility.yul\":606:610   */\n  dup3\n    /* \"#utility.yul\":602:614   */\n  and\n    /* \"#utility.yul\":633:651   */\n  dup1\n    /* \"#utility.yul\":623:704   */\n  tag_30\n  jumpi\n    /* \"#utility.yul\":689:693   */\n  0x7f\n    /* \"#utility.yul\":681:687   */\n  dup3\n    /* \"#utility.yul\":677:694   */\n  and\n    /* \"#utility.yul\":667:694   */\n  swap2\n  pop\n    /* \"#utility.yul\":623:704   */\ntag_30:\n    /* \"#utility.yul\":751:753   */\n  0x20\n    /* \"#utility.yul\":743:749   */\n  dup3\n    /* \"#utility.yul\":740:754   */\n  lt\n    /* \"#utility.yul\":720:738   */\n  dup2\n    /* \"#utility.yul\":717:755   */\n  sub\n    /* \"#utility.yul\":714:798   */\n  tag_31\n  jumpi\n    /* \"#utility.yul\":770:788   */\n  tag_32\n  tag_7\n  jump\t// in\ntag_32:\n    /* \"#utility.yul\":714:798   */\ntag_31:\n    /* \"#utility.yul\":535:804   */\n  pop\n    /* \"#utility.yul\":484:804   */\n  swap2\n  swap1\n  pop\n  jump\t// out\n    /* \"#utility.yul\":810:951   */\ntag_9:\n    /* \"#utility.yul\":859:863   */\n  0x00\n    /* \"#utility.yul\":882:885   */\n  dup2\n    /* \"#utility.yul\":874:885   */\n  swap1\n  pop\n    /* \"#utility.yul\":905:908   */\n  dup2\n    /* \"#utility.yul\":902:903   */\n  0x00\n    /* \"#utility.yul\":895:909   */\n  mstore\n    /* \"#utility.yul\":939:943   */\n  0x20\n    /* \"#utility.yul\":936:937   */\n  0x00\n    /* \"#utility.yul\":926:944   */\n  keccak256\n    /* \"#utility.yul\":918:944   */\n  swap1\n  pop\n    /* \"#utility.yul\":810:951   */\n  swap2\n  swap1\n  pop\n  jump\t// out\n    /* \"#utility.yul\":957:1050   */\ntag_10:\n    /* \"#utility.yul\":994:1000   */\n  0x00\n    /* \"#utility.yul\":1041:1043   */\n  0x20\n    /* \"#utility.yul\":1036:1038   */\n  0x1f\n    /* \"#utility.yul\":1029:1034   */\n  dup4\n    /* \"#utility.yul\":1025:1039   */\n  add\n    /* \"#utility.yul\":1021:1044   */\n  div\n    /* \"#utility.yul\":1011:1044   */\n  swap1\n  pop\n    /* \"#utility.yul\":957:1050   */\n  swap2\n  swap1\n  pop\n  jump\t// out\n    /* \"#utility.yul\":1056:1163   */\ntag_11:\n    /* \"#utility.yul\":1100:1108   */\n  0x00\n    /* \"#utility.yul\":1150:1155   */\n  dup3\n    /* \"#utility.yul\":1144:1148   */\n  dup3\n    /* \"#utility.yul\":1140:1156   */\n  shl\n    /* \"#utility.yul\":1119:1156   */\n  swap1\n  pop\n    /* \"#utility.yul\":1056:1163   */\n  swap3\n  swap2\n  pop\n  pop\n  jump\t// out\n    /* \"#utility.yul\":1169:1562   */\ntag_12:\n    /* \"#utility.yul\":1238:1244   */\n  0x00\n    /* \"#utility.yul\":1288:1289   */\n  0x08\n    /* \"#utility.yul\":1276:1286   */\n  dup4\n    /* \"#utility.yul\":1272:1290   */\n  mul\n    /* \"#utility.yul\":1311:1408   */\n  tag_37\n    /* \"#utility.yul\":1341:1407   */\n  0xffffffffffffffffffffffffffffffffffffffffffffffffffffffffffffffff\n    /* \"#utility.yul\":1330:1339   */\n  dup3\n    /* \"#utility.yul\":1311:1408   */\n  tag_11\n  jump\t// in\ntag_37:\n    /* \"#utility.yul\":1429:1468   */\n  tag_38\n    /* \"#utility.yul\":1459:1467   */\n  dup7\n    /* \"#utility.yul\":1448:1457   */\n  dup4\n    /* \"#utility.yul\":1429:1468   */\n  tag_11\n  jump\t// in\ntag_38:\n    /* \"#utility.yul\":1417:1468   */\n  swap6\n  pop\n    /* \"#utility.yul\":1501:1505   */\n  dup1\n    /* \"#utility.yul\":1497:1506   */\n  not\n    /* \"#utility.yul\":1490:1495   */\n  dup5\n    /* \"#utility.yul\":1486:1507   */\n  and\n    /* \"#utility.yul\":1477:1507   */\n  swap4\n  pop\n    /* \"#utility.yul\":1550:1554   */\n  dup1\n    /* \"#utility.yul\":1540:1548   */\n  dup7\n    /* \"#utility.yul\":1536:1555   */\n  and\n    /* \"#utility.yul\":1529:1534   */\n  dup5\n    /* \"#utility.yul\":1526:1556   */\n  or\n    /* \"#utility.yul\":1516:1556   */\n  swap3\n  pop\n    /* \"#utility.yul\":1245:1562   */\n  pop\n  pop\n    /* \"#utility.yul\":1169:1562   */\n  swap4\n  swap3\n  pop\n  pop\n  pop\n  jump\t// out\n    /* \"#utility.yul\":1568:1645   */\ntag_13:\n    /* \"#utility.yul\":1605:1612   */\n  0x00\n    /* \"#utility.yul\":1634:1639   */\n  dup2\n    /* \"#utility.yul\":1623:1639   */\n  swap1\n  pop\n    /* \"#utility.yul\":1568:1645   */\n  swap2\n  swap1\n  pop\n  jump\t// out\n    /* \"#utility.yul\":1651:1711   */\ntag_14:\n    /* \"#utility.yul\":1679:1682   */\n  0x00\n    /* \"#utility.yul\":1700:1705   */\n  dup2\n    /* \"#utility.yul\":1693:1705   */\n  swap1\n  pop\n    /* \"#utility.yul\":1651:1711   */\n  swap2\n  swap1\n  pop\n  jump\t// out\n    /* \"#utility.yul\":1717:1859   */\ntag_15:\n    /* \"#utility.yul\":1767:1776   */\n  0x00\n    /* \"#utility.yul\":1800:1853   */\n  tag_42\n    /* \"#utility.yul\":1818:1852   */\n  tag_43\n    /* \"#utility.yul\":1827:1851   */\n  tag_44\n    /* \"#utility.yul\":1845:1850   */\n  dup5\n    /* \"#utility.yul\":1827:1851   */\n  tag_13\n  jump\t// in\ntag_44:\n    /* \"#utility.yul\":1818:1852   */\n  tag_14\n  jump\t// in\ntag_43:\n    /* \"#utility.yul\":1800:1853   */\n  tag_13\n  jump\t// in\ntag_42:\n    /* \"#utility.yul\":1787:1853   */\n  swap1\n  pop\n    /* \"#utility.yul\":1717:1859   */\n  swap2\n  swap1\n  pop\n  jump\t// out\n    /* \"#utility.yul\":1865:1940   */\ntag_16:\n    /* \"#utility.yul\":1908:1911   */\n  0x00\n    /* \"#utility.yul\":1929:1934   */\n  dup2\n    /* \"#utility.yul\":1922:1934   */\n  swap1\n  pop\n    /* \"#utility.yul\":1865:1940   */\n  swap2\n  swap1\n  pop\n  jump\t// out\n    /* \"#utility.yul\":1946:2215   */\ntag_17:\n    /* \"#utility.yul\":2056:2095   */\n  tag_47\n    /* \"#utility.yul\":2087:2094   */\n  dup4\n    /* \"#utility.yul\":2056:2095   */\n  tag_15\n  jump\t// in\ntag_47:\n    /* \"#utility.yul\":2117:2208   */\n  tag_48\n    /* \"#utility.yul\":2166:2207   */\n  tag_49\n    /* \"#utility.yul\":2190:2206   */\n  dup3\n    /* \"#utility.yul\":2166:2207   */\n  tag_16\n  jump\t// in\ntag_49:\n    /* \"#utility.yul\":2158:2164   */\n  dup5\n    /* \"#utility.yul\":2151:2155   */\n  dup5\n    /* \"#utility.yul\":2145:2156   */\n  sload\n    /* \"#utility.yul\":2117:2208   */\n  tag_12\n  jump\t// in\ntag_48:\n    /* \"#utility.yul\":2111:2115   */\n  dup3\n    /* \"#utility.yul\":2104:2209   */\n  sstore\n    /* \"#utility.yul\":2022:2215   */\n  pop\n    /* \"#utility.yul\":1946:2215   */\n  pop\n  pop\n  pop\n  jump\t// out\n    /* \"#utility.yul\":2221:2294   */\ntag_18:\n    /* \"#utility.yul\":2266:2269   */\n  0x00\n    /* \"#utility.yul\":2287:2288   */\n  0x00\n    /* \"#utility.yul\":2280:2288   */\n  swap1\n  pop\n    /* \"#utility.yul\":2221:2294   */\n  swap1\n  jump\t// out\n    /* \"#utility.yul\":2300:2489   */\ntag_19:\n    /* \"#utility.yul\":2377:2409   */\n  tag_52\n  tag_18\n  jump\t// in\ntag_52:\n    /* \"#utility.yul\":2418:2483   */\n  tag_53\n    /* \"#utility.yul\":2476:2482   */\n  dup2\n    /* \"#utility.yul\":2468:2474   */\n  dup5\n    /* \"#utility.yul\":2462:2466   */\n  dup5\n    /* \"#utility.yul\":2418:2483   */\n  tag_17\n  jump\t// in\ntag_53:\n    /* \"#utility.yul\":2353:2489   */\n  pop\n    /* \"#utility.yul\":2300:2489   */\n  pop\n  pop\n  jump\t// out\n    /* \"#utility.yul\":2495:2681   */\ntag_20:\n    /* \"#utility.yul\":2555:2675   */\ntag_55:\n    /* \"#utility.yul\":2572:2575   */\n  dup2\n    /* \"#utility.yul\":2565:2570   */\n  dup2\n    /* \"#utility.yul\":2562:2576   */\n  lt\n    /* \"#utility.yul\":2555:2675   */\n  iszero\n  tag_57\n  jumpi\n    /* \"#utility.yul\":2626:2665   */\n  tag_58\n    /* \"#utility.yul\":2663:2664   */\n  0x00\n    /* \"#utility.yul\":2656:2661   */\n  dup3\n    /* \"#utility.yul\":2626:2665   */\n  tag_19\n  jump\t// in\ntag_58:\n    /* \"#utility.yul\":2599:2600   */\n  0x01\n    /* \"#utility.yul\":2592:2597   */\n  dup2\n    /* \"#utility.yul\":2588:2601   */\n  add\n    /* \"#utility.yul\":2579:2601   */\n  swap1\n  pop\n    /* \"#utility.yul\":2555:2675   */\n  jump(tag_55)\ntag_57:\n    /* \"#utility.yul\":2495:2681   */\n  pop\n  pop\n  jump\t// out\n    /* \"#utility.yul\":2687:3230   */\ntag_21:\n    /* \"#utility.yul\":2788:2790   */\n  0x1f\n    /* \"#utility.yul\":2783:2786   */\n  dup3\n    /* \"#utility.yul\":2780:2791   */\n  gt\n    /* \"#utility.yul\":2777:3223   */\n  iszero\n  tag_60\n  jumpi\n    /* \"#utility.yul\":2822:2860   */\n  tag_61\n    /* \"#utility.yul\":2854:2859   */\n  dup2\n    /* \"#utility.yul\":2822:2860   */\n  tag_9\n  jump\t// in\ntag_61:\n    /* \"#utility.yul\":2906:2935   */\n  tag_62\n    /* \"#utility.yul\":2924:2934   */\n  dup5\n    /* \"#utility.yul\":2906:2935   */\n  tag_10\n  jump\t// in\ntag_62:\n    /* \"#utility.yul\":2896:2904   */\n  dup2\n    /* \"#utility.yul\":2892:2936   */\n  add\n    /* \"#utility.yul\":3089:3091   */\n  0x20\n    /* \"#utility.yul\":3077:3087   */\n  dup6\n    /* \"#utility.yul\":3074:3092   */\n  lt\n    /* \"#utility.yul\":3071:3120   */\n  iszero\n  tag_63\n  jumpi\n    /* \"#utility.yul\":3110:3118   */\n  dup2\n    /* \"#utility.yul\":3095:3118   */\n  swap1\n  pop\n    /* \"#utility.yul\":3071:3120   */\ntag_63:\n    /* \"#utility.yul\":3133:3213   */\n  tag_64\n    /* \"#utility.yul\":3189:3211   */\n  tag_65\n    /* \"#utility.yul\":3207:3210   */\n  dup6\n    /* \"#utility.yul\":3189:3211   */\n  tag_10\n  jump\t// in\ntag_65:\n    /* \"#utility.yul\":3179:3187   */\n  dup4\n    /* \"#utility.yul\":3175:3212   */\n  add\n    /* \"#utility.yul\":3162:3173   */\n  dup3\n    /* \"#utility.yul\":3133:3213   */\n  tag_20\n  jump\t// in\ntag_64:\n    /* \"#utility.yul\":2792:3223   */\n  pop\n  pop\n    /* \"#utility.yul\":2777:3223   */\ntag_60:\n    /* \"#utility.yul\":2687:3230   */\n  pop\n  pop\n  pop\n  jump\t// out\n    /* \"#utility.yul\":3236:3353   */\ntag_22:\n    /* \"#utility.yul\":3290:3298   */\n  0x00\n    /* \"#utility.yul\":3340:3345   */\n  dup3\n    /* \"#utility.yul\":3334:3338   */\n  dup3\n    /* \"#utility.yul\":3330:3346   */\n  shr\n    /* \"#utility.yul\":3309:3346   */\n  swap1\n  pop\n    /* \"#utility.yul\":3236:3353   */\n  swap3\n  swap2\n  pop\n  pop\n  jump\t// out\n    /* \"#utility.yul\":3359:3528   */\ntag_23:\n    /* \"#utility.yul\":3403:3409   */\n  0x00\n    /* \"#utility.yul\":3436:3487   */\n  tag_68\n    /* \"#utility.yul\":3484:3485   */\n  0x00\n    /* \"#utility.yul\":3480:3486   */\n  not\n    /* \"#utility.yul\":3472:3477   */\n  dup5\n    /* \"#utility.yul\":3469:3470   */\n  0x08\n    /* \"#utility.yul\":3465:3478   */\n  mul\n    /* \"#utility.yul\":3436:3487   */\n  tag_22\n  jump\t// in\ntag_68:\n    /* \"#utility.yul\":3432:3488   */\n  not\n    /* \"#utility.yul\":3517:3521   */\n  dup1\n    /* \"#utility.yul\":3511:3515   */\n  dup4\n    /* \"#utility.yul\":3507:3522   */\n  and\n    /* \"#utility.yul\":3497:3522   */\n  swap2\n  pop\n    /* \"#utility.yul\":3410:3528   */\n  pop\n    /* \"#utility.yul\":3359:3528   */\n  swap3\n  swap2\n  pop\n  pop\n  jump\t// out\n    /* \"#utility.yul\":3533:3828   */\ntag_24:\n    /* \"#utility.yul\":3609:3613   */\n  0x00\n    /* \"#utility.yul\":3755:3784   */\n  tag_70\n    /* \"#utility.yul\":3780:3783   */\n  dup4\n    /* \"#utility.yul\":3774:3778   */\n  dup4\n    /* \"#utility.yul\":3755:3784   */\n  tag_23\n  jump\t// in\ntag_70:\n    /* \"#utility.yul\":3747:3784   */\n  swap2\n  pop\n    /* \"#utility.yul\":3817:3820   */\n  dup3\n    /* \"#utility.yul\":3814:3815   */\n  0x02\n    /* \"#utility.yul\":3810:3821   */\n  mul\n    /* \"#utility.yul\":3804:3808   */\n  dup3\n    /* \"#utility.yul\":3801:3822   */\n  or\n    /* \"#utility.yul\":3793:3822   */\n  swap1\n  pop\n    /* \"#utility.yul\":3533:3828   */\n  swap3\n  swap2\n  pop\n  pop\n  jump\t// out\n    /* \"#utility.yul\":3833:5228   */\ntag_2:\n    /* \"#utility.yul\":3950:3987   */\n  tag_72\n    /* \"#utility.yul\":3983:3986   */\n  dup3\n    /* \"#utility.yul\":3950:3987   */\n  tag_5\n  jump\t// in\ntag_72:\n    /* \"#utility.yul\":4052:4070   */\n  0xffffffffffffffff\n    /* \"#utility.yul\":4044:4050   */\n  dup2\n    /* \"#utility.yul\":4041:4071   */\n  gt\n    /* \"#utility.yul\":4038:4094   */\n  iszero\n  tag_73\n  jumpi\n    /* \"#utility.yul\":4074:4092   */\n  tag_74\n  tag_6\n  jump\t// in\ntag_74:\n    /* \"#utility.yul\":4038:4094   */\ntag_73:\n    /* \"#utility.yul\":4118:4156   */\n  tag_75\n    /* \"#utility.yul\":4150:4154   */\n  dup3\n    /* \"#utility.yul\":4144:4155   */\n  sload\n    /* \"#utility.yul\":4118:4156   */\n  tag_8\n  jump\t// in\ntag_75:\n    /* \"#utility.yul\":4203:4270   */\n  tag_76\n    /* \"#utility.yul\":4263:4269   */\n  dup3\n    /* \"#utility.yul\":4255:4261   */\n  dup3\n    /* \"#utility.yul\":4249:4253   */\n  dup6\n    /* \"#utility.yul\":4203:4270   */\n  tag_21\n  jump\t// in\ntag_76:\n    /* \"#utility.yul\":4297:4298   */\n  0x00\n    /* \"#utility.yul\":4321:4325   */\n  0x20\n    /* \"#utility.yul\":4308:4325   */\n  swap1\n  pop\n    /* \"#utility.yul\":4353:4355   */\n  0x1f\n    /* \"#utility.yul\":4345:4351   */\n  dup4\n    /* \"#utility.yul\":4342:4356   */\n  gt\n    /* \"#utility.yul\":4370:4371   */\n  0x01\n    /* \"#utility.yul\":4365:4983   */\n  dup2\n  eq\n  tag_78\n  jumpi\n    /* \"#utility.yul\":5027:5028   */\n  0x00\n    /* \"#utility.yul\":5044:5050   */\n  dup5\n    /* \"#utility.yul\":5041:5118   */\n  iszero\n  tag_79\n  jumpi\n    /* \"#utility.yul\":5093:5102   */\n  dup3\n    /* \"#utility.yul\":5088:5091   */\n  dup8\n    /* \"#utility.yul\":5084:5103   */\n  add\n    /* \"#utility.yul\":5078:5104   */\n  mload\n    /* \"#utility.yul\":5069:5104   */\n  swap1\n  pop\n    /* \"#utility.yul\":5041:5118   */\ntag_79:\n    /* \"#utility.yul\":5144:5211   */\n  tag_80\n    /* \"#utility.yul\":5204:5210   */\n  dup6\n    /* \"#utility.yul\":5197:5202   */\n  dup3\n    /* \"#utility.yul\":5144:5211   */\n  tag_24\n  jump\t// in\ntag_80:\n    /* \"#utility.yul\":5138:5142   */\n  dup7\n    /* \"#utility.yul\":5131:5212   */\n  sstore\n    /* \"#utility.yul\":5000:5222   */\n  pop\n    /* \"#utility.yul\":4335:5222   */\n  jump(tag_77)\n    /* \"#utility.yul\":4365:4983   */\ntag_78:\n    /* \"#utility.yul\":4417:4421   */\n  0x1f\n    /* \"#utility.yul\":4413:4422   */\n  not\n    /* \"#utility.yul\":4405:4411   */\n  dup5\n    /* \"#utility.yul\":4401:4423   */\n  and\n    /* \"#utility.yul\":4451:4488   */\n  tag_81\n    /* \"#utility.yul\":4483:4487   */\n  dup7\n    /* \"#utility.yul\":4451:4488   */\n  tag_9\n  jump\t// in\ntag_81:\n    /* \"#utility.yul\":4510:4511   */\n  0x00\n    /* \"#utility.yul\":4524:4732   */\ntag_82:\n    /* \"#utility.yul\":4538:4545   */\n  dup3\n    /* \"#utility.yul\":4535:4536   */\n  dup2\n    /* \"#utility.yul\":4532:4546   */\n  lt\n    /* \"#utility.yul\":4524:4732   */\n  iszero\n  tag_84\n  jumpi\n    /* \"#utility.yul\":4617:4626   */\n  dup5\n    /* \"#utility.yul\":4612:4615   */\n  dup10\n    /* \"#utility.yul\":4608:4627   */\n  add\n    /* \"#utility.yul\":4602:4628   */\n  mload\n    /* \"#utility.yul\":4594:4600   */\n  dup3\n    /* \"#utility.yul\":4587:4629   */\n  sstore\n    /* \"#utility.yul\":4668:4669   */\n  0x01\n    /* \"#utility.yul\":4660:4666   */\n  dup3\n    /* \"#utility.yul\":4656:4670   */\n  add\n    /* \"#utility.yul\":4646:4670   */\n  swap2\n  pop\n    /* \"#utility.yul\":4715:4717   */\n  0x20\n    /* \"#utility.yul\":4704:4713   */\n  dup6\n    /* \"#utility.yul\":4700:4718   */\n  add\n    /* \"#utility.yul\":4687:4718   */\n  swap5\n  pop\n    /* \"#utility.yul\":4561:4565   */\n  0x20\n    /* \"#utility.yul\":4558:4559   */\n  dup2\n    /* \"#utility.yul\":4554:4566   */\n  add\n    /* \"#utility.yul\":4549:4566   */\n  swap1\n  pop\n    /* \"#utility.yul\":4524:4732   */\n  jump(tag_82)\ntag_84:\n    /* \"#utility.yul\":4760:4766   */\n  dup7\n    /* \"#utility.yul\":4751:4758   */\n  dup4\n    /* \"#utility.yul\":4748:4767   */\n  lt\n    /* \"#utility.yul\":4745:4924   */\n  iszero\n  tag_85\n  jumpi\n    /* \"#utility.yul\":4818:4827   */\n  dup5\n    /* \"#utility.yul\":4813:4816   */\n  dup10\n    /* \"#utility.yul\":4809:4828   */\n  add\n    /* \"#utility.yul\":4803:4829   */\n  mload\n    /* \"#utility.yul\":4861:4909   */\n  tag_86\n    /* \"#utility.yul\":4903:4907   */\n  0x1f\n    /* \"#utility.yul\":4895:4901   */\n  dup10\n    /* \"#utility.yul\":4891:4908   */\n  and\n    /* \"#utility.yul\":4880:4889   */\n  dup3\n    /* \"#utility.yul\":4861:4909   */\n  tag_23\n  jump\t// in\ntag_86:\n    /* \"#utility.yul\":4853:4859   */\n  dup4\n    /* \"#utility.yul\":4846:4910   */\n  sstore\n    /* \"#utility.yul\":4768:4924   */\n  pop\n    /* \"#utility.yul\":4745:4924   */\ntag_85:\n    /* \"#utility.yul\":4970:4971   */\n  0x01\n    /* \"#utility.yul\":4966:4967   */\n  0x02\n    /* \"#utility.yul\":4958:4964   */\n  dup9\n    /* \"#utility.yul\":4954:4968   */\n  mul\n    /* \"#utility.yul\":4950:4972   */\n  add\n    /* \"#utility.yul\":4944:4948   */\n  dup9\n    /* \"#utility.yul\":4937:4973   */\n  sstore\n    /* \"#utility.yul\":4372:4983   */\n  pop\n  pop\n  pop\n    /* \"#utility.yul\":4335:5222   */\ntag_77:\n  pop\n    /* \"#utility.yul\":3925:5228   */\n  pop\n  pop\n  pop\n    /* \"#utility.yul\":3833:5228   */\n  pop\n  pop\n  jump\t// out\n    /* \"test/storage_arr_test.sol\":116:889  contract storage_arr_test{... */\ntag_4:\n  dataSize(sub_0)\n  dup1\n  dataOffset(sub_0)\n  0x00\n  codecopy\n  0x00\n  return\nstop\n\nsub_0: assembly {\n        /* \"test/storage_arr_test.sol\":116:889  contract storage_arr_test{... */\n      mstore(0x40, 0x80)\n      callvalue\n      dup1\n      iszero\n      tag_1\n      jumpi\n      revert(0x00, 0x00)\n    tag_1:\n      pop\n      jumpi(tag_2, lt(calldatasize, 0x04))\n      shr(0xe0, calldataload(0x00))\n      dup1\n      0x23516793\n      eq\n      tag_3\n      jumpi\n      dup1\n      0x42257b31\n      eq\n      tag_4\n      jumpi\n    tag_2:\n      revert(0x00, 0x00)\n        /* \"test/storage_arr_test.sol\":567:721  function setInfos(string memory phrase, uint256 _id) public {... */\n    tag_3:\n      tag_5\n      0x04\n      dup1\n      calldatasize\n      sub\n      dup2\n      add\n      swap1\n      tag_6\n      swap2\n      swap1\n      tag_7\n      jump\t// in\n    tag_6:\n      tag_8\n      jump\t// in\n    tag_5:\n      stop\n        /* \"test/storage_arr_test.sol\":289:559  function sayHello(uint256 _id)public view returns(string memory){... */\n    tag_4:\n      tag_9\n      0x04\n      dup1\n      calldatasize\n      sub\n      dup2\n      add\n      swap1\n      tag_10\n      swap2\n      swap1\n      tag_11\n      jump\t// in\n    tag_10:\n      tag_12\n      jump\t// in\n    tag_9:\n      mload(0x40)\n      tag_13\n      swap2\n      swap1\n      tag_14\n      jump\t// in\n    tag_13:\n      mload(0x40)\n      dup1\n      swap2\n      sub\n      swap1\n      return\n        /* \"test/storage_arr_test.sol\":567:721  function setInfos(string memory phrase, uint256 _id) public {... */\n    tag_8:\n        /* \"test/storage_arr_test.sol\":638:654  Info memory info */\n      0x00\n        /* \"test/storage_arr_test.sol\":657:686  Info(phrase, _id, msg.sender) */\n      mload(0x40)\n      dup1\n      0x60\n      add\n      0x40\n      mstore\n      dup1\n        /* \"test/storage_arr_test.sol\":662:668  phrase */\n      dup5\n        /* \"test/storage_arr_test.sol\":657:686  Info(phrase, _id, msg.sender) */\n      dup2\n      mstore\n      0x20\n      add\n        /* \"test/storage_arr_test.sol\":670:673  _id */\n      dup4\n        /* \"test/storage_arr_test.sol\":657:686  Info(phrase, _id, msg.sender) */\n      dup2\n      mstore\n      0x20\n      add\n        /* \"test/storage_arr_test.sol\":675:685  msg.sender */\n      caller\n        /* \"test/storage_arr_test.sol\":657:686  Info(phrase, _id, msg.sender) */\n      0xffffffffffffffffffffffffffffffffffffffff\n      and\n      dup2\n      mstore\n      pop\n        /* \"test/storage_arr_test.sol\":638:686  Info memory info = Info(phrase, _id, msg.sender) */\n      swap1\n      pop\n        /* \"test/storage_arr_test.sol\":697:702  infos */\n      0x01\n        /* \"test/storage_arr_test.sol\":708:712  info */\n      dup2\n        /* \"test/storage_arr_test.sol\":697:713  infos.push(info) */\n      swap1\n      dup1\n      0x01\n      dup2\n      sload\n      add\n      dup1\n      dup3\n      sstore\n      dup1\n      swap2\n      pop\n      pop\n      0x01\n      swap1\n      sub\n      swap1\n      0x00\n      mstore\n      keccak256(0x00, 0x20)\n      swap1\n      0x03\n      mul\n      add\n      0x00\n      swap1\n      swap2\n      swap1\n      swap2\n      swap1\n      swap2\n      pop\n      0x00\n      dup3\n      add\n      mload\n      dup2\n      0x00\n      add\n      swap1\n      dup2\n      tag_17\n      swap2\n      swap1\n      tag_18\n      jump\t// in\n    tag_17:\n      pop\n      0x20\n      dup3\n      add\n      mload\n      dup2\n      0x01\n      add\n      sstore\n      0x40\n      dup3\n      add\n      mload\n      dup2\n      0x02\n      add\n      exp(0x0100, 0x00)\n      dup2\n      sload\n      dup2\n      0xffffffffffffffffffffffffffffffffffffffff\n      mul\n      not\n      and\n      swap1\n      dup4\n      0xffffffffffffffffffffffffffffffffffffffff\n      and\n      mul\n      or\n      swap1\n      sstore\n      pop\n      pop\n      pop\n        /* \"test/storage_arr_test.sol\":627:721  {... */\n      pop\n        /* \"test/storage_arr_test.sol\":567:721  function setInfos(string memory phrase, uint256 _id) public {... */\n      pop\n      pop\n      jump\t// out\n        /* \"test/storage_arr_test.sol\":289:559  function sayHello(uint256 _id)public view returns(string memory){... */\n    tag_12:\n        /* \"test/storage_arr_test.sol\":339:352  string memory */\n      0x60\n        /* \"test/storage_arr_test.sol\":369:378  uint256 i */\n      0x00\n        /* \"test/storage_arr_test.sol\":381:382  0 */\n      0x00\n        /* \"test/storage_arr_test.sol\":369:382  uint256 i = 0 */\n      swap1\n      pop\n        /* \"test/storage_arr_test.sol\":364:519  for (uint256 i = 0; i < infos.length; i++){... */\n    tag_20:\n        /* \"test/storage_arr_test.sol\":388:393  infos */\n      0x01\n        /* \"test/storage_arr_test.sol\":388:400  infos.length */\n      dup1\n      sload\n      swap1\n      pop\n        /* \"test/storage_arr_test.sol\":384:385  i */\n      dup2\n        /* \"test/storage_arr_test.sol\":384:400  i < infos.length */\n      lt\n        /* \"test/storage_arr_test.sol\":364:519  for (uint256 i = 0; i < infos.length; i++){... */\n      iszero\n      tag_21\n      jumpi\n        /* \"test/storage_arr_test.sol\":440:443  _id */\n      dup3\n        /* \"test/storage_arr_test.sol\":425:430  infos */\n      0x01\n        /* \"test/storage_arr_test.sol\":431:432  i */\n      dup3\n        /* \"test/storage_arr_test.sol\":425:433  infos[i] */\n      dup2\n      sload\n      dup2\n      lt\n      tag_23\n      jumpi\n      tag_24\n      tag_25\n      jump\t// in\n    tag_24:\n    tag_23:\n      swap1\n      0x00\n      mstore\n      keccak256(0x00, 0x20)\n      swap1\n      0x03\n      mul\n      add\n        /* \"test/storage_arr_test.sol\":425:436  infos[i].id */\n      0x01\n      add\n      sload\n        /* \"test/storage_arr_test.sol\":425:443  infos[i].id == _id */\n      sub\n        /* \"test/storage_arr_test.sol\":421:508  if (infos[i].id == _id){... */\n      tag_27\n      jumpi\n        /* \"test/storage_arr_test.sol\":468:492  addInfo(infos[i].phrase) */\n      tag_28\n        /* \"test/storage_arr_test.sol\":476:481  infos */\n      0x01\n        /* \"test/storage_arr_test.sol\":482:483  i */\n      dup3\n        /* \"test/storage_arr_test.sol\":476:484  infos[i] */\n      dup2\n      sload\n      dup2\n      lt\n      tag_29\n      jumpi\n      tag_30\n      tag_25\n      jump\t// in\n    tag_30:\n    tag_29:\n      swap1\n      0x00\n      mstore\n      keccak256(0x00, 0x20)\n      swap1\n      0x03\n      mul\n      add\n        /* \"test/storage_arr_test.sol\":476:491  infos[i].phrase */\n      0x00\n      add\n        /* \"test/storage_arr_test.sol\":468:492  addInfo(infos[i].phrase) */\n      dup1\n      sload\n      tag_32\n      swap1\n      tag_33\n      jump\t// in\n    tag_32:\n      dup1\n      0x1f\n      add\n      0x20\n      dup1\n      swap2\n      div\n      mul\n      0x20\n      add\n      mload(0x40)\n      swap1\n      dup2\n      add\n      0x40\n      mstore\n      dup1\n      swap3\n      swap2\n      swap1\n      dup2\n      dup2\n      mstore\n      0x20\n      add\n      dup3\n      dup1\n      sload\n      tag_34\n      swap1\n      tag_33\n      jump\t// in\n    tag_34:\n      dup1\n      iszero\n      tag_35\n      jumpi\n      dup1\n      0x1f\n      lt\n      tag_36\n      jumpi\n      0x0100\n      dup1\n      dup4\n      sload\n      div\n      mul\n      dup4\n      mstore\n      swap2\n      0x20\n      add\n      swap2\n      jump(tag_35)\n    tag_36:\n      dup3\n      add\n      swap2\n      swap1\n      0x00\n      mstore\n      keccak256(0x00, 0x20)\n      swap1\n    tag_37:\n      dup2\n      sload\n      dup2\n      mstore\n      swap1\n      0x01\n      add\n      swap1\n      0x20\n      add\n      dup1\n      dup4\n      gt\n      tag_37\n      jumpi\n      dup3\n      swap1\n      sub\n      0x1f\n      and\n      dup3\n      add\n      swap2\n    tag_35:\n      pop\n      pop\n      pop\n      pop\n      pop\n        /* \"test/storage_arr_test.sol\":468:475  addInfo */\n      tag_38\n        /* \"test/storage_arr_test.sol\":468:492  addInfo(infos[i].phrase) */\n      jump\t// in\n    tag_28:\n        /* \"test/storage_arr_test.sol\":461:492  return addInfo(infos[i].phrase) */\n      swap2\n      pop\n      pop\n      jump(tag_19)\n        /* \"test/storage_arr_test.sol\":421:508  if (infos[i].id == _id){... */\n    tag_27:\n        /* \"test/storage_arr_test.sol\":402:405  i++ */\n      dup1\n      dup1\n      0x01\n      add\n      swap2\n      pop\n      pop\n        /* \"test/storage_arr_test.sol\":364:519  for (uint256 i = 0; i < infos.length; i++){... */\n      jump(tag_20)\n    tag_21:\n      pop\n        /* \"test/storage_arr_test.sol\":536:551  addInfo(strVar) */\n      tag_39\n        /* \"test/storage_arr_test.sol\":544:550  strVar */\n      0x00\n        /* \"test/storage_arr_test.sol\":536:551  addInfo(strVar) */\n      dup1\n      sload\n      tag_40\n      swap1\n      tag_33\n      jump\t// in\n    tag_40:\n      dup1\n      0x1f\n      add\n      0x20\n      dup1\n      swap2\n      div\n      mul\n      0x20\n      add\n      mload(0x40)\n      swap1\n      dup2\n      add\n      0x40\n      mstore\n      dup1\n      swap3\n      swap2\n      swap1\n      dup2\n      dup2\n      mstore\n      0x20\n      add\n      dup3\n      dup1\n      sload\n      tag_41\n      swap1\n      tag_33\n      jump\t// in\n    tag_41:\n      dup1\n      iszero\n      tag_42\n      jumpi\n      dup1\n      0x1f\n      lt\n      tag_43\n      jumpi\n      0x0100\n      dup1\n      dup4\n      sload\n      div\n      mul\n      dup4\n      mstore\n      swap2\n      0x20\n      add\n      swap2\n      jump(tag_42)\n    tag_43:\n      dup3\n      add\n      swap2\n      swap1\n      0x00\n      mstore\n      keccak256(0x00, 0x20)\n      swap1\n    tag_44:\n      dup2\n      sload\n      dup2\n      mstore\n      swap1\n      0x01\n      add\n      swap1\n      0x20\n      add\n      dup1\n      dup4\n      gt\n      tag_44\n      jumpi\n      dup3\n      swap1\n      sub\n      0x1f\n      and\n      dup3\n      add\n      swap2\n    tag_42:\n      pop\n      pop\n      pop\n      pop\n      pop\n        /* \"test/storage_arr_test.sol\":536:543  addInfo */\n      tag_38\n        /* \"test/storage_arr_test.sol\":536:551  addInfo(strVar) */\n      jump\t// in\n    tag_39:\n        /* \"test/storage_arr_test.sol\":529:551  return addInfo(strVar) */\n      swap1\n      pop\n        /* \"test/storage_arr_test.sol\":289:559  function sayHello(uint256 _id)public view returns(string memory){... */\n    tag_19:\n      swap2\n      swap1\n      pop\n      jump\t// out\n        /* \"test/storage_arr_test.sol\":733:886  function addInfo(string memory phrase) internal pure returns(string memory){... */\n    tag_38:\n        /* \"test/storage_arr_test.sol\":794:807  string memory */\n      0x60\n        /* \"test/storage_arr_test.sol\":840:846  phrase */\n      dup2\n        /* \"test/storage_arr_test.sol\":826:878  string.concat(phrase,\" from flank's smart contract\") */\n      add(0x20, mload(0x40))\n      tag_46\n      swap2\n      swap1\n      tag_47\n      jump\t// in\n    tag_46:\n      mload(0x40)\n      0x20\n      dup2\n      dup4\n      sub\n      sub\n      dup2\n      mstore\n      swap1\n      0x40\n      mstore\n        /* \"test/storage_arr_test.sol\":819:878  return string.concat(phrase,\" from flank's smart contract\") */\n      swap1\n      pop\n        /* \"test/storage_arr_test.sol\":733:886  function addInfo(string memory phrase) internal pure returns(string memory){... */\n      swap2\n      swap1\n      pop\n      jump\t// out\n        /* \"#utility.yul\":7:82   */\n    tag_48:\n        /* \"#utility.yul\":40:46   */\n      0x00\n        /* \"#utility.yul\":73:75   */\n      0x40\n        /* \"#utility.yul\":67:76   */\n      mload\n        /* \"#utility.yul\":57:76   */\n      swap1\n      pop\n        /* \"#utility.yul\":7:82   */\n      swap1\n      jump\t// out\n        /* \"#utility.yul\":88:205   */\n    tag_49:\n        /* \"#utility.yul\":197:198   */\n      0x00\n        /* \"#utility.yul\":194:195   */\n      0x00\n        /* \"#utility.yul\":187:199   */\n      revert\n        /* \"#utility.yul\":211:328   */\n    tag_50:\n        /* \"#utility.yul\":320:321   */\n      0x00\n        /* \"#utility.yul\":317:318   */\n      0x00\n        /* \"#utility.yul\":310:322   */\n      revert\n        /* \"#utility.yul\":334:451   */\n    tag_51:\n        /* \"#utility.yul\":443:444   */\n      0x00\n        /* \"#utility.yul\":440:441   */\n      0x00\n        /* \"#utility.yul\":433:445   */\n      revert\n        /* \"#utility.yul\":457:574   */\n    tag_52:\n        /* \"#utility.yul\":566:567   */\n      0x00\n        /* \"#utility.yul\":563:564   */\n      0x00\n        /* \"#utility.yul\":556:568   */\n      revert\n        /* \"#utility.yul\":580:682   */\n    tag_53:\n        /* \"#utility.yul\":621:627   */\n      0x00\n        /* \"#utility.yul\":672:674   */\n      0x1f\n        /* \"#utility.yul\":668:675   */\n      not\n        /* \"#utility.yul\":663:665   */\n      0x1f\n        /* \"#utility.yul\":656:661   */\n      dup4\n        /* \"#utility.yul\":652:666   */\n      add\n        /* \"#utility.yul\":648:676   */\n      and\n        /* \"#utility.yul\":638:676   */\n      swap1\n      pop\n        /* \"#utility.yul\":580:682   */\n      swap2\n      swap1\n      pop\n      jump\t// out\n        /* \"#utility.yul\":688:868   */\n    tag_54:\n        /* \"#utility.yul\":736:813   */\n      0x4e487b7100000000000000000000000000000000000000000000000000000000\n        /* \"#utility.yul\":733:734   */\n      0x00\n        /* \"#utility.yul\":726:814   */\n      mstore\n        /* \"#utility.yul\":833:837   */\n      0x41\n        /* \"#utility.yul\":830:831   */\n      0x04\n        /* \"#utility.yul\":823:838   */\n      mstore\n        /* \"#utility.yul\":857:861   */\n      0x24\n        /* \"#utility.yul\":854:855   */\n      0x00\n        /* \"#utility.yul\":847:862   */\n      revert\n        /* \"#utility.yul\":874:1155   */\n    tag_55:\n        /* \"#utility.yul\":957:984   */\n      tag_96\n        /* \"#utility.yul\":979:983   */\n      dup3\n        /* \"#utility.yul\":957:984   */\n      tag_53\n      jump\t// in\n    tag_96:\n        /* \"#utility.yul\":949:955   */\n      dup2\n        /* \"#utility.yul\":945:985   */\n      add\n        /* \"#utility.yul\":1087:1093   */\n      dup2\n        /* \"#utility.yul\":1075:1085   */\n      dup2\n        /* \"#utility.yul\":1072:1094   */\n      lt\n        /* \"#utility.yul\":1051:1069   */\n      0xffffffffffffffff\n        /* \"#utility.yul\":1039:1049   */\n      dup3\n        /* \"#utility.yul\":1036:1070   */\n      gt\n        /* \"#utility.yul\":1033:1095   */\n      or\n        /* \"#utility.yul\":1030:1118   */\n      iszero\n      tag_97\n      jumpi\n        /* \"#utility.yul\":1098:1116   */\n      tag_98\n      tag_54\n      jump\t// in\n    tag_98:\n        /* \"#utility.yul\":1030:1118   */\n    tag_97:\n        /* \"#utility.yul\":1138:1148   */\n      dup1\n        /* \"#utility.yul\":1134:1136   */\n      0x40\n        /* \"#utility.yul\":1127:1149   */\n      mstore\n        /* \"#utility.yul\":917:1155   */\n      pop\n        /* \"#utility.yul\":874:1155   */\n      pop\n      pop\n      jump\t// out\n        /* \"#utility.yul\":1161:1290   */\n    tag_56:\n        /* \"#utility.yul\":1195:1201   */\n      0x00\n        /* \"#utility.yul\":1222:1242   */\n      tag_100\n      tag_48\n      jump\t// in\n    tag_100:\n        /* \"#utility.yul\":1212:1242   */\n      swap1\n      pop\n        /* \"#utility.yul\":1251:1284   */\n      tag_101\n        /* \"#utility.yul\":1279:1283   */\n      dup3\n        /* \"#utility.yul\":1271:1277   */\n      dup3\n        /* \"#utility.yul\":1251:1284   */\n      tag_55\n      jump\t// in\n    tag_101:\n        /* \"#utility.yul\":1161:1290   */\n      swap2\n      swap1\n      pop\n      jump\t// out\n        /* \"#utility.yul\":1296:1604   */\n    tag_57:\n        /* \"#utility.yul\":1358:1362   */\n      0x00\n        /* \"#utility.yul\":1448:1466   */\n      0xffffffffffffffff\n        /* \"#utility.yul\":1440:1446   */\n      dup3\n        /* \"#utility.yul\":1437:1467   */\n      gt\n        /* \"#utility.yul\":1434:1490   */\n      iszero\n      tag_103\n      jumpi\n        /* \"#utility.yul\":1470:1488   */\n      tag_104\n      tag_54\n      jump\t// in\n    tag_104:\n        /* \"#utility.yul\":1434:1490   */\n    tag_103:\n        /* \"#utility.yul\":1508:1537   */\n      tag_105\n        /* \"#utility.yul\":1530:1536   */\n      dup3\n        /* \"#utility.yul\":1508:1537   */\n      tag_53\n      jump\t// in\n    tag_105:\n        /* \"#utility.yul\":1500:1537   */\n      swap1\n      pop\n        /* \"#utility.yul\":1592:1596   */\n      0x20\n        /* \"#utility.yul\":1586:1590   */\n      dup2\n        /* \"#utility.yul\":1582:1597   */\n      add\n        /* \"#utility.yul\":1574:1597   */\n      swap1\n      pop\n        /* \"#utility.yul\":1296:1604   */\n      swap2\n      swap1\n      pop\n      jump\t// out\n        /* \"#utility.yul\":1610:1758   */\n    tag_58:\n        /* \"#utility.yul\":1708:1714   */\n      dup3\n        /* \"#utility.yul\":1703:1706   */\n      dup2\n        /* \"#utility.yul\":1698:1701   */\n      dup4\n        /* \"#utility.yul\":1685:1715   */\n      calldatacopy\n        /* \"#utility.yul\":1749:1750   */\n      0x00\n        /* \"#utility.yul\":1740:1746   */\n      dup4\n        /* \"#utility.yul\":1735:1738   */\n      dup4\n        /* \"#utility.yul\":1731:1747   */\n      add\n        /* \"#utility.yul\":1724:1751   */\n      mstore\n        /* \"#utility.yul\":1610:1758   */\n      pop\n      pop\n      pop\n      jump\t// out\n        /* \"#utility.yul\":1764:2189   */\n    tag_59:\n        /* \"#utility.yul\":1842:1847   */\n      0x00\n        /* \"#utility.yul\":1867:1933   */\n      tag_108\n        /* \"#utility.yul\":1883:1932   */\n      tag_109\n        /* \"#utility.yul\":1925:1931   */\n      dup5\n        /* \"#utility.yul\":1883:1932   */\n      tag_57\n      jump\t// in\n    tag_109:\n        /* \"#utility.yul\":1867:1933   */\n      tag_56\n      jump\t// in\n    tag_108:\n        /* \"#utility.yul\":1858:1933   */\n      swap1\n      pop\n        /* \"#utility.yul\":1956:1962   */\n      dup3\n        /* \"#utility.yul\":1949:1954   */\n      dup2\n        /* \"#utility.yul\":1942:1963   */\n      mstore\n        /* \"#utility.yul\":1994:1998   */\n      0x20\n        /* \"#utility.yul\":1987:1992   */\n      dup2\n        /* \"#utility.yul\":1983:1999   */\n      add\n        /* \"#utility.yul\":2032:2035   */\n      dup5\n        /* \"#utility.yul\":2023:2029   */\n      dup5\n        /* \"#utility.yul\":2018:2021   */\n      dup5\n        /* \"#utility.yul\":2014:2030   */\n      add\n        /* \"#utility.yul\":2011:2036   */\n      gt\n        /* \"#utility.yul\":2008:2120   */\n      iszero\n      tag_110\n      jumpi\n        /* \"#utility.yul\":2039:2118   */\n      tag_111\n      tag_52\n      jump\t// in\n    tag_111:\n        /* \"#utility.yul\":2008:2120   */\n    tag_110:\n        /* \"#utility.yul\":2129:2183   */\n      tag_112\n        /* \"#utility.yul\":2176:2182   */\n      dup5\n        /* \"#utility.yul\":2171:2174   */\n      dup3\n        /* \"#utility.yul\":2166:2169   */\n      dup6\n        /* \"#utility.yul\":2129:2183   */\n      tag_58\n      jump\t// in\n    tag_112:\n        /* \"#utility.yul\":1848:2189   */\n      pop\n        /* \"#utility.yul\":1764:2189   */\n      swap4\n      swap3\n      pop\n      pop\n      pop\n      jump\t// out\n        /* \"#utility.yul\":2209:2549   */\n    tag_60:\n        /* \"#utility.yul\":2265:2270   */\n      0x00\n        /* \"#utility.yul\":2314:2317   */\n      dup3\n        /* \"#utility.yul\":2307:2311   */\n      0x1f\n        /* \"#utility.yul\":2299:2305   */\n      dup4\n        /* \"#utility.yul\":2295:2312   */\n      add\n        /* \"#utility.yul\":2291:2318   */\n      slt\n        /* \"#utility.yul\":2281:2403   */\n      tag_114\n      jumpi\n        /* \"#utility.yul\":2322:2401   */\n      tag_115\n      tag_51\n      jump\t// in\n    tag_115:\n        /* \"#utility.yul\":2281:2403   */\n    tag_114:\n        /* \"#utility.yul\":2439:2445   */\n      dup2\n        /* \"#utility.yul\":2426:2446   */\n      calldataload\n        /* \"#utility.yul\":2464:2543   */\n      tag_116\n        /* \"#utility.yul\":2539:2542   */\n      dup5\n        /* \"#utility.yul\":2531:2537   */\n      dup3\n        /* \"#utility.yul\":2524:2528   */\n      0x20\n        /* \"#utility.yul\":2516:2522   */\n      dup7\n        /* \"#utility.yul\":2512:2529   */\n      add\n        /* \"#utility.yul\":2464:2543   */\n      tag_59\n      jump\t// in\n    tag_116:\n        /* \"#utility.yul\":2455:2543   */\n      swap2\n      pop\n        /* \"#utility.yul\":2271:2549   */\n      pop\n        /* \"#utility.yul\":2209:2549   */\n      swap3\n      swap2\n      pop\n      pop\n      jump\t// out\n        /* \"#utility.yul\":2555:2632   */\n    tag_61:\n        /* \"#utility.yul\":2592:2599   */\n      0x00\n        /* \"#utility.yul\":2621:2626   */\n      dup2\n        /* \"#utility.yul\":2610:2626   */\n      swap1\n      pop\n        /* \"#utility.yul\":2555:2632   */\n      swap2\n      swap1\n      pop\n      jump\t// out\n        /* \"#utility.yul\":2638:2760   */\n    tag_62:\n        /* \"#utility.yul\":2711:2735   */\n      tag_119\n        /* \"#utility.yul\":2729:2734   */\n      dup2\n        /* \"#utility.yul\":2711:2735   */\n      tag_61\n      jump\t// in\n    tag_119:\n        /* \"#utility.yul\":2704:2709   */\n      dup2\n        /* \"#utility.yul\":2701:2736   */\n      eq\n        /* \"#utility.yul\":2691:2754   */\n      tag_120\n      jumpi\n        /* \"#utility.yul\":2750:2751   */\n      0x00\n        /* \"#utility.yul\":2747:2748   */\n      0x00\n        /* \"#utility.yul\":2740:2752   */\n      revert\n        /* \"#utility.yul\":2691:2754   */\n    tag_120:\n        /* \"#utility.yul\":2638:2760   */\n      pop\n      jump\t// out\n        /* \"#utility.yul\":2766:2905   */\n    tag_63:\n        /* \"#utility.yul\":2812:2817   */\n      0x00\n        /* \"#utility.yul\":2850:2856   */\n      dup2\n        /* \"#utility.yul\":2837:2857   */\n      calldataload\n        /* \"#utility.yul\":2828:2857   */\n      swap1\n      pop\n        /* \"#utility.yul\":2866:2899   */\n      tag_122\n        /* \"#utility.yul\":2893:2898   */\n      dup2\n        /* \"#utility.yul\":2866:2899   */\n      tag_62\n      jump\t// in\n    tag_122:\n        /* \"#utility.yul\":2766:2905   */\n      swap3\n      swap2\n      pop\n      pop\n      jump\t// out\n        /* \"#utility.yul\":2911:3565   */\n    tag_7:\n        /* \"#utility.yul\":2989:2995   */\n      0x00\n        /* \"#utility.yul\":2997:3003   */\n      0x00\n        /* \"#utility.yul\":3046:3048   */\n      0x40\n        /* \"#utility.yul\":3034:3043   */\n      dup4\n        /* \"#utility.yul\":3025:3032   */\n      dup6\n        /* \"#utility.yul\":3021:3044   */\n      sub\n        /* \"#utility.yul\":3017:3049   */\n      slt\n        /* \"#utility.yul\":3014:3133   */\n      iszero\n      tag_124\n      jumpi\n        /* \"#utility.yul\":3052:3131   */\n      tag_125\n      tag_49\n      jump\t// in\n    tag_125:\n        /* \"#utility.yul\":3014:3133   */\n    tag_124:\n        /* \"#utility.yul\":3200:3201   */\n      0x00\n        /* \"#utility.yul\":3189:3198   */\n      dup4\n        /* \"#utility.yul\":3185:3202   */\n      add\n        /* \"#utility.yul\":3172:3203   */\n      calldataload\n        /* \"#utility.yul\":3230:3248   */\n      0xffffffffffffffff\n        /* \"#utility.yul\":3222:3228   */\n      dup2\n        /* \"#utility.yul\":3219:3249   */\n      gt\n        /* \"#utility.yul\":3216:3333   */\n      iszero\n      tag_126\n      jumpi\n        /* \"#utility.yul\":3252:3331   */\n      tag_127\n      tag_50\n      jump\t// in\n    tag_127:\n        /* \"#utility.yul\":3216:3333   */\n    tag_126:\n        /* \"#utility.yul\":3357:3420   */\n      tag_128\n        /* \"#utility.yul\":3412:3419   */\n      dup6\n        /* \"#utility.yul\":3403:3409   */\n      dup3\n        /* \"#utility.yul\":3392:3401   */\n      dup7\n        /* \"#utility.yul\":3388:3410   */\n      add\n        /* \"#utility.yul\":3357:3420   */\n      tag_60\n      jump\t// in\n    tag_128:\n        /* \"#utility.yul\":3347:3420   */\n      swap3\n      pop\n        /* \"#utility.yul\":3143:3430   */\n      pop\n        /* \"#utility.yul\":3469:3471   */\n      0x20\n        /* \"#utility.yul\":3495:3548   */\n      tag_129\n        /* \"#utility.yul\":3540:3547   */\n      dup6\n        /* \"#utility.yul\":3531:3537   */\n      dup3\n        /* \"#utility.yul\":3520:3529   */\n      dup7\n        /* \"#utility.yul\":3516:3538   */\n      add\n        /* \"#utility.yul\":3495:3548   */\n      tag_63\n      jump\t// in\n    tag_129:\n        /* \"#utility.yul\":3485:3548   */\n      swap2\n      pop\n        /* \"#utility.yul\":3440:3558   */\n      pop\n        /* \"#utility.yul\":2911:3565   */\n      swap3\n      pop\n      swap3\n      swap1\n      pop\n      jump\t// out\n        /* \"#utility.yul\":3571:3900   */\n    tag_11:\n        /* \"#utility.yul\":3630:3636   */\n      0x00\n        /* \"#utility.yul\":3679:3681   */\n      0x20\n        /* \"#utility.yul\":3667:3676   */\n      dup3\n        /* \"#utility.yul\":3658:3665   */\n      dup5\n        /* \"#utility.yul\":3654:3677   */\n      sub\n        /* \"#utility.yul\":3650:3682   */\n      slt\n        /* \"#utility.yul\":3647:3766   */\n      iszero\n      tag_131\n      jumpi\n        /* \"#utility.yul\":3685:3764   */\n      tag_132\n      tag_49\n      jump\t// in\n    tag_132:\n        /* \"#utility.yul\":3647:3766   */\n    tag_131:\n        /* \"#utility.yul\":3805:3806   */\n      0x00\n        /* \"#utility.yul\":3830:3883   */\n      tag_133\n        /* \"#utility.yul\":3875:3882   */\n      dup5\n        /* \"#utility.yul\":3866:3872   */\n      dup3\n        /* \"#utility.yul\":3855:3864   */\n      dup6\n        /* \"#utility.yul\":3851:3873   */\n      add\n        /* \"#utility.yul\":3830:3883   */\n      tag_63\n      jump\t// in\n    tag_133:\n        /* \"#utility.yul\":3820:3883   */\n      swap2\n      pop\n        /* \"#utility.yul\":3776:3893   */\n      pop\n        /* \"#utility.yul\":3571:3900   */\n      swap3\n      swap2\n      pop\n      pop\n      jump\t// out\n        /* \"#utility.yul\":3906:4005   */\n    tag_64:\n        /* \"#utility.yul\":3958:3964   */\n      0x00\n        /* \"#utility.yul\":3992:3997   */\n      dup2\n        /* \"#utility.yul\":3986:3998   */\n      mload\n        /* \"#utility.yul\":3976:3998   */\n      swap1\n      pop\n        /* \"#utility.yul\":3906:4005   */\n      swap2\n      swap1\n      pop\n      jump\t// out\n        /* \"#utility.yul\":4011:4180   */\n    tag_65:\n        /* \"#utility.yul\":4095:4106   */\n      0x00\n        /* \"#utility.yul\":4129:4135   */\n      dup3\n        /* \"#utility.yul\":4124:4127   */\n      dup3\n        /* \"#utility.yul\":4117:4136   */\n      mstore\n        /* \"#utility.yul\":4169:4173   */\n      0x20\n        /* \"#utility.yul\":4164:4167   */\n      dup3\n        /* \"#utility.yul\":4160:4174   */\n      add\n        /* \"#utility.yul\":4145:4174   */\n      swap1\n      pop\n        /* \"#utility.yul\":4011:4180   */\n      swap3\n      swap2\n      pop\n      pop\n      jump\t// out\n        /* \"#utility.yul\":4186:4434   */\n    tag_66:\n        /* \"#utility.yul\":4268:4269   */\n      0x00\n        /* \"#utility.yul\":4278:4391   */\n    tag_137:\n        /* \"#utility.yul\":4292:4298   */\n      dup4\n        /* \"#utility.yul\":4289:4290   */\n      dup2\n        /* \"#utility.yul\":4286:4299   */\n      lt\n        /* \"#utility.yul\":4278:4391   */\n      iszero\n      tag_139\n      jumpi\n        /* \"#utility.yul\":4377:4378   */\n      dup1\n        /* \"#utility.yul\":4372:4375   */\n      dup3\n        /* \"#utility.yul\":4368:4379   */\n      add\n        /* \"#utility.yul\":4362:4380   */\n      mload\n        /* \"#utility.yul\":4358:4359   */\n      dup2\n        /* \"#utility.yul\":4353:4356   */\n      dup5\n        /* \"#utility.yul\":4349:4360   */\n      add\n        /* \"#utility.yul\":4342:4381   */\n      mstore\n        /* \"#utility.yul\":4314:4316   */\n      0x20\n        /* \"#utility.yul\":4311:4312   */\n      dup2\n        /* \"#utility.yul\":4307:4317   */\n      add\n        /* \"#utility.yul\":4302:4317   */\n      swap1\n      pop\n        /* \"#utility.yul\":4278:4391   */\n      jump(tag_137)\n    tag_139:\n        /* \"#utility.yul\":4425:4426   */\n      0x00\n        /* \"#utility.yul\":4416:4422   */\n      dup5\n        /* \"#utility.yul\":4411:4414   */\n      dup5\n        /* \"#utility.yul\":4407:4423   */\n      add\n        /* \"#utility.yul\":4400:4427   */\n      mstore\n        /* \"#utility.yul\":4248:4434   */\n      pop\n        /* \"#utility.yul\":4186:4434   */\n      pop\n      pop\n      pop\n      jump\t// out\n        /* \"#utility.yul\":4440:4817   */\n    tag_67:\n        /* \"#utility.yul\":4528:4531   */\n      0x00\n        /* \"#utility.yul\":4556:4595   */\n      tag_141\n        /* \"#utility.yul\":4589:4594   */\n      dup3\n        /* \"#utility.yul\":4556:4595   */\n      tag_64\n      jump\t// in\n    tag_141:\n        /* \"#utility.yul\":4611:4682   */\n      tag_142\n        /* \"#utility.yul\":4675:4681   */\n      dup2\n        /* \"#utility.yul\":4670:4673   */\n      dup6\n        /* \"#utility.yul\":4611:4682   */\n      tag_65\n      jump\t// in\n    tag_142:\n        /* \"#utility.yul\":4604:4682   */\n      swap4\n      pop\n        /* \"#utility.yul\":4691:4756   */\n      tag_143\n        /* \"#utility.yul\":4749:4755   */\n      dup2\n        /* \"#utility.yul\":4744:4747   */\n      dup6\n        /* \"#utility.yul\":4737:4741   */\n      0x20\n        /* \"#utility.yul\":4730:4735   */\n      dup7\n        /* \"#utility.yul\":4726:4742   */\n      add\n        /* \"#utility.yul\":4691:4756   */\n      tag_66\n      jump\t// in\n    tag_143:\n        /* \"#utility.yul\":4781:4810   */\n      tag_144\n        /* \"#utility.yul\":4803:4809   */\n      dup2\n        /* \"#utility.yul\":4781:4810   */\n      tag_53\n      jump\t// in\n    tag_144:\n        /* \"#utility.yul\":4776:4779   */\n      dup5\n        /* \"#utility.yul\":4772:4811   */\n      add\n        /* \"#utility.yul\":4765:4811   */\n      swap2\n      pop\n        /* \"#utility.yul\":4532:4817   */\n      pop\n        /* \"#utility.yul\":4440:4817   */\n      swap3\n      swap2\n      pop\n      pop\n      jump\t// out\n        /* \"#utility.yul\":4823:5136   */\n    tag_14:\n        /* \"#utility.yul\":4936:4940   */\n      0x00\n        /* \"#utility.yul\":4974:4976   */\n      0x20\n        /* \"#utility.yul\":4963:4972   */\n      dup3\n        /* \"#utility.yul\":4959:4977   */\n      add\n        /* \"#utility.yul\":4951:4977   */\n      swap1\n      pop\n        /* \"#utility.yul\":5023:5032   */\n      dup2\n        /* \"#utility.yul\":5017:5021   */\n      dup2\n        /* \"#utility.yul\":5013:5033   */\n      sub\n        /* \"#utility.yul\":5009:5010   */\n      0x00\n        /* \"#utility.yul\":4998:5007   */\n      dup4\n        /* \"#utility.yul\":4994:5011   */\n      add\n        /* \"#utility.yul\":4987:5034   */\n      mstore\n        /* \"#utility.yul\":5051:5129   */\n      tag_146\n        /* \"#utility.yul\":5124:5128   */\n      dup2\n        /* \"#utility.yul\":5115:5121   */\n      dup5\n        /* \"#utility.yul\":5051:5129   */\n      tag_67\n      jump\t// in\n    tag_146:\n        /* \"#utility.yul\":5043:5129   */\n      swap1\n      pop\n        /* \"#utility.yul\":4823:5136   */\n      swap3\n      swap2\n      pop\n      pop\n      jump\t// out\n        /* \"#utility.yul\":5142:5322   */\n    tag_68:\n        /* \"#utility.yul\":5190:5267   */\n      0x4e487b7100000000000000000000000000000000000000000000000000000000\n        /* \"#utility.yul\":5187:5188   */\n      0x00\n        /* \"#utility.yul\":5180:5268   */\n      mstore\n        /* \"#utility.yul\":5287:5291   */\n      0x22\n        /* \"#utility.yul\":5284:5285   */\n      0x04\n        /* \"#utility.yul\":5277:5292   */\n      mstore\n        /* \"#utility.yul\":5311:5315   */\n      0x24\n        /* \"#utility.yul\":5308:5309   */\n      0x00\n        /* \"#utility.yul\":5301:5316   */\n      revert\n        /* \"#utility.yul\":5328:5648   */\n    tag_33:\n        /* \"#utility.yul\":5372:5378   */\n      0x00\n        /* \"#utility.yul\":5409:5410   */\n      0x02\n        /* \"#utility.yul\":5403:5407   */\n      dup3\n        /* \"#utility.yul\":5399:5411   */\n      div\n        /* \"#utility.yul\":5389:5411   */\n      swap1\n      pop\n        /* \"#utility.yul\":5456:5457   */\n      0x01\n        /* \"#utility.yul\":5450:5454   */\n      dup3\n        /* \"#utility.yul\":5446:5458   */\n      and\n        /* \"#utility.yul\":5477:5495   */\n      dup1\n        /* \"#utility.yul\":5467:5548   */\n      tag_149\n      jumpi\n        /* \"#utility.yul\":5533:5537   */\n      0x7f\n        /* \"#utility.yul\":5525:5531   */\n      dup3\n        /* \"#utility.yul\":5521:5538   */\n      and\n        /* \"#utility.yul\":5511:5538   */\n      swap2\n      pop\n        /* \"#utility.yul\":5467:5548   */\n    tag_149:\n        /* \"#utility.yul\":5595:5597   */\n      0x20\n        /* \"#utility.yul\":5587:5593   */\n      dup3\n        /* \"#utility.yul\":5584:5598   */\n      lt\n        /* \"#utility.yul\":5564:5582   */\n      dup2\n        /* \"#utility.yul\":5561:5599   */\n      sub\n        /* \"#utility.yul\":5558:5642   */\n      tag_150\n      jumpi\n        /* \"#utility.yul\":5614:5632   */\n      tag_151\n      tag_68\n      jump\t// in\n    tag_151:\n        /* \"#utility.yul\":5558:5642   */\n    tag_150:\n        /* \"#utility.yul\":5379:5648   */\n      pop\n        /* \"#utility.yul\":5328:5648   */\n      swap2\n      swap1\n      pop\n      jump\t// out\n        /* \"#utility.yul\":5654:5795   */\n    tag_69:\n        /* \"#utility.yul\":5703:5707   */\n      0x00\n        /* \"#utility.yul\":5726:5729   */\n      dup2\n        /* \"#utility.yul\":5718:5729   */\n      swap1\n      pop\n        /* \"#utility.yul\":5749:5752   */\n      dup2\n        /* \"#utility.yul\":5746:5747   */\n      0x00\n        /* \"#utility.yul\":5739:5753   */\n      mstore\n        /* \"#utility.yul\":5783:5787   */\n      0x20\n        /* \"#utility.yul\":5780:5781   */\n      0x00\n        /* \"#utility.yul\":5770:5788   */\n      keccak256\n        /* \"#utility.yul\":5762:5788   */\n      swap1\n      pop\n        /* \"#utility.yul\":5654:5795   */\n      swap2\n      swap1\n      pop\n      jump\t// out\n        /* \"#utility.yul\":5801:5894   */\n    tag_70:\n        /* \"#utility.yul\":5838:5844   */\n      0x00\n        /* \"#utility.yul\":5885:5887   */\n      0x20\n        /* \"#utility.yul\":5880:5882   */\n      0x1f\n        /* \"#utility.yul\":5873:5878   */\n      dup4\n        /* \"#utility.yul\":5869:5883   */\n      add\n        /* \"#utility.yul\":5865:5888   */\n      div\n        /* \"#utility.yul\":5855:5888   */\n      swap1\n      pop\n        /* \"#utility.yul\":5801:5894   */\n      swap2\n      swap1\n      pop\n      jump\t// out\n        /* \"#utility.yul\":5900:6007   */\n    tag_71:\n        /* \"#utility.yul\":5944:5952   */\n      0x00\n        /* \"#utility.yul\":5994:5999   */\n      dup3\n        /* \"#utility.yul\":5988:5992   */\n      dup3\n        /* \"#utility.yul\":5984:6000   */\n      shl\n        /* \"#utility.yul\":5963:6000   */\n      swap1\n      pop\n        /* \"#utility.yul\":5900:6007   */\n      swap3\n      swap2\n      pop\n      pop\n      jump\t// out\n        /* \"#utility.yul\":6013:6406   */\n    tag_72:\n        /* \"#utility.yul\":6082:6088   */\n      0x00\n        /* \"#utility.yul\":6132:6133   */\n      0x08\n        /* \"#utility.yul\":6120:6130   */\n      dup4\n        /* \"#utility.yul\":6116:6134   */\n      mul\n        /* \"#utility.yul\":6155:6252   */\n      tag_156\n        /* \"#utility.yul\":6185:6251   */\n      0xffffffffffffffffffffffffffffffffffffffffffffffffffffffffffffffff\n        /* \"#utility.yul\":6174:6183   */\n      dup3\n        /* \"#utility.yul\":6155:6252   */\n      tag_71\n      jump\t// in\n    tag_156:\n        /* \"#utility.yul\":6273:6312   */\n      tag_157\n        /* \"#utility.yul\":6303:6311   */\n      dup7\n        /* \"#utility.yul\":6292:6301   */\n      dup4\n        /* \"#utility.yul\":6273:6312   */\n      tag_71\n      jump\t// in\n    tag_157:\n        /* \"#utility.yul\":6261:6312   */\n      swap6\n      pop\n        /* \"#utility.yul\":6345:6349   */\n      dup1\n        /* \"#utility.yul\":6341:6350   */\n      not\n        /* \"#utility.yul\":6334:6339   */\n      dup5\n        /* \"#utility.yul\":6330:6351   */\n      and\n        /* \"#utility.yul\":6321:6351   */\n      swap4\n      pop\n        /* \"#utility.yul\":6394:6398   */\n      dup1\n        /* \"#utility.yul\":6384:6392   */\n      dup7\n        /* \"#utility.yul\":6380:6399   */\n      and\n        /* \"#utility.yul\":6373:6378   */\n      dup5\n        /* \"#utility.yul\":6370:6400   */\n      or\n        /* \"#utility.yul\":6360:6400   */\n      swap3\n      pop\n        /* \"#utility.yul\":6089:6406   */\n      pop\n      pop\n        /* \"#utility.yul\":6013:6406   */\n      swap4\n      swap3\n      pop\n      pop\n      pop\n      jump\t// out\n        /* \"#utility.yul\":6412:6472   */\n    tag_73:\n        /* \"#utility.yul\":6440:6443   */\n      0x00\n        /* \"#utility.yul\":6461:6466   */\n      dup2\n        /* \"#utility.yul\":6454:6466   */\n      swap1\n      pop\n        /* \"#utility.yul\":6412:6472   */\n      swap2\n      swap1\n      pop\n      jump\t// out\n        /* \"#utility.yul\":6478:6620   */\n    tag_74:\n        /* \"#utility.yul\":6528:6537   */\n      0x00\n        /* \"#utility.yul\":6561:6614   */\n      tag_160\n        /* \"#utility.yul\":6579:6613   */\n      tag_161\n        /* \"#utility.yul\":6588:6612   */\n      tag_162\n        /* \"#utility.yul\":6606:6611   */\n      dup5\n        /* \"#utility.yul\":6588:6612   */\n      tag_61\n      jump\t// in\n    tag_162:\n        /* \"#utility.yul\":6579:6613   */\n      tag_73\n      jump\t// in\n    tag_161:\n        /* \"#utility.yul\":6561:6614   */\n      tag_61\n      jump\t// in\n    tag_160:\n        /* \"#utility.yul\":6548:6614   */\n      swap1\n      pop\n        /* \"#utility.yul\":6478:6620   */\n      swap2\n      swap1\n      pop\n      jump\t// out\n        /* \"#utility.yul\":6626:6701   */\n    tag_75:\n        /* \"#utility.yul\":6669:6672   */\n      0x00\n        /* \"#utility.yul\":6690:6695   */\n      dup2\n        /* \"#utility.yul\":6683:6695   */\n      swap1\n      pop\n        /* \"#utility.yul\":6626:6701   */\n      swap2\n      swap1\n      pop\n      jump\t// out\n        /* \"#utility.yul\":6707:6976   */\n    tag_76:\n        /* \"#utility.yul\":6817:6856   */\n      tag_165\n        /* \"#utility.yul\":6848:6855   */\n      dup4\n        /* \"#utility.yul\":6817:6856   */\n      tag_74\n      jump\t// in\n    tag_165:\n        /* \"#utility.yul\":6878:6969   */\n      tag_166\n        /* \"#utility.yul\":6927:6968   */\n      tag_167\n        /* \"#utility.yul\":6951:6967   */\n      dup3\n        /* \"#utility.yul\":6927:6968   */\n      tag_75\n      jump\t// in\n    tag_167:\n        /* \"#utility.yul\":6919:6925   */\n      dup5\n        /* \"#utility.yul\":6912:6916   */\n      dup5\n        /* \"#utility.yul\":6906:6917   */\n      sload\n        /* \"#utility.yul\":6878:6969   */\n      tag_72\n      jump\t// in\n    tag_166:\n        /* \"#utility.yul\":6872:6876   */\n      dup3\n        /* \"#utility.yul\":6865:6970   */\n      sstore\n        /* \"#utility.yul\":6783:6976   */\n      pop\n        /* \"#utility.yul\":6707:6976   */\n      pop\n      pop\n      pop\n      jump\t// out\n        /* \"#utility.yul\":6982:7055   */\n    tag_77:\n        /* \"#utility.yul\":7027:7030   */\n      0x00\n        /* \"#utility.yul\":7048:7049   */\n      0x00\n        /* \"#utility.yul\":7041:7049   */\n      swap1\n      pop\n        /* \"#utility.yul\":6982:7055   */\n      swap1\n      jump\t// out\n        /* \"#utility.yul\":7061:7250   */\n    tag_78:\n        /* \"#utility.yul\":7138:7170   */\n      tag_170\n      tag_77\n      jump\t// in\n    tag_170:\n        /* \"#utility.yul\":7179:7244   */\n      tag_171\n        /* \"#utility.yul\":7237:7243   */\n      dup2\n        /* \"#utility.yul\":7229:7235   */\n      dup5\n        /* \"#utility.yul\":7223:7227   */\n      dup5\n        /* \"#utility.yul\":7179:7244   */\n      tag_76\n      jump\t// in\n    tag_171:\n        /* \"#utility.yul\":7114:7250   */\n      pop\n        /* \"#utility.yul\":7061:7250   */\n      pop\n      pop\n      jump\t// out\n        /* \"#utility.yul\":7256:7442   */\n    tag_79:\n        /* \"#utility.yul\":7316:7436   */\n    tag_173:\n        /* \"#utility.yul\":7333:7336   */\n      dup2\n        /* \"#utility.yul\":7326:7331   */\n      dup2\n        /* \"#utility.yul\":7323:7337   */\n      lt\n        /* \"#utility.yul\":7316:7436   */\n      iszero\n      tag_175\n      jumpi\n        /* \"#utility.yul\":7387:7426   */\n      tag_176\n        /* \"#utility.yul\":7424:7425   */\n      0x00\n        /* \"#utility.yul\":7417:7422   */\n      dup3\n        /* \"#utility.yul\":7387:7426   */\n      tag_78\n      jump\t// in\n    tag_176:\n        /* \"#utility.yul\":7360:7361   */\n      0x01\n        /* \"#utility.yul\":7353:7358   */\n      dup2\n        /* \"#utility.yul\":7349:7362   */\n      add\n        /* \"#utility.yul\":7340:7362   */\n      swap1\n      pop\n        /* \"#utility.yul\":7316:7436   */\n      jump(tag_173)\n    tag_175:\n        /* \"#utility.yul\":7256:7442   */\n      pop\n      pop\n      jump\t// out\n        /* \"#utility.yul\":7448:7991   */\n    tag_80:\n        /* \"#utility.yul\":7549:7551   */\n      0x1f\n        /* \"#utility.yul\":7544:7547   */\n      dup3\n        /* \"#utility.yul\":7541:7552   */\n      gt\n        /* \"#utility.yul\":7538:7984   */\n      iszero\n      tag_178\n      jumpi\n        /* \"#utility.yul\":7583:7621   */\n      tag_179\n        /* \"#utility.yul\":7615:7620   */\n      dup2\n        /* \"#utility.yul\":7583:7621   */\n      tag_69\n      jump\t// in\n    tag_179:\n        /* \"#utility.yul\":7667:7696   */\n      tag_180\n        /* \"#utility.yul\":7685:7695   */\n      dup5\n        /* \"#utility.yul\":7667:7696   */\n      tag_70\n      jump\t// in\n    tag_180:\n        /* \"#utility.yul\":7657:7665   */\n      dup2\n        /* \"#utility.yul\":7653:7697   */\n      add\n        /* \"#utility.yul\":7850:7852   */\n      0x20\n        /* \"#utility.yul\":7838:7848   */\n      dup6\n        /* \"#utility.yul\":7835:7853   */\n      lt\n        /* \"#utility.yul\":7832:7881   */\n      iszero\n      tag_181\n      jumpi\n        /* \"#utility.yul\":7871:7879   */\n      dup2\n        /* \"#utility.yul\":7856:7879   */\n      swap1\n      pop\n        /* \"#utility.yul\":7832:7881   */\n    tag_181:\n        /* \"#utility.yul\":7894:7974   */\n      tag_182\n        /* \"#utility.yul\":7950:7972   */\n      tag_183\n        /* \"#utility.yul\":7968:7971   */\n      dup6\n        /* \"#utility.yul\":7950:7972   */\n      tag_70\n      jump\t// in\n    tag_183:\n        /* \"#utility.yul\":7940:7948   */\n      dup4\n        /* \"#utility.yul\":7936:7973   */\n      add\n        /* \"#utility.yul\":7923:7934   */\n      dup3\n        /* \"#utility.yul\":7894:7974   */\n      tag_79\n      jump\t// in\n    tag_182:\n        /* \"#utility.yul\":7553:7984   */\n      pop\n      pop\n        /* \"#utility.yul\":7538:7984   */\n    tag_178:\n        /* \"#utility.yul\":7448:7991   */\n      pop\n      pop\n      pop\n      jump\t// out\n        /* \"#utility.yul\":7997:8114   */\n    tag_81:\n        /* \"#utility.yul\":8051:8059   */\n      0x00\n        /* \"#utility.yul\":8101:8106   */\n      dup3\n        /* \"#utility.yul\":8095:8099   */\n      dup3\n        /* \"#utility.yul\":8091:8107   */\n      shr\n        /* \"#utility.yul\":8070:8107   */\n      swap1\n      pop\n        /* \"#utility.yul\":7997:8114   */\n      swap3\n      swap2\n      pop\n      pop\n      jump\t// out\n        /* \"#utility.yul\":8120:8289   */\n    tag_82:\n        /* \"#utility.yul\":8164:8170   */\n      0x00\n        /* \"#utility.yul\":8197:8248   */\n      tag_186\n        /* \"#utility.yul\":8245:8246   */\n      0x00\n        /* \"#utility.yul\":8241:8247   */\n      not\n        /* \"#utility.yul\":8233:8238   */\n      dup5\n        /* \"#utility.yul\":8230:8231   */\n      0x08\n        /* \"#utility.yul\":8226:8239   */\n      mul\n        /* \"#utility.yul\":8197:8248   */\n      tag_81\n      jump\t// in\n    tag_186:\n        /* \"#utility.yul\":8193:8249   */\n      not\n        /* \"#utility.yul\":8278:8282   */\n      dup1\n        /* \"#utility.yul\":8272:8276   */\n      dup4\n        /* \"#utility.yul\":8268:8283   */\n      and\n        /* \"#utility.yul\":8258:8283   */\n      swap2\n      pop\n        /* \"#utility.yul\":8171:8289   */\n      pop\n        /* \"#utility.yul\":8120:8289   */\n      swap3\n      swap2\n      pop\n      pop\n      jump\t// out\n        /* \"#utility.yul\":8294:8589   */\n    tag_83:\n        /* \"#utility.yul\":8370:8374   */\n      0x00\n        /* \"#utility.yul\":8516:8545   */\n      tag_188\n        /* \"#utility.yul\":8541:8544   */\n      dup4\n        /* \"#utility.yul\":8535:8539   */\n      dup4\n        /* \"#utility.yul\":8516:8545   */\n      tag_82\n      jump\t// in\n    tag_188:\n        /* \"#utility.yul\":8508:8545   */\n      swap2\n      pop\n        /* \"#utility.yul\":8578:8581   */\n      dup3\n        /* \"#utility.yul\":8575:8576   */\n      0x02\n        /* \"#utility.yul\":8571:8582   */\n      mul\n        /* \"#utility.yul\":8565:8569   */\n      dup3\n        /* \"#utility.yul\":8562:8583   */\n      or\n        /* \"#utility.yul\":8554:8583   */\n      swap1\n      pop\n        /* \"#utility.yul\":8294:8589   */\n      swap3\n      swap2\n      pop\n      pop\n      jump\t// out\n        /* \"#utility.yul\":8594:9989   */\n    tag_18:\n        /* \"#utility.yul\":8711:8748   */\n      tag_190\n        /* \"#utility.yul\":8744:8747   */\n      dup3\n        /* \"#utility.yul\":8711:8748   */\n      tag_64\n      jump\t// in\n    tag_190:\n        /* \"#utility.yul\":8813:8831   */\n      0xffffffffffffffff\n        /* \"#utility.yul\":8805:8811   */\n      dup2\n        /* \"#utility.yul\":8802:8832   */\n      gt\n        /* \"#utility.yul\":8799:8855   */\n      iszero\n      tag_191\n      jumpi\n        /* \"#utility.yul\":8835:8853   */\n      tag_192\n      tag_54\n      jump\t// in\n    tag_192:\n        /* \"#utility.yul\":8799:8855   */\n    tag_191:\n        /* \"#utility.yul\":8879:8917   */\n      tag_193\n        /* \"#utility.yul\":8911:8915   */\n      dup3\n        /* \"#utility.yul\":8905:8916   */\n      sload\n        /* \"#utility.yul\":8879:8917   */\n      tag_33\n      jump\t// in\n    tag_193:\n        /* \"#utility.yul\":8964:9031   */\n      tag_194\n        /* \"#utility.yul\":9024:9030   */\n      dup3\n        /* \"#utility.yul\":9016:9022   */\n      dup3\n        /* \"#utility.yul\":9010:9014   */\n      dup6\n        /* \"#utility.yul\":8964:9031   */\n      tag_80\n      jump\t// in\n    tag_194:\n        /* \"#utility.yul\":9058:9059   */\n      0x00\n        /* \"#utility.yul\":9082:9086   */\n      0x20\n        /* \"#utility.yul\":9069:9086   */\n      swap1\n      pop\n        /* \"#utility.yul\":9114:9116   */\n      0x1f\n        /* \"#utility.yul\":9106:9112   */\n      dup4\n        /* \"#utility.yul\":9103:9117   */\n      gt\n        /* \"#utility.yul\":9131:9132   */\n      0x01\n        /* \"#utility.yul\":9126:9744   */\n      dup2\n      eq\n      tag_196\n      jumpi\n        /* \"#utility.yul\":9788:9789   */\n      0x00\n        /* \"#utility.yul\":9805:9811   */\n      dup5\n        /* \"#utility.yul\":9802:9879   */\n      iszero\n      tag_197\n      jumpi\n        /* \"#utility.yul\":9854:9863   */\n      dup3\n        /* \"#utility.yul\":9849:9852   */\n      dup8\n        /* \"#utility.yul\":9845:9864   */\n      add\n        /* \"#utility.yul\":9839:9865   */\n      mload\n        /* \"#utility.yul\":9830:9865   */\n      swap1\n      pop\n        /* \"#utility.yul\":9802:9879   */\n    tag_197:\n        /* \"#utility.yul\":9905:9972   */\n      tag_198\n        /* \"#utility.yul\":9965:9971   */\n      dup6\n        /* \"#utility.yul\":9958:9963   */\n      dup3\n        /* \"#utility.yul\":9905:9972   */\n      tag_83\n      jump\t// in\n    tag_198:\n        /* \"#utility.yul\":9899:9903   */\n      dup7\n        /* \"#utility.yul\":9892:9973   */\n      sstore\n        /* \"#utility.yul\":9761:9983   */\n      pop\n        /* \"#utility.yul\":9096:9983   */\n      jump(tag_195)\n        /* \"#utility.yul\":9126:9744   */\n    tag_196:\n        /* \"#utility.yul\":9178:9182   */\n      0x1f\n        /* \"#utility.yul\":9174:9183   */\n      not\n        /* \"#utility.yul\":9166:9172   */\n      dup5\n        /* \"#utility.yul\":9162:9184   */\n      and\n        /* \"#utility.yul\":9212:9249   */\n      tag_199\n        /* \"#utility.yul\":9244:9248   */\n      dup7\n        /* \"#utility.yul\":9212:9249   */\n      tag_69\n      jump\t// in\n    tag_199:\n        /* \"#utility.yul\":9271:9272   */\n      0x00\n        /* \"#utility.yul\":9285:9493   */\n    tag_200:\n        /* \"#utility.yul\":9299:9306   */\n      dup3\n        /* \"#utility.yul\":9296:9297   */\n      dup2\n        /* \"#utility.yul\":9293:9307   */\n      lt\n        /* \"#utility.yul\":9285:9493   */\n      iszero\n      tag_202\n      jumpi\n        /* \"#utility.yul\":9378:9387   */\n      dup5\n        /* \"#utility.yul\":9373:9376   */\n      dup10\n        /* \"#utility.yul\":9369:9388   */\n      add\n        /* \"#utility.yul\":9363:9389   */\n      mload\n        /* \"#utility.yul\":9355:9361   */\n      dup3\n        /* \"#utility.yul\":9348:9390   */\n      sstore\n        /* \"#utility.yul\":9429:9430   */\n      0x01\n        /* \"#utility.yul\":9421:9427   */\n      dup3\n        /* \"#utility.yul\":9417:9431   */\n      add\n        /* \"#utility.yul\":9407:9431   */\n      swap2\n      pop\n        /* \"#utility.yul\":9476:9478   */\n      0x20\n        /* \"#utility.yul\":9465:9474   */\n      dup6\n        /* \"#utility.yul\":9461:9479   */\n      add\n        /* \"#utility.yul\":9448:9479   */\n      swap5\n      pop\n        /* \"#utility.yul\":9322:9326   */\n      0x20\n        /* \"#utility.yul\":9319:9320   */\n      dup2\n        /* \"#utility.yul\":9315:9327   */\n      add\n        /* \"#utility.yul\":9310:9327   */\n      swap1\n      pop\n        /* \"#utility.yul\":9285:9493   */\n      jump(tag_200)\n    tag_202:\n        /* \"#utility.yul\":9521:9527   */\n      dup7\n        /* \"#utility.yul\":9512:9519   */\n      dup4\n        /* \"#utility.yul\":9509:9528   */\n      lt\n        /* \"#utility.yul\":9506:9685   */\n      iszero\n      tag_203\n      jumpi\n        /* \"#utility.yul\":9579:9588   */\n      dup5\n        /* \"#utility.yul\":9574:9577   */\n      dup10\n        /* \"#utility.yul\":9570:9589   */\n      add\n        /* \"#utility.yul\":9564:9590   */\n      mload\n        /* \"#utility.yul\":9622:9670   */\n      tag_204\n        /* \"#utility.yul\":9664:9668   */\n      0x1f\n        /* \"#utility.yul\":9656:9662   */\n      dup10\n        /* \"#utility.yul\":9652:9669   */\n      and\n        /* \"#utility.yul\":9641:9650   */\n      dup3\n        /* \"#utility.yul\":9622:9670   */\n      tag_82\n      jump\t// in\n    tag_204:\n        /* \"#utility.yul\":9614:9620   */\n      dup4\n        /* \"#utility.yul\":9607:9671   */\n      sstore\n        /* \"#utility.yul\":9529:9685   */\n      pop\n        /* \"#utility.yul\":9506:9685   */\n    tag_203:\n        /* \"#utility.yul\":9731:9732   */\n      0x01\n        /* \"#utility.yul\":9727:9728   */\n      0x02\n        /* \"#utility.yul\":9719:9725   */\n      dup9\n        /* \"#utility.yul\":9715:9729   */\n      mul\n        /* \"#utility.yul\":9711:9733   */\n      add\n        /* \"#utility.yul\":9705:9709   */\n      dup9\n        /* \"#utility.yul\":9698:9734   */\n      sstore\n        /* \"#utility.yul\":9133:9744   */\n      pop\n      pop\n      pop\n        /* \"#utility.yul\":9096:9983   */\n    tag_195:\n      pop\n        /* \"#utility.yul\":8686:9989   */\n      pop\n      pop\n      pop\n        /* \"#utility.yul\":8594:9989   */\n      pop\n      pop\n      jump\t// out\n        /* \"#utility.yul\":9995:10175   */\n    tag_25:\n        /* \"#utility.yul\":10043:10120   */\n      0x4e487b7100000000000000000000000000000000000000000000000000000000\n        /* \"#utility.yul\":10040:10041   */\n      0x00\n        /* \"#utility.yul\":10033:10121   */\n      mstore\n        /* \"#utility.yul\":10140:10144   */\n      0x32\n        /* \"#utility.yul\":10137:10138   */\n      0x04\n        /* \"#utility.yul\":10130:10145   */\n      mstore\n        /* \"#utility.yul\":10164:10168   */\n      0x24\n        /* \"#utility.yul\":10161:10162   */\n      0x00\n        /* \"#utility.yul\":10154:10169   */\n      revert\n        /* \"#utility.yul\":10181:10329   */\n    tag_84:\n        /* \"#utility.yul\":10283:10294   */\n      0x00\n        /* \"#utility.yul\":10320:10323   */\n      dup2\n        /* \"#utility.yul\":10305:10323   */\n      swap1\n      pop\n        /* \"#utility.yul\":10181:10329   */\n      swap3\n      swap2\n      pop\n      pop\n      jump\t// out\n        /* \"#utility.yul\":10335:10725   */\n    tag_85:\n        /* \"#utility.yul\":10441:10444   */\n      0x00\n        /* \"#utility.yul\":10469:10508   */\n      tag_208\n        /* \"#utility.yul\":10502:10507   */\n      dup3\n        /* \"#utility.yul\":10469:10508   */\n      tag_64\n      jump\t// in\n    tag_208:\n        /* \"#utility.yul\":10524:10613   */\n      tag_209\n        /* \"#utility.yul\":10606:10612   */\n      dup2\n        /* \"#utility.yul\":10601:10604   */\n      dup6\n        /* \"#utility.yul\":10524:10613   */\n      tag_84\n      jump\t// in\n    tag_209:\n        /* \"#utility.yul\":10517:10613   */\n      swap4\n      pop\n        /* \"#utility.yul\":10622:10687   */\n      tag_210\n        /* \"#utility.yul\":10680:10686   */\n      dup2\n        /* \"#utility.yul\":10675:10678   */\n      dup6\n        /* \"#utility.yul\":10668:10672   */\n      0x20\n        /* \"#utility.yul\":10661:10666   */\n      dup7\n        /* \"#utility.yul\":10657:10673   */\n      add\n        /* \"#utility.yul\":10622:10687   */\n      tag_66\n      jump\t// in\n    tag_210:\n        /* \"#utility.yul\":10712:10718   */\n      dup1\n        /* \"#utility.yul\":10707:10710   */\n      dup5\n        /* \"#utility.yul\":10703:10719   */\n      add\n        /* \"#utility.yul\":10696:10719   */\n      swap2\n      pop\n        /* \"#utility.yul\":10445:10725   */\n      pop\n        /* \"#utility.yul\":10335:10725   */\n      swap3\n      swap2\n      pop\n      pop\n      jump\t// out\n        /* \"#utility.yul\":10731:10937   */\n    tag_86:\n        /* \"#utility.yul\":10900:10930   */\n      0x2066726f6d20666c616e6b277320736d61727420636f6e747261637400000000\n        /* \"#utility.yul\":10895:10898   */\n      dup2\n        /* \"#utility.yul\":10888:10931   */\n      mstore\n        /* \"#utility.yul\":10731:10937   */\n      pop\n      jump\t// out\n        /* \"#utility.yul\":10943:11485   */\n    tag_47:\n        /* \"#utility.yul\":11166:11169   */\n      0x00\n        /* \"#utility.yul\":11188:11283   */\n      tag_213\n        /* \"#utility.yul\":11279:11282   */\n      dup3\n        /* \"#utility.yul\":11270:11276   */\n      dup5\n        /* \"#utility.yul\":11188:11283   */\n      tag_85\n      jump\t// in\n    tag_213:\n        /* \"#utility.yul\":11181:11283   */\n      swap2\n      pop\n        /* \"#utility.yul\":11293:11431   */\n      tag_214\n        /* \"#utility.yul\":11427:11430   */\n      dup3\n        /* \"#utility.yul\":11293:11431   */\n      tag_86\n      jump\t// in\n    tag_214:\n        /* \"#utility.yul\":11456:11458   */\n      0x1c\n        /* \"#utility.yul\":11451:11454   */\n      dup3\n        /* \"#utility.yul\":11447:11459   */\n      add\n        /* \"#utility.yul\":11440:11459   */\n      swap2\n      pop\n        /* \"#utility.yul\":11476:11479   */\n      dup2\n        /* \"#utility.yul\":11469:11479   */\n      swap1\n      pop\n        /* \"#utility.yul\":10943:11485   */\n      swap3\n      swap2\n      pop\n      pop\n      jump\t// out\n\n    auxdata: 0xa26469706673582212206c47a0b6132eeee7348495844bb0f2ab5fedfdf9a9870ab59b55000cc1456bd264736f6c634300081e0033\n}\n",
				"bytecode": {
					"linkReferences": {},
					"object": "60806040526040518060400160405280600c81526020017f48656c6c6f20776f726c642100000000000000000000000000000000000000008152505f90816100479190610296565b50348015610053575f5ffd5b50610365565b5f81519050919050565b7f4e487b71000000000000000000000000000000000000000000000000000000005f52604160045260245ffd5b7f4e487b71000000000000000000000000000000000000000000000000000000005f52602260045260245ffd5b5f60028204905060018216806100d457607f821691505b6020821081036100e7576100e6610090565b5b50919050565b5f819050815f5260205f209050919050565b5f6020601f8301049050919050565b5f82821b905092915050565b5f600883026101497fffffffffffffffffffffffffffffffffffffffffffffffffffffffffffffffff8261010e565b610153868361010e565b95508019841693508086168417925050509392505050565b5f819050919050565b5f819050919050565b5f61019761019261018d8461016b565b610174565b61016b565b9050919050565b5f819050919050565b6101b08361017d565b6101c46101bc8261019e565b84845461011a565b825550505050565b5f5f905090565b6101db6101cc565b6101e68184846101a7565b505050565b5b81811015610209576101fe5f826101d3565b6001810190506101ec565b5050565b601f82111561024e5761021f816100ed565b610228846100ff565b81016020851015610237578190505b61024b610243856100ff565b8301826101eb565b50505b505050565b5f82821c905092915050565b5f61026e5f1984600802610253565b1980831691505092915050565b5f610286838361025f565b9150826002028217905092915050565b61029f82610059565b67ffffffffffffffff8111156102b8576102b7610063565b5b6102c282546100bd565b6102cd82828561020d565b5f60209050601f8311600181146102fe575f84156102ec578287015190505b6102f6858261027b565b86555061035d565b601f19841661030c866100ed565b5f5b828110156103335784890151825560018201915060208501945060208101905061030e565b86831015610350578489015161034c601f89168261025f565b8355505b6001600288020188555050505b505050505050565b610965806103725f395ff3fe608060405234801561000f575f5ffd5b5060043610610034575f3560e01c8063235167931461003857806342257b3114610054575b5f5ffd5b610052600480360381019061004d9190610492565b610084565b005b61006e600480360381019061006991906104ec565b61014c565b60405161007b9190610591565b60405180910390f35b5f60405180606001604052808481526020018381526020013373ffffffffffffffffffffffffffffffffffffffff168152509050600181908060018154018082558091505060019003905f5260205f2090600302015f909190919091505f820151815f0190816100f491906107ae565b50602082015181600101556040820151816002015f6101000a81548173ffffffffffffffffffffffffffffffffffffffff021916908373ffffffffffffffffffffffffffffffffffffffff1602179055505050505050565b60605f5f90505b6001805490508110156102505782600182815481106101755761017461087d565b5b905f5260205f20906003020160010154036102435761023b600182815481106101a1576101a061087d565b5b905f5260205f2090600302015f0180546101ba906105de565b80601f01602080910402602001604051908101604052809291908181526020018280546101e6906105de565b80156102315780601f1061020857610100808354040283529160200191610231565b820191905f5260205f20905b81548152906001019060200180831161021457829003601f168201915b50505050506102e9565b9150506102e4565b8080600101915050610153565b506102e15f8054610260906105de565b80601f016020809104026020016040519081016040528092919081815260200182805461028c906105de565b80156102d75780601f106102ae576101008083540402835291602001916102d7565b820191905f5260205f20905b8154815290600101906020018083116102ba57829003601f168201915b50505050506102e9565b90505b919050565b6060816040516020016102fc919061090a565b6040516020818303038152906040529050919050565b5f604051905090565b5f5ffd5b5f5ffd5b5f5ffd5b5f5ffd5b5f601f19601f8301169050919050565b7f4e487b71000000000000000000000000000000000000000000000000000000005f52604160045260245ffd5b6103718261032b565b810181811067ffffffffffffffff821117156103905761038f61033b565b5b80604052505050565b5f6103a2610312565b90506103ae8282610368565b919050565b5f67ffffffffffffffff8211156103cd576103cc61033b565b5b6103d68261032b565b9050602081019050919050565b828183375f83830152505050565b5f6104036103fe846103b3565b610399565b90508281526020810184848401111561041f5761041e610327565b5b61042a8482856103e3565b509392505050565b5f82601f83011261044657610445610323565b5b81356104568482602086016103f1565b91505092915050565b5f819050919050565b6104718161045f565b811461047b575f5ffd5b50565b5f8135905061048c81610468565b92915050565b5f5f604083850312156104a8576104a761031b565b5b5f83013567ffffffffffffffff8111156104c5576104c461031f565b5b6104d185828601610432565b92505060206104e28582860161047e565b9150509250929050565b5f602082840312156105015761050061031b565b5b5f61050e8482850161047e565b91505092915050565b5f81519050919050565b5f82825260208201905092915050565b5f5b8381101561054e578082015181840152602081019050610533565b5f8484015250505050565b5f61056382610517565b61056d8185610521565b935061057d818560208601610531565b6105868161032b565b840191505092915050565b5f6020820190508181035f8301526105a98184610559565b905092915050565b7f4e487b71000000000000000000000000000000000000000000000000000000005f52602260045260245ffd5b5f60028204905060018216806105f557607f821691505b602082108103610608576106076105b1565b5b50919050565b5f819050815f5260205f209050919050565b5f6020601f8301049050919050565b5f82821b905092915050565b5f6008830261066a7fffffffffffffffffffffffffffffffffffffffffffffffffffffffffffffffff8261062f565b610674868361062f565b95508019841693508086168417925050509392505050565b5f819050919050565b5f6106af6106aa6106a58461045f565b61068c565b61045f565b9050919050565b5f819050919050565b6106c883610695565b6106dc6106d4826106b6565b84845461063b565b825550505050565b5f5f905090565b6106f36106e4565b6106fe8184846106bf565b505050565b5b81811015610721576107165f826106eb565b600181019050610704565b5050565b601f821115610766576107378161060e565b61074084610620565b8101602085101561074f578190505b61076361075b85610620565b830182610703565b50505b505050565b5f82821c905092915050565b5f6107865f198460080261076b565b1980831691505092915050565b5f61079e8383610777565b9150826002028217905092915050565b6107b782610517565b67ffffffffffffffff8111156107d0576107cf61033b565b5b6107da82546105de565b6107e5828285610725565b5f60209050601f831160018114610816575f8415610804578287015190505b61080e8582610793565b865550610875565b601f1984166108248661060e565b5f5b8281101561084b57848901518255600182019150602085019450602081019050610826565b868310156108685784890151610864601f891682610777565b8355505b6001600288020188555050505b505050505050565b7f4e487b71000000000000000000000000000000000000000000000000000000005f52603260045260245ffd5b5f81905092915050565b5f6108be82610517565b6108c881856108aa565b93506108d8818560208601610531565b80840191505092915050565b7f2066726f6d20666c616e6b277320736d61727420636f6e747261637400000000815250565b5f61091582846108b4565b9150610920826108e4565b601c820191508190509291505056fea26469706673582212206c47a0b6132eeee7348495844bb0f2ab5fedfdf9a9870ab59b55000cc1456bd264736f6c634300081e0033",
					"opcodes": "PUSH1 0x80 PUSH1 0x40 MSTORE PUSH1 0x40 MLOAD DUP1 PUSH1 0x40 ADD PUSH1 0x40 MSTORE DUP1 PUSH1 0xC DUP2 MSTORE PUSH1 0x20 ADD PUSH32 0x48656C6C6F20776F726C64210000000000000000000000000000000000000000 DUP2 MSTORE POP PUSH0 SWAP1 DUP2 PUSH2 0x47 SWAP2 SWAP1 PUSH2 0x296 JUMP JUMPDEST POP CALLVALUE DUP1 ISZERO PUSH2 0x53 JUMPI PUSH0 PUSH0 REVERT JUMPDEST POP PUSH2 0x365 JUMP JUMPDEST PUSH0 DUP2 MLOAD SWAP1 POP SWAP2 SWAP1 POP JUMP JUMPDEST PUSH32 0x4E487B7100000000000000000000000000000000000000000000000000000000 PUSH0 MSTORE PUSH1 0x41 PUSH1 0x4 MSTORE PUSH1 0x24 PUSH0 REVERT JUMPDEST PUSH32 0x4E487B7100000000000000000000000000000000000000000000000000000000 PUSH0 MSTORE PUSH1 0x22 PUSH1 0x4 MSTORE PUSH1 0x24 PUSH0 REVERT JUMPDEST PUSH0 PUSH1 0x2 DUP3 DIV SWAP1 POP PUSH1 0x1 DUP3 AND DUP1 PUSH2 0xD4 JUMPI PUSH1 0x7F DUP3 AND SWAP2 POP JUMPDEST PUSH1 0x20 DUP3 LT DUP2 SUB PUSH2 0xE7 JUMPI PUSH2 0xE6 PUSH2 0x90 JUMP JUMPDEST JUMPDEST POP SWAP2 SWAP1 POP JUMP JUMPDEST PUSH0 DUP2 SWAP1 POP DUP2 PUSH0 MSTORE PUSH1 0x20 PUSH0 KECCAK256 SWAP1 POP SWAP2 SWAP1 POP JUMP JUMPDEST PUSH0 PUSH1 0x20 PUSH1 0x1F DUP4 ADD DIV SWAP1 POP SWAP2 SWAP1 POP JUMP JUMPDEST PUSH0 DUP3 DUP3 SHL SWAP1 POP SWAP3 SWAP2 POP POP JUMP JUMPDEST PUSH0 PUSH1 0x8 DUP4 MUL PUSH2 0x149 PUSH32 0xFFFFFFFFFFFFFFFFFFFFFFFFFFFFFFFFFFFFFFFFFFFFFFFFFFFFFFFFFFFFFFFF DUP3 PUSH2 0x10E JUMP JUMPDEST PUSH2 0x153 DUP7 DUP4 PUSH2 0x10E JUMP JUMPDEST SWAP6 POP DUP1 NOT DUP5 AND SWAP4 POP DUP1 DUP7 AND DUP5 OR SWAP3 POP POP POP SWAP4 SWAP3 POP POP POP JUMP JUMPDEST PUSH0 DUP2 SWAP1 POP SWAP2 SWAP1 POP JUMP JUMPDEST PUSH0 DUP2 SWAP1 POP SWAP2 SWAP1 POP JUMP JUMPDEST PUSH0 PUSH2 0x197 PUSH2 0x192 PUSH2 0x18D DUP5 PUSH2 0x16B JUMP JUMPDEST PUSH2 0x174 JUMP JUMPDEST PUSH2 0x16B JUMP JUMPDEST SWAP1 POP SWAP2 SWAP1 POP JUMP JUMPDEST PUSH0 DUP2 SWAP1 POP SWAP2 SWAP1 POP JUMP JUMPDEST PUSH2 0x1B0 DUP4 PUSH2 0x17D JUMP JUMPDEST PUSH2 0x1C4 PUSH2 0x1BC DUP3 PUSH2 0x19E JUMP JUMPDEST DUP5 DUP5 SLOAD PUSH2 0x11A JUMP JUMPDEST DUP3 SSTORE POP POP POP POP JUMP JUMPDEST PUSH0 PUSH0 SWAP1 POP SWAP1 JUMP JUMPDEST PUSH2 0x1DB PUSH2 0x1CC JUMP JUMPDEST PUSH2 0x1E6 DUP2 DUP5 DUP5 PUSH2 0x1A7 JUMP JUMPDEST POP POP POP JUMP JUMPDEST JUMPDEST DUP2 DUP2 LT ISZERO PUSH2 0x209 JUMPI PUSH2 0x1FE PUSH0 DUP3 PUSH2 0x1D3 JUMP JUMPDEST PUSH1 0x1 DUP2 ADD SWAP1 POP PUSH2 0x1EC JUMP JUMPDEST POP POP JUMP JUMPDEST PUSH1 0x1F DUP3 GT ISZERO PUSH2 0x24E JUMPI PUSH2 0x21F DUP2 PUSH2 0xED JUMP JUMPDEST PUSH2 0x228 DUP5 PUSH2 0xFF JUMP JUMPDEST DUP2 ADD PUSH1 0x20 DUP6 LT ISZERO PUSH2 0x237 JUMPI DUP2 SWAP1 POP JUMPDEST PUSH2 0x24B PUSH2 0x243 DUP6 PUSH2 0xFF JUMP JUMPDEST DUP4 ADD DUP3 PUSH2 0x1EB JUMP JUMPDEST POP POP JUMPDEST POP POP POP JUMP JUMPDEST PUSH0 DUP3 DUP3 SHR SWAP1 POP SWAP3 SWAP2 POP POP JUMP JUMPDEST PUSH0 PUSH2 0x26E PUSH0 NOT DUP5 PUSH1 0x8 MUL PUSH2 0x253 JUMP JUMPDEST NOT DUP1 DUP4 AND SWAP2 POP POP SWAP3 SWAP2 POP POP JUMP JUMPDEST PUSH0 PUSH2 0x286 DUP4 DUP4 PUSH2 0x25F JUMP JUMPDEST SWAP2 POP DUP3 PUSH1 0x2 MUL DUP3 OR SWAP1 POP SWAP3 SWAP2 POP POP JUMP JUMPDEST PUSH2 0x29F DUP3 PUSH2 0x59 JUMP JUMPDEST PUSH8 0xFFFFFFFFFFFFFFFF DUP2 GT ISZERO PUSH2 0x2B8 JUMPI PUSH2 0x2B7 PUSH2 0x63 JUMP JUMPDEST JUMPDEST PUSH2 0x2C2 DUP3 SLOAD PUSH2 0xBD JUMP JUMPDEST PUSH2 0x2CD DUP3 DUP3 DUP6 PUSH2 0x20D JUMP JUMPDEST PUSH0 PUSH1 0x20 SWAP1 POP PUSH1 0x1F DUP4 GT PUSH1 0x1 DUP2 EQ PUSH2 0x2FE JUMPI PUSH0 DUP5 ISZERO PUSH2 0x2EC JUMPI DUP3 DUP8 ADD MLOAD SWAP1 POP JUMPDEST PUSH2 0x2F6 DUP6 DUP3 PUSH2 0x27B JUMP JUMPDEST DUP7 SSTORE POP PUSH2 0x35D JUMP JUMPDEST PUSH1 0x1F NOT DUP5 AND PUSH2 0x30C DUP7 PUSH2 0xED JUMP JUMPDEST PUSH0 JUMPDEST DUP3 DUP2 LT ISZERO PUSH2 0x333 JUMPI DUP5 DUP10 ADD MLOAD DUP3 SSTORE PUSH1 0x1 DUP3 ADD SWAP2 POP PUSH1 0x20 DUP6 ADD SWAP5 POP PUSH1 0x20 DUP2 ADD SWAP1 POP PUSH2 0x30E JUMP JUMPDEST DUP7 DUP4 LT ISZERO PUSH2 0x350 JUMPI DUP5 DUP10 ADD MLOAD PUSH2 0x34C PUSH1 0x1F DUP10 AND DUP3 PUSH2 0x25F JUMP JUMPDEST DUP4 SSTORE POP JUMPDEST PUSH1 0x1 PUSH1 0x2 DUP9 MUL ADD DUP9 SSTORE POP POP POP JUMPDEST POP POP POP POP POP POP JUMP JUMPDEST PUSH2 0x965 DUP1 PUSH2 0x372 PUSH0 CODECOPY PUSH0 RETURN INVALID PUSH1 0x80 PUSH1 0x40 MSTORE CALLVALUE DUP1 ISZERO PUSH2 0xF JUMPI PUSH0 PUSH0 REVERT JUMPDEST POP PUSH1 0x4 CALLDATASIZE LT PUSH2 0x34 JUMPI PUSH0 CALLDATALOAD PUSH1 0xE0 SHR DUP1 PUSH4 0x23516793 EQ PUSH2 0x38 JUMPI DUP1 PUSH4 0x42257B31 EQ PUSH2 0x54 JUMPI JUMPDEST PUSH0 PUSH0 REVERT JUMPDEST PUSH2 0x52 PUSH1 0x4 DUP1 CALLDATASIZE SUB DUP2 ADD SWAP1 PUSH2 0x4D SWAP2 SWAP1 PUSH2 0x492 JUMP JUMPDEST PUSH2 0x84 JUMP JUMPDEST STOP JUMPDEST PUSH2 0x6E PUSH1 0x4 DUP1 CALLDATASIZE SUB DUP2 ADD SWAP1 PUSH2 0x69 SWAP2 SWAP1 PUSH2 0x4EC JUMP JUMPDEST PUSH2 0x14C JUMP JUMPDEST PUSH1 0x40 MLOAD PUSH2 0x7B SWAP2 SWAP1 PUSH2 0x591 JUMP JUMPDEST PUSH1 0x40 MLOAD DUP1 SWAP2 SUB SWAP1 RETURN JUMPDEST PUSH0 PUSH1 0x40 MLOAD DUP1 PUSH1 0x60 ADD PUSH1 0x40 MSTORE DUP1 DUP5 DUP2 MSTORE PUSH1 0x20 ADD DUP4 DUP2 MSTORE PUSH1 0x20 ADD CALLER PUSH20 0xFFFFFFFFFFFFFFFFFFFFFFFFFFFFFFFFFFFFFFFF AND DUP2 MSTORE POP SWAP1 POP PUSH1 0x1 DUP2 SWAP1 DUP1 PUSH1 0x1 DUP2 SLOAD ADD DUP1 DUP3 SSTORE DUP1 SWAP2 POP POP PUSH1 0x1 SWAP1 SUB SWAP1 PUSH0 MSTORE PUSH1 0x20 PUSH0 KECCAK256 SWAP1 PUSH1 0x3 MUL ADD PUSH0 SWAP1 SWAP2 SWAP1 SWAP2 SWAP1 SWAP2 POP PUSH0 DUP3 ADD MLOAD DUP2 PUSH0 ADD SWAP1 DUP2 PUSH2 0xF4 SWAP2 SWAP1 PUSH2 0x7AE JUMP JUMPDEST POP PUSH1 0x20 DUP3 ADD MLOAD DUP2 PUSH1 0x1 ADD SSTORE PUSH1 0x40 DUP3 ADD MLOAD DUP2 PUSH1 0x2 ADD PUSH0 PUSH2 0x100 EXP DUP2 SLOAD DUP2 PUSH20 0xFFFFFFFFFFFFFFFFFFFFFFFFFFFFFFFFFFFFFFFF MUL NOT AND SWAP1 DUP4 PUSH20 0xFFFFFFFFFFFFFFFFFFFFFFFFFFFFFFFFFFFFFFFF AND MUL OR SWAP1 SSTORE POP POP POP POP POP POP JUMP JUMPDEST PUSH1 0x60 PUSH0 PUSH0 SWAP1 POP JUMPDEST PUSH1 0x1 DUP1 SLOAD SWAP1 POP DUP2 LT ISZERO PUSH2 0x250 JUMPI DUP3 PUSH1 0x1 DUP3 DUP2 SLOAD DUP2 LT PUSH2 0x175 JUMPI PUSH2 0x174 PUSH2 0x87D JUMP JUMPDEST JUMPDEST SWAP1 PUSH0 MSTORE PUSH1 0x20 PUSH0 KECCAK256 SWAP1 PUSH1 0x3 MUL ADD PUSH1 0x1 ADD SLOAD SUB PUSH2 0x243 JUMPI PUSH2 0x23B PUSH1 0x1 DUP3 DUP2 SLOAD DUP2 LT PUSH2 0x1A1 JUMPI PUSH2 0x1A0 PUSH2 0x87D JUMP JUMPDEST JUMPDEST SWAP1 PUSH0 MSTORE PUSH1 0x20 PUSH0 KECCAK256 SWAP1 PUSH1 0x3 MUL ADD PUSH0 ADD DUP1 SLOAD PUSH2 0x1BA SWAP1 PUSH2 0x5DE JUMP JUMPDEST DUP1 PUSH1 0x1F ADD PUSH1 0x20 DUP1 SWAP2 DIV MUL PUSH1 0x20 ADD PUSH1 0x40 MLOAD SWAP1 DUP2 ADD PUSH1 0x40 MSTORE DUP1 SWAP3 SWAP2 SWAP1 DUP2 DUP2 MSTORE PUSH1 0x20 ADD DUP3 DUP1 SLOAD PUSH2 0x1E6 SWAP1 PUSH2 0x5DE JUMP JUMPDEST DUP1 ISZERO PUSH2 0x231 JUMPI DUP1 PUSH1 0x1F LT PUSH2 0x208 JUMPI PUSH2 0x100 DUP1 DUP4 SLOAD DIV MUL DUP4 MSTORE SWAP2 PUSH1 0x20 ADD SWAP2 PUSH2 0x231 JUMP JUMPDEST DUP3 ADD SWAP2 SWAP1 PUSH0 MSTORE PUSH1 0x20 PUSH0 KECCAK256 SWAP1 JUMPDEST DUP2 SLOAD DUP2 MSTORE SWAP1 PUSH1 0x1 ADD SWAP1 PUSH1 0x20 ADD DUP1 DUP4 GT PUSH2 0x214 JUMPI DUP3 SWAP1 SUB PUSH1 0x1F AND DUP3 ADD SWAP2 JUMPDEST POP POP POP POP POP PUSH2 0x2E9 JUMP JUMPDEST SWAP2 POP POP PUSH2 0x2E4 JUMP JUMPDEST DUP1 DUP1 PUSH1 0x1 ADD SWAP2 POP POP PUSH2 0x153 JUMP JUMPDEST POP PUSH2 0x2E1 PUSH0 DUP1 SLOAD PUSH2 0x260 SWAP1 PUSH2 0x5DE JUMP JUMPDEST DUP1 PUSH1 0x1F ADD PUSH1 0x20 DUP1 SWAP2 DIV MUL PUSH1 0x20 ADD PUSH1 0x40 MLOAD SWAP1 DUP2 ADD PUSH1 0x40 MSTORE DUP1 SWAP3 SWAP2 SWAP1 DUP2 DUP2 MSTORE PUSH1 0x20 ADD DUP3 DUP1 SLOAD PUSH2 0x28C SWAP1 PUSH2 0x5DE JUMP JUMPDEST DUP1 ISZERO PUSH2 0x2D7 JUMPI DUP1 PUSH1 0x1F LT PUSH2 0x2AE JUMPI PUSH2 0x100 DUP1 DUP4 SLOAD DIV MUL DUP4 MSTORE SWAP2 PUSH1 0x20 ADD SWAP2 PUSH2 0x2D7 JUMP JUMPDEST DUP3 ADD SWAP2 SWAP1 PUSH0 MSTORE PUSH1 0x20 PUSH0 KECCAK256 SWAP1 JUMPDEST DUP2 SLOAD DUP2 MSTORE SWAP1 PUSH1 0x1 ADD SWAP1 PUSH1 0x20 ADD DUP1 DUP4 GT PUSH2 0x2BA JUMPI DUP3 SWAP1 SUB PUSH1 0x1F AND DUP3 ADD SWAP2 JUMPDEST POP POP POP POP POP PUSH2 0x2E9 JUMP JUMPDEST SWAP1 POP JUMPDEST SWAP2 SWAP1 POP JUMP JUMPDEST PUSH1 0x60 DUP2 PUSH1 0x40 MLOAD PUSH1 0x20 ADD PUSH2 0x2FC SWAP2 SWAP1 PUSH2 0x90A JUMP JUMPDEST PUSH1 0x40 MLOAD PUSH1 0x20 DUP2 DUP4 SUB SUB DUP2 MSTORE SWAP1 PUSH1 0x40 MSTORE SWAP1 POP SWAP2 SWAP1 POP JUMP JUMPDEST PUSH0 PUSH1 0x40 MLOAD SWAP1 POP SWAP1 JUMP JUMPDEST PUSH0 PUSH0 REVERT JUMPDEST PUSH0 PUSH0 REVERT JUMPDEST PUSH0 PUSH0 REVERT JUMPDEST PUSH0 PUSH0 REVERT JUMPDEST PUSH0 PUSH1 0x1F NOT PUSH1 0x1F DUP4 ADD AND SWAP1 POP SWAP2 SWAP1 POP JUMP JUMPDEST PUSH32 0x4E487B7100000000000000000000000000000000000000000000000000000000 PUSH0 MSTORE PUSH1 0x41 PUSH1 0x4 MSTORE PUSH1 0x24 PUSH0 REVERT JUMPDEST PUSH2 0x371 DUP3 PUSH2 0x32B JUMP JUMPDEST DUP2 ADD DUP2 DUP2 LT PUSH8 0xFFFFFFFFFFFFFFFF DUP3 GT OR ISZERO PUSH2 0x390 JUMPI PUSH2 0x38F PUSH2 0x33B JUMP JUMPDEST JUMPDEST DUP1 PUSH1 0x40 MSTORE POP POP POP JUMP JUMPDEST PUSH0 PUSH2 0x3A2 PUSH2 0x312 JUMP JUMPDEST SWAP1 POP PUSH2 0x3AE DUP3 DUP3 PUSH2 0x368 JUMP JUMPDEST SWAP2 SWAP1 POP JUMP JUMPDEST PUSH0 PUSH8 0xFFFFFFFFFFFFFFFF DUP3 GT ISZERO PUSH2 0x3CD JUMPI PUSH2 0x3CC PUSH2 0x33B JUMP JUMPDEST JUMPDEST PUSH2 0x3D6 DUP3 PUSH2 0x32B JUMP JUMPDEST SWAP1 POP PUSH1 0x20 DUP2 ADD SWAP1 POP SWAP2 SWAP1 POP JUMP JUMPDEST DUP3 DUP2 DUP4 CALLDATACOPY PUSH0 DUP4 DUP4 ADD MSTORE POP POP POP JUMP JUMPDEST PUSH0 PUSH2 0x403 PUSH2 0x3FE DUP5 PUSH2 0x3B3 JUMP JUMPDEST PUSH2 0x399 JUMP JUMPDEST SWAP1 POP DUP3 DUP2 MSTORE PUSH1 0x20 DUP2 ADD DUP5 DUP5 DUP5 ADD GT ISZERO PUSH2 0x41F JUMPI PUSH2 0x41E PUSH2 0x327 JUMP JUMPDEST JUMPDEST PUSH2 0x42A DUP5 DUP3 DUP6 PUSH2 0x3E3 JUMP JUMPDEST POP SWAP4 SWAP3 POP POP POP JUMP JUMPDEST PUSH0 DUP3 PUSH1 0x1F DUP4 ADD SLT PUSH2 0x446 JUMPI PUSH2 0x445 PUSH2 0x323 JUMP JUMPDEST JUMPDEST DUP2 CALLDATALOAD PUSH2 0x456 DUP5 DUP3 PUSH1 0x20 DUP7 ADD PUSH2 0x3F1 JUMP JUMPDEST SWAP2 POP POP SWAP3 SWAP2 POP POP JUMP JUMPDEST PUSH0 DUP2 SWAP1 POP SWAP2 SWAP1 POP JUMP JUMPDEST PUSH2 0x471 DUP2 PUSH2 0x45F JUMP JUMPDEST DUP2 EQ PUSH2 0x47B JUMPI PUSH0 PUSH0 REVERT JUMPDEST POP JUMP JUMPDEST PUSH0 DUP2 CALLDATALOAD SWAP1 POP PUSH2 0x48C DUP2 PUSH2 0x468 JUMP JUMPDEST SWAP3 SWAP2 POP POP JUMP JUMPDEST PUSH0 PUSH0 PUSH1 0x40 DUP4 DUP6 SUB SLT ISZERO PUSH2 0x4A8 JUMPI PUSH2 0x4A7 PUSH2 0x31B JUMP JUMPDEST JUMPDEST PUSH0 DUP4 ADD CALLDATALOAD PUSH8 0xFFFFFFFFFFFFFFFF DUP2 GT ISZERO PUSH2 0x4C5 JUMPI PUSH2 0x4C4 PUSH2 0x31F JUMP JUMPDEST JUMPDEST PUSH2 0x4D1 DUP6 DUP3 DUP7 ADD PUSH2 0x432 JUMP JUMPDEST SWAP3 POP POP PUSH1 0x20 PUSH2 0x4E2 DUP6 DUP3 DUP7 ADD PUSH2 0x47E JUMP JUMPDEST SWAP2 POP POP SWAP3 POP SWAP3 SWAP1 POP JUMP JUMPDEST PUSH0 PUSH1 0x20 DUP3 DUP5 SUB SLT ISZERO PUSH2 0x501 JUMPI PUSH2 0x500 PUSH2 0x31B JUMP JUMPDEST JUMPDEST PUSH0 PUSH2 0x50E DUP5 DUP3 DUP6 ADD PUSH2 0x47E JUMP JUMPDEST SWAP2 POP POP SWAP3 SWAP2 POP POP JUMP JUMPDEST PUSH0 DUP2 MLOAD SWAP1 POP SWAP2 SWAP1 POP JUMP JUMPDEST PUSH0 DUP3 DUP3 MSTORE PUSH1 0x20 DUP3 ADD SWAP1 POP SWAP3 SWAP2 POP POP JUMP JUMPDEST PUSH0 JUMPDEST DUP4 DUP2 LT ISZERO PUSH2 0x54E JUMPI DUP1 DUP3 ADD MLOAD DUP2 DUP5 ADD MSTORE PUSH1 0x20 DUP2 ADD SWAP1 POP PUSH2 0x533 JUMP JUMPDEST PUSH0 DUP5 DUP5 ADD MSTORE POP POP POP POP JUMP JUMPDEST PUSH0 PUSH2 0x563 DUP3 PUSH2 0x517 JUMP JUMPDEST PUSH2 0x56D DUP2 DUP6 PUSH2 0x521 JUMP JUMPDEST SWAP4 POP PUSH2 0x57D DUP2 DUP6 PUSH1 0x20 DUP7 ADD PUSH2 0x531 JUMP JUMPDEST PUSH2 0x586 DUP2 PUSH2 0x32B JUMP JUMPDEST DUP5 ADD SWAP2 POP POP SWAP3 SWAP2 POP POP JUMP JUMPDEST PUSH0 PUSH1 0x20 DUP3 ADD SWAP1 POP DUP2 DUP2 SUB PUSH0 DUP4 ADD MSTORE PUSH2 0x5A9 DUP2 DUP5 PUSH2 0x559 JUMP JUMPDEST SWAP1 POP SWAP3 SWAP2 POP POP JUMP JUMPDEST PUSH32 0x4E487B7100000000000000000000000000000000000000000000000000000000 PUSH0 MSTORE PUSH1 0x22 PUSH1 0x4 MSTORE PUSH1 0x24 PUSH0 REVERT JUMPDEST PUSH0 PUSH1 0x2 DUP3 DIV SWAP1 POP PUSH1 0x1 DUP3 AND DUP1 PUSH2 0x5F5 JUMPI PUSH1 0x7F DUP3 AND SWAP2 POP JUMPDEST PUSH1 0x20 DUP3 LT DUP2 SUB PUSH2 0x608 JUMPI PUSH2 0x607 PUSH2 0x5B1 JUMP JUMPDEST JUMPDEST POP SWAP2 SWAP1 POP JUMP JUMPDEST PUSH0 DUP2 SWAP1 POP DUP2 PUSH0 MSTORE PUSH1 0x20 PUSH0 KECCAK256 SWAP1 POP SWAP2 SWAP1 POP JUMP JUMPDEST PUSH0 PUSH1 0x20 PUSH1 0x1F DUP4 ADD DIV SWAP1 POP SWAP2 SWAP1 POP JUMP JUMPDEST PUSH0 DUP3 DUP3 SHL SWAP1 POP SWAP3 SWAP2 POP POP JUMP JUMPDEST PUSH0 PUSH1 0x8 DUP4 MUL PUSH2 0x66A PUSH32 0xFFFFFFFFFFFFFFFFFFFFFFFFFFFFFFFFFFFFFFFFFFFFFFFFFFFFFFFFFFFFFFFF DUP3 PUSH2 0x62F JUMP JUMPDEST PUSH2 0x674 DUP7 DUP4 PUSH2 0x62F JUMP JUMPDEST SWAP6 POP DUP1 NOT DUP5 AND SWAP4 POP DUP1 DUP7 AND DUP5 OR SWAP3 POP POP POP SWAP4 SWAP3 POP POP POP JUMP JUMPDEST PUSH0 DUP2 SWAP1 POP SWAP2 SWAP1 POP JUMP JUMPDEST PUSH0 PUSH2 0x6AF PUSH2 0x6AA PUSH2 0x6A5 DUP5 PUSH2 0x45F JUMP JUMPDEST PUSH2 0x68C JUMP JUMPDEST PUSH2 0x45F JUMP JUMPDEST SWAP1 POP SWAP2 SWAP1 POP JUMP JUMPDEST PUSH0 DUP2 SWAP1 POP SWAP2 SWAP1 POP JUMP JUMPDEST PUSH2 0x6C8 DUP4 PUSH2 0x695 JUMP JUMPDEST PUSH2 0x6DC PUSH2 0x6D4 DUP3 PUSH2 0x6B6 JUMP JUMPDEST DUP5 DUP5 SLOAD PUSH2 0x63B JUMP JUMPDEST DUP3 SSTORE POP POP POP POP JUMP JUMPDEST PUSH0 PUSH0 SWAP1 POP SWAP1 JUMP JUMPDEST PUSH2 0x6F3 PUSH2 0x6E4 JUMP JUMPDEST PUSH2 0x6FE DUP2 DUP5 DUP5 PUSH2 0x6BF JUMP JUMPDEST POP POP POP JUMP JUMPDEST JUMPDEST DUP2 DUP2 LT ISZERO PUSH2 0x721 JUMPI PUSH2 0x716 PUSH0 DUP3 PUSH2 0x6EB JUMP JUMPDEST PUSH1 0x1 DUP2 ADD SWAP1 POP PUSH2 0x704 JUMP JUMPDEST POP POP JUMP JUMPDEST PUSH1 0x1F DUP3 GT ISZERO PUSH2 0x766 JUMPI PUSH2 0x737 DUP2 PUSH2 0x60E JUMP JUMPDEST PUSH2 0x740 DUP5 PUSH2 0x620 JUMP JUMPDEST DUP2 ADD PUSH1 0x20 DUP6 LT ISZERO PUSH2 0x74F JUMPI DUP2 SWAP1 POP JUMPDEST PUSH2 0x763 PUSH2 0x75B DUP6 PUSH2 0x620 JUMP JUMPDEST DUP4 ADD DUP3 PUSH2 0x703 JUMP JUMPDEST POP POP JUMPDEST POP POP POP JUMP JUMPDEST PUSH0 DUP3 DUP3 SHR SWAP1 POP SWAP3 SWAP2 POP POP JUMP JUMPDEST PUSH0 PUSH2 0x786 PUSH0 NOT DUP5 PUSH1 0x8 MUL PUSH2 0x76B JUMP JUMPDEST NOT DUP1 DUP4 AND SWAP2 POP POP SWAP3 SWAP2 POP POP JUMP JUMPDEST PUSH0 PUSH2 0x79E DUP4 DUP4 PUSH2 0x777 JUMP JUMPDEST SWAP2 POP DUP3 PUSH1 0x2 MUL DUP3 OR SWAP1 POP SWAP3 SWAP2 POP POP JUMP JUMPDEST PUSH2 0x7B7 DUP3 PUSH2 0x517 JUMP JUMPDEST PUSH8 0xFFFFFFFFFFFFFFFF DUP2 GT ISZERO PUSH2 0x7D0 JUMPI PUSH2 0x7CF PUSH2 0x33B JUMP JUMPDEST JUMPDEST PUSH2 0x7DA DUP3 SLOAD PUSH2 0x5DE JUMP JUMPDEST PUSH2 0x7E5 DUP3 DUP3 DUP6 PUSH2 0x725 JUMP JUMPDEST PUSH0 PUSH1 0x20 SWAP1 POP PUSH1 0x1F DUP4 GT PUSH1 0x1 DUP2 EQ PUSH2 0x816 JUMPI PUSH0 DUP5 ISZERO PUSH2 0x804 JUMPI DUP3 DUP8 ADD MLOAD SWAP1 POP JUMPDEST PUSH2 0x80E DUP6 DUP3 PUSH2 0x793 JUMP JUMPDEST DUP7 SSTORE POP PUSH2 0x875 JUMP JUMPDEST PUSH1 0x1F NOT DUP5 AND PUSH2 0x824 DUP7 PUSH2 0x60E JUMP JUMPDEST PUSH0 JUMPDEST DUP3 DUP2 LT ISZERO PUSH2 0x84B JUMPI DUP5 DUP10 ADD MLOAD DUP3 SSTORE PUSH1 0x1 DUP3 ADD SWAP2 POP PUSH1 0x20 DUP6 ADD SWAP5 POP PUSH1 0x20 DUP2 ADD SWAP1 POP PUSH2 0x826 JUMP JUMPDEST DUP7 DUP4 LT ISZERO PUSH2 0x868 JUMPI DUP5 DUP10 ADD MLOAD PUSH2 0x864 PUSH1 0x1F DUP10 AND DUP3 PUSH2 0x777 JUMP JUMPDEST DUP4 SSTORE POP JUMPDEST PUSH1 0x1 PUSH1 0x2 DUP9 MUL ADD DUP9 SSTORE POP POP POP JUMPDEST POP POP POP POP POP POP JUMP JUMPDEST PUSH32 0x4E487B7100000000000000000000000000000000000000000000000000000000 PUSH0 MSTORE PUSH1 0x32 PUSH1 0x4 MSTORE PUSH1 0x24 PUSH0 REVERT JUMPDEST PUSH0 DUP2 SWAP1 POP SWAP3 SWAP2 POP POP JUMP JUMPDEST PUSH0 PUSH2 0x8BE DUP3 PUSH2 0x517 JUMP JUMPDEST PUSH2 0x8C8 DUP2 DUP6 PUSH2 0x8AA JUMP JUMPDEST SWAP4 POP PUSH2 0x8D8 DUP2 DUP6 PUSH1 0x20 DUP7 ADD PUSH2 0x531 JUMP JUMPDEST DUP1 DUP5 ADD SWAP2 POP POP SWAP3 SWAP2 POP POP JUMP JUMPDEST PUSH32 0x2066726F6D20666C616E6B277320736D61727420636F6E747261637400000000 DUP2 MSTORE POP JUMP JUMPDEST PUSH0 PUSH2 0x915 DUP3 DUP5 PUSH2 0x8B4 JUMP JUMPDEST SWAP2 POP PUSH2 0x920 DUP3 PUSH2 0x8E4 JUMP JUMPDEST PUSH1 0x1C DUP3 ADD SWAP2 POP DUP2 SWAP1 POP SWAP3 SWAP2 POP POP JUMP INVALID LOG2 PUSH5 0x6970667358 0x22 SLT KECCAK256 PUSH13 0x47A0B6132EEEE7348495844BB0 CALLCODE 0xAB PUSH0 0xED REVERT EXTDELEGATECALL 0xA9 DUP8 EXP 0xB5 SWAP12 SSTORE STOP 0xC 0xC1 GASLIMIT PUSH12 0xD264736F6C634300081E0033 "
				},
				"gasEstimates": {
					"creation": {
						"codeDepositCost": "481000",
						"executionCost": "infinite",
						"totalCost": "infinite"
					},
					"external": {
						"sayHello(uint256)": "infinite",
						"setInfos(string,uint256)": "infinite"
					},
					"internal": {
						"addInfo(string memory)": "infinite"
					}
				},
				"methodIdentifiers": {
					"sayHello(uint256)": "42257b31",
					"setInfos(string,uint256)": "23516793"
				}
			},
			"storageLayout": {
				"storage": [
					{
						"astId": 4,
						"contract": "test/storage_arr_test.sol:storage_arr_test",
						"label": "strVar",
						"offset": 0,
						"slot": "0",
						"type": "t_string_storage"
					},
					{
						"astId": 15,
						"contract": "test/storage_arr_test.sol:storage_arr_test",
						"label": "infos",
						"offset": 0,
						"slot": "1",
						"type": "t_array(t_struct(Info)11_storage)dyn_storage"
					}
				],
				"types": {
					"t_address": {
						"encoding": "inplace",
						"label": "address",
						"numberOfBytes": "20"
					},
					"t_array(t_struct(Info)11_storage)dyn_storage": {
						"base": "t_struct(Info)11_storage",
						"encoding": "dynamic_array",
						"label": "struct storage_arr_test.Info[]",
						"numberOfBytes": "32"
					},
					"t_string_storage": {
						"encoding": "bytes",
						"label": "string",
						"numberOfBytes": "32"
					},
					"t_struct(Info)11_storage": {
						"encoding": "inplace",
						"label": "struct storage_arr_test.Info",
						"members": [
							{
								"astId": 6,
								"contract": "test/storage_arr_test.sol:storage_arr_test",
								"label": "phrase",
								"offset": 0,
								"slot": "0",
								"type": "t_string_storage"
							},
							{
								"astId": 8,
								"contract": "test/storage_arr_test.sol:storage_arr_test",
								"label": "id",
								"offset": 0,
								"slot": "1",
								"type": "t_uint256"
							},
							{
								"astId": 10,
								"contract": "test/storage_arr_test.sol:storage_arr_test",
								"label": "addr",
								"offset": 0,
								"slot": "2",
								"type": "t_address"
							}
						],
						"numberOfBytes": "96"
					},
					"t_uint256": {
						"encoding": "inplace",
						"label": "uint256",
						"numberOfBytes": "32"
					}
				}
			},
			"userdoc": {
				"kind": "user",
				"methods": {},
				"version": 1
			}
		}
	}
}