{
	"test/test.sol": {
		"HelloWorld": {
			"abi": [
				{
					"inputs": [],
					"name": "sayHello",
					"outputs": [
						{
							"internalType": "string",
							"name": "",
							"type": "string"
						}
					],
					"stateMutability": "view",
					"type": "function"
				},
				{
					"inputs": [
						{
							"internalType": "string",
							"name": "newString",
							"type": "string"
						}
					],
					"name": "setHelloWorld",
					"outputs": [],
					"stateMutability": "nonpayable",
					"type": "function"
				}
			],
			"devdoc": {
				"kind": "dev",
				"methods": {},
				"version": 1
			},
			"evm": {
				"assembly": "    /* \"test/test.sol\":110:1270  contract HelloWorld{... */\n  mstore(0x40, 0x80)\n    /* \"test/test.sol\":168:172  true */\n  0x01\n    /* \"test/test.sol\":151:172  bool boolVar_1 = true */\n  0x00\n  exp(0x0100, 0x00)\n  dup2\n  sload\n  dup2\n  0xff\n  mul\n  not\n  and\n  swap1\n  dup4\n  iszero\n  iszero\n  mul\n  or\n  swap1\n  sstore\n  pop\n    /* \"test/test.sol\":196:201  false */\n  0x00\n    /* \"test/test.sol\":179:201  bool boolVar_2 = false */\n  0x00\n  exp(0x0100, 0x01)\n  dup2\n  sload\n  dup2\n  0xff\n  mul\n  not\n  and\n  swap1\n  dup4\n  iszero\n  iszero\n  mul\n  or\n  swap1\n  sstore\n  pop\n    /* \"test/test.sol\":259:262  123 */\n  0x7b\n    /* \"test/test.sol\":241:262  uint8  unit8Var = 123 */\n  0x00\n  exp(0x0100, 0x02)\n  dup2\n  sload\n  dup2\n  0xff\n  mul\n  not\n  and\n  swap1\n  dup4\n  0xff\n  and\n  mul\n  or\n  swap1\n  sstore\n  pop\n    /* \"test/test.sol\":322:325  456 */\n  0x01c8\n    /* \"test/test.sol\":304:325  uint256 unit256 = 456 */\n  0x01\n  sstore\n    /* \"test/test.sol\":397:401  -123 */\n  0xffffffffffffffffffffffffffffffffffffffffffffffffffffffffffffff85\n    /* \"test/test.sol\":382:401  int8 int8Var = -123 */\n  0x02\n  exp(0x0100, 0x00)\n  dup2\n  sload\n  dup2\n  0xff\n  mul\n  not\n  and\n  swap1\n  dup4\n  0x00\n  signextend\n  0xff\n  and\n  mul\n  or\n  swap1\n  sstore\n  pop\n    /* \"test/test.sol\":452:456  -456 */\n  0xfffffffffffffffffffffffffffffffffffffffffffffffffffffffffffffe38\n    /* \"test/test.sol\":433:456  int256 int256Var = -456 */\n  0x03\n  sstore\n    /* \"test/test.sol\":512:537  bytes8 bytesVar = \"hello\" */\n  0x68656c6c6f000000000000000000000000000000000000000000000000000000\n  0x04\n  exp(0x0100, 0x00)\n  dup2\n  sload\n  dup2\n  0xffffffffffffffff\n  mul\n  not\n  and\n  swap1\n  dup4\n  0xc0\n  shr\n  mul\n  or\n  swap1\n  sstore\n  pop\n    /* \"test/test.sol\":544:577  bytes32 bytes32Var = \"helloWorld\" */\n  sstore(0x05, 0x68656c6c6f576f726c6400000000000000000000000000000000000000000000)\n    /* \"test/test.sol\":584:616  string stringVar = \"hello world\" */\n  mload(0x40)\n  dup1\n  0x40\n  add\n  0x40\n  mstore\n  dup1\n  0x0b\n  dup2\n  mstore\n  0x20\n  add\n  0x68656c6c6f20776f726c64000000000000000000000000000000000000000000\n  dup2\n  mstore\n  pop\n  0x06\n  swap1\n  dup2\n  tag_1\n  swap2\n  swap1\n  tag_2\n  jump\t// in\ntag_1:\n  pop\n    /* \"test/test.sol\":656:698  0x5B38Da6a701c568545dCfcB03FcB875f56beddC4 */\n  0x5b38da6a701c568545dcfcb03fcb875f56beddc4\n    /* \"test/test.sol\":638:698  address addrVar = 0x5B38Da6a701c568545dCfcB03FcB875f56beddC4 */\n  0x07\n  exp(0x0100, 0x00)\n  dup2\n  sload\n  dup2\n  0xffffffffffffffffffffffffffffffffffffffff\n  mul\n  not\n  and\n  swap1\n  dup4\n  0xffffffffffffffffffffffffffffffffffffffff\n  and\n  mul\n  or\n  swap1\n  sstore\n  pop\n    /* \"test/test.sol\":110:1270  contract HelloWorld{... */\n  callvalue\n  dup1\n  iszero\n  tag_3\n  jumpi\n  revert(0x00, 0x00)\ntag_3:\n  pop\n  jump(tag_4)\n    /* \"#utility.yul\":7:106   */\ntag_5:\n    /* \"#utility.yul\":59:65   */\n  0x00\n    /* \"#utility.yul\":93:98   */\n  dup2\n    /* \"#utility.yul\":87:99   */\n  mload\n    /* \"#utility.yul\":77:99   */\n  swap1\n  pop\n    /* \"#utility.yul\":7:106   */\n  swap2\n  swap1\n  pop\n  jump\t// out\n    /* \"#utility.yul\":112:292   */\ntag_6:\n    /* \"#utility.yul\":160:237   */\n  0x4e487b7100000000000000000000000000000000000000000000000000000000\n    /* \"#utility.yul\":157:158   */\n  0x00\n    /* \"#utility.yul\":150:238   */\n  mstore\n    /* \"#utility.yul\":257:261   */\n  0x41\n    /* \"#utility.yul\":254:255   */\n  0x04\n    /* \"#utility.yul\":247:262   */\n  mstore\n    /* \"#utility.yul\":281:285   */\n  0x24\n    /* \"#utility.yul\":278:279   */\n  0x00\n    /* \"#utility.yul\":271:286   */\n  revert\n    /* \"#utility.yul\":298:478   */\ntag_7:\n    /* \"#utility.yul\":346:423   */\n  0x4e487b7100000000000000000000000000000000000000000000000000000000\n    /* \"#utility.yul\":343:344   */\n  0x00\n    /* \"#utility.yul\":336:424   */\n  mstore\n    /* \"#utility.yul\":443:447   */\n  0x22\n    /* \"#utility.yul\":440:441   */\n  0x04\n    /* \"#utility.yul\":433:448   */\n  mstore\n    /* \"#utility.yul\":467:471   */\n  0x24\n    /* \"#utility.yul\":464:465   */\n  0x00\n    /* \"#utility.yul\":457:472   */\n  revert\n    /* \"#utility.yul\":484:804   */\ntag_8:\n    /* \"#utility.yul\":528:534   */\n  0x00\n    /* \"#utility.yul\":565:566   */\n  0x02\n    /* \"#utility.yul\":559:563   */\n  dup3\n    /* \"#utility.yul\":555:567   */\n  div\n    /* \"#utility.yul\":545:567   */\n  swap1\n  pop\n    /* \"#utility.yul\":612:613   */\n  0x01\n    /* \"#utility.yul\":606:610   */\n  dup3\n    /* \"#utility.yul\":602:614   */\n  and\n    /* \"#utility.yul\":633:651   */\n  dup1\n    /* \"#utility.yul\":623:704   */\n  tag_30\n  jumpi\n    /* \"#utility.yul\":689:693   */\n  0x7f\n    /* \"#utility.yul\":681:687   */\n  dup3\n    /* \"#utility.yul\":677:694   */\n  and\n    /* \"#utility.yul\":667:694   */\n  swap2\n  pop\n    /* \"#utility.yul\":623:704   */\ntag_30:\n    /* \"#utility.yul\":751:753   */\n  0x20\n    /* \"#utility.yul\":743:749   */\n  dup3\n    /* \"#utility.yul\":740:754   */\n  lt\n    /* \"#utility.yul\":720:738   */\n  dup2\n    /* \"#utility.yul\":717:755   */\n  sub\n    /* \"#utility.yul\":714:798   */\n  tag_31\n  jumpi\n    /* \"#utility.yul\":770:788   */\n  tag_32\n  tag_7\n  jump\t// in\ntag_32:\n    /* \"#utility.yul\":714:798   */\ntag_31:\n    /* \"#utility.yul\":535:804   */\n  pop\n    /* \"#utility.yul\":484:804   */\n  swap2\n  swap1\n  pop\n  jump\t// out\n    /* \"#utility.yul\":810:951   */\ntag_9:\n    /* \"#utility.yul\":859:863   */\n  0x00\n    /* \"#utility.yul\":882:885   */\n  dup2\n    /* \"#utility.yul\":874:885   */\n  swap1\n  pop\n    /* \"#utility.yul\":905:908   */\n  dup2\n    /* \"#utility.yul\":902:903   */\n  0x00\n    /* \"#utility.yul\":895:909   */\n  mstore\n    /* \"#utility.yul\":939:943   */\n  0x20\n    /* \"#utility.yul\":936:937   */\n  0x00\n    /* \"#utility.yul\":926:944   */\n  keccak256\n    /* \"#utility.yul\":918:944   */\n  swap1\n  pop\n    /* \"#utility.yul\":810:951   */\n  swap2\n  swap1\n  pop\n  jump\t// out\n    /* \"#utility.yul\":957:1050   */\ntag_10:\n    /* \"#utility.yul\":994:1000   */\n  0x00\n    /* \"#utility.yul\":1041:1043   */\n  0x20\n    /* \"#utility.yul\":1036:1038   */\n  0x1f\n    /* \"#utility.yul\":1029:1034   */\n  dup4\n    /* \"#utility.yul\":1025:1039   */\n  add\n    /* \"#utility.yul\":1021:1044   */\n  div\n    /* \"#utility.yul\":1011:1044   */\n  swap1\n  pop\n    /* \"#utility.yul\":957:1050   */\n  swap2\n  swap1\n  pop\n  jump\t// out\n    /* \"#utility.yul\":1056:1163   */\ntag_11:\n    /* \"#utility.yul\":1100:1108   */\n  0x00\n    /* \"#utility.yul\":1150:1155   */\n  dup3\n    /* \"#utility.yul\":1144:1148   */\n  dup3\n    /* \"#utility.yul\":1140:1156   */\n  shl\n    /* \"#utility.yul\":1119:1156   */\n  swap1\n  pop\n    /* \"#utility.yul\":1056:1163   */\n  swap3\n  swap2\n  pop\n  pop\n  jump\t// out\n    /* \"#utility.yul\":1169:1562   */\ntag_12:\n    /* \"#utility.yul\":1238:1244   */\n  0x00\n    /* \"#utility.yul\":1288:1289   */\n  0x08\n    /* \"#utility.yul\":1276:1286   */\n  dup4\n    /* \"#utility.yul\":1272:1290   */\n  mul\n    /* \"#utility.yul\":1311:1408   */\n  tag_37\n    /* \"#utility.yul\":1341:1407   */\n  0xffffffffffffffffffffffffffffffffffffffffffffffffffffffffffffffff\n    /* \"#utility.yul\":1330:1339   */\n  dup3\n    /* \"#utility.yul\":1311:1408   */\n  tag_11\n  jump\t// in\ntag_37:\n    /* \"#utility.yul\":1429:1468   */\n  tag_38\n    /* \"#utility.yul\":1459:1467   */\n  dup7\n    /* \"#utility.yul\":1448:1457   */\n  dup4\n    /* \"#utility.yul\":1429:1468   */\n  tag_11\n  jump\t// in\ntag_38:\n    /* \"#utility.yul\":1417:1468   */\n  swap6\n  pop\n    /* \"#utility.yul\":1501:1505   */\n  dup1\n    /* \"#utility.yul\":1497:1506   */\n  not\n    /* \"#utility.yul\":1490:1495   */\n  dup5\n    /* \"#utility.yul\":1486:1507   */\n  and\n    /* \"#utility.yul\":1477:1507   */\n  swap4\n  pop\n    /* \"#utility.yul\":1550:1554   */\n  dup1\n    /* \"#utility.yul\":1540:1548   */\n  dup7\n    /* \"#utility.yul\":1536:1555   */\n  and\n    /* \"#utility.yul\":1529:1534   */\n  dup5\n    /* \"#utility.yul\":1526:1556   */\n  or\n    /* \"#utility.yul\":1516:1556   */\n  swap3\n  pop\n    /* \"#utility.yul\":1245:1562   */\n  pop\n  pop\n    /* \"#utility.yul\":1169:1562   */\n  swap4\n  swap3\n  pop\n  pop\n  pop\n  jump\t// out\n    /* \"#utility.yul\":1568:1645   */\ntag_13:\n    /* \"#utility.yul\":1605:1612   */\n  0x00\n    /* \"#utility.yul\":1634:1639   */\n  dup2\n    /* \"#utility.yul\":1623:1639   */\n  swap1\n  pop\n    /* \"#utility.yul\":1568:1645   */\n  swap2\n  swap1\n  pop\n  jump\t// out\n    /* \"#utility.yul\":1651:1711   */\ntag_14:\n    /* \"#utility.yul\":1679:1682   */\n  0x00\n    /* \"#utility.yul\":1700:1705   */\n  dup2\n    /* \"#utility.yul\":1693:1705   */\n  swap1\n  pop\n    /* \"#utility.yul\":1651:1711   */\n  swap2\n  swap1\n  pop\n  jump\t// out\n    /* \"#utility.yul\":1717:1859   */\ntag_15:\n    /* \"#utility.yul\":1767:1776   */\n  0x00\n    /* \"#utility.yul\":1800:1853   */\n  tag_42\n    /* \"#utility.yul\":1818:1852   */\n  tag_43\n    /* \"#utility.yul\":1827:1851   */\n  tag_44\n    /* \"#utility.yul\":1845:1850   */\n  dup5\n    /* \"#utility.yul\":1827:1851   */\n  tag_13\n  jump\t// in\ntag_44:\n    /* \"#utility.yul\":1818:1852   */\n  tag_14\n  jump\t// in\ntag_43:\n    /* \"#utility.yul\":1800:1853   */\n  tag_13\n  jump\t// in\ntag_42:\n    /* \"#utility.yul\":1787:1853   */\n  swap1\n  pop\n    /* \"#utility.yul\":1717:1859   */\n  swap2\n  swap1\n  pop\n  jump\t// out\n    /* \"#utility.yul\":1865:1940   */\ntag_16:\n    /* \"#utility.yul\":1908:1911   */\n  0x00\n    /* \"#utility.yul\":1929:1934   */\n  dup2\n    /* \"#utility.yul\":1922:1934   */\n  swap1\n  pop\n    /* \"#utility.yul\":1865:1940   */\n  swap2\n  swap1\n  pop\n  jump\t// out\n    /* \"#utility.yul\":1946:2215   */\ntag_17:\n    /* \"#utility.yul\":2056:2095   */\n  tag_47\n    /* \"#utility.yul\":2087:2094   */\n  dup4\n    /* \"#utility.yul\":2056:2095   */\n  tag_15\n  jump\t// in\ntag_47:\n    /* \"#utility.yul\":2117:2208   */\n  tag_48\n    /* \"#utility.yul\":2166:2207   */\n  tag_49\n    /* \"#utility.yul\":2190:2206   */\n  dup3\n    /* \"#utility.yul\":2166:2207   */\n  tag_16\n  jump\t// in\ntag_49:\n    /* \"#utility.yul\":2158:2164   */\n  dup5\n    /* \"#utility.yul\":2151:2155   */\n  dup5\n    /* \"#utility.yul\":2145:2156   */\n  sload\n    /* \"#utility.yul\":2117:2208   */\n  tag_12\n  jump\t// in\ntag_48:\n    /* \"#utility.yul\":2111:2115   */\n  dup3\n    /* \"#utility.yul\":2104:2209   */\n  sstore\n    /* \"#utility.yul\":2022:2215   */\n  pop\n    /* \"#utility.yul\":1946:2215   */\n  pop\n  pop\n  pop\n  jump\t// out\n    /* \"#utility.yul\":2221:2294   */\ntag_18:\n    /* \"#utility.yul\":2266:2269   */\n  0x00\n    /* \"#utility.yul\":2287:2288   */\n  0x00\n    /* \"#utility.yul\":2280:2288   */\n  swap1\n  pop\n    /* \"#utility.yul\":2221:2294   */\n  swap1\n  jump\t// out\n    /* \"#utility.yul\":2300:2489   */\ntag_19:\n    /* \"#utility.yul\":2377:2409   */\n  tag_52\n  tag_18\n  jump\t// in\ntag_52:\n    /* \"#utility.yul\":2418:2483   */\n  tag_53\n    /* \"#utility.yul\":2476:2482   */\n  dup2\n    /* \"#utility.yul\":2468:2474   */\n  dup5\n    /* \"#utility.yul\":2462:2466   */\n  dup5\n    /* \"#utility.yul\":2418:2483   */\n  tag_17\n  jump\t// in\ntag_53:\n    /* \"#utility.yul\":2353:2489   */\n  pop\n    /* \"#utility.yul\":2300:2489   */\n  pop\n  pop\n  jump\t// out\n    /* \"#utility.yul\":2495:2681   */\ntag_20:\n    /* \"#utility.yul\":2555:2675   */\ntag_55:\n    /* \"#utility.yul\":2572:2575   */\n  dup2\n    /* \"#utility.yul\":2565:2570   */\n  dup2\n    /* \"#utility.yul\":2562:2576   */\n  lt\n    /* \"#utility.yul\":2555:2675   */\n  iszero\n  tag_57\n  jumpi\n    /* \"#utility.yul\":2626:2665   */\n  tag_58\n    /* \"#utility.yul\":2663:2664   */\n  0x00\n    /* \"#utility.yul\":2656:2661   */\n  dup3\n    /* \"#utility.yul\":2626:2665   */\n  tag_19\n  jump\t// in\ntag_58:\n    /* \"#utility.yul\":2599:2600   */\n  0x01\n    /* \"#utility.yul\":2592:2597   */\n  dup2\n    /* \"#utility.yul\":2588:2601   */\n  add\n    /* \"#utility.yul\":2579:2601   */\n  swap1\n  pop\n    /* \"#utility.yul\":2555:2675   */\n  jump(tag_55)\ntag_57:\n    /* \"#utility.yul\":2495:2681   */\n  pop\n  pop\n  jump\t// out\n    /* \"#utility.yul\":2687:3230   */\ntag_21:\n    /* \"#utility.yul\":2788:2790   */\n  0x1f\n    /* \"#utility.yul\":2783:2786   */\n  dup3\n    /* \"#utility.yul\":2780:2791   */\n  gt\n    /* \"#utility.yul\":2777:3223   */\n  iszero\n  tag_60\n  jumpi\n    /* \"#utility.yul\":2822:2860   */\n  tag_61\n    /* \"#utility.yul\":2854:2859   */\n  dup2\n    /* \"#utility.yul\":2822:2860   */\n  tag_9\n  jump\t// in\ntag_61:\n    /* \"#utility.yul\":2906:2935   */\n  tag_62\n    /* \"#utility.yul\":2924:2934   */\n  dup5\n    /* \"#utility.yul\":2906:2935   */\n  tag_10\n  jump\t// in\ntag_62:\n    /* \"#utility.yul\":2896:2904   */\n  dup2\n    /* \"#utility.yul\":2892:2936   */\n  add\n    /* \"#utility.yul\":3089:3091   */\n  0x20\n    /* \"#utility.yul\":3077:3087   */\n  dup6\n    /* \"#utility.yul\":3074:3092   */\n  lt\n    /* \"#utility.yul\":3071:3120   */\n  iszero\n  tag_63\n  jumpi\n    /* \"#utility.yul\":3110:3118   */\n  dup2\n    /* \"#utility.yul\":3095:3118   */\n  swap1\n  pop\n    /* \"#utility.yul\":3071:3120   */\ntag_63:\n    /* \"#utility.yul\":3133:3213   */\n  tag_64\n    /* \"#utility.yul\":3189:3211   */\n  tag_65\n    /* \"#utility.yul\":3207:3210   */\n  dup6\n    /* \"#utility.yul\":3189:3211   */\n  tag_10\n  jump\t// in\ntag_65:\n    /* \"#utility.yul\":3179:3187   */\n  dup4\n    /* \"#utility.yul\":3175:3212   */\n  add\n    /* \"#utility.yul\":3162:3173   */\n  dup3\n    /* \"#utility.yul\":3133:3213   */\n  tag_20\n  jump\t// in\ntag_64:\n    /* \"#utility.yul\":2792:3223   */\n  pop\n  pop\n    /* \"#utility.yul\":2777:3223   */\ntag_60:\n    /* \"#utility.yul\":2687:3230   */\n  pop\n  pop\n  pop\n  jump\t// out\n    /* \"#utility.yul\":3236:3353   */\ntag_22:\n    /* \"#utility.yul\":3290:3298   */\n  0x00\n    /* \"#utility.yul\":3340:3345   */\n  dup3\n    /* \"#utility.yul\":3334:3338   */\n  dup3\n    /* \"#utility.yul\":3330:3346   */\n  shr\n    /* \"#utility.yul\":3309:3346   */\n  swap1\n  pop\n    /* \"#utility.yul\":3236:3353   */\n  swap3\n  swap2\n  pop\n  pop\n  jump\t// out\n    /* \"#utility.yul\":3359:3528   */\ntag_23:\n    /* \"#utility.yul\":3403:3409   */\n  0x00\n    /* \"#utility.yul\":3436:3487   */\n  tag_68\n    /* \"#utility.yul\":3484:3485   */\n  0x00\n    /* \"#utility.yul\":3480:3486   */\n  not\n    /* \"#utility.yul\":3472:3477   */\n  dup5\n    /* \"#utility.yul\":3469:3470   */\n  0x08\n    /* \"#utility.yul\":3465:3478   */\n  mul\n    /* \"#utility.yul\":3436:3487   */\n  tag_22\n  jump\t// in\ntag_68:\n    /* \"#utility.yul\":3432:3488   */\n  not\n    /* \"#utility.yul\":3517:3521   */\n  dup1\n    /* \"#utility.yul\":3511:3515   */\n  dup4\n    /* \"#utility.yul\":3507:3522   */\n  and\n    /* \"#utility.yul\":3497:3522   */\n  swap2\n  pop\n    /* \"#utility.yul\":3410:3528   */\n  pop\n    /* \"#utility.yul\":3359:3528   */\n  swap3\n  swap2\n  pop\n  pop\n  jump\t// out\n    /* \"#utility.yul\":3533:3828   */\ntag_24:\n    /* \"#utility.yul\":3609:3613   */\n  0x00\n    /* \"#utility.yul\":3755:3784   */\n  tag_70\n    /* \"#utility.yul\":3780:3783   */\n  dup4\n    /* \"#utility.yul\":3774:3778   */\n  dup4\n    /* \"#utility.yul\":3755:3784   */\n  tag_23\n  jump\t// in\ntag_70:\n    /* \"#utility.yul\":3747:3784   */\n  swap2\n  pop\n    /* \"#utility.yul\":3817:3820   */\n  dup3\n    /* \"#utility.yul\":3814:3815   */\n  0x02\n    /* \"#utility.yul\":3810:3821   */\n  mul\n    /* \"#utility.yul\":3804:3808   */\n  dup3\n    /* \"#utility.yul\":3801:3822   */\n  or\n    /* \"#utility.yul\":3793:3822   */\n  swap1\n  pop\n    /* \"#utility.yul\":3533:3828   */\n  swap3\n  swap2\n  pop\n  pop\n  jump\t// out\n    /* \"#utility.yul\":3833:5228   */\ntag_2:\n    /* \"#utility.yul\":3950:3987   */\n  tag_72\n    /* \"#utility.yul\":3983:3986   */\n  dup3\n    /* \"#utility.yul\":3950:3987   */\n  tag_5\n  jump\t// in\ntag_72:\n    /* \"#utility.yul\":4052:4070   */\n  0xffffffffffffffff\n    /* \"#utility.yul\":4044:4050   */\n  dup2\n    /* \"#utility.yul\":4041:4071   */\n  gt\n    /* \"#utility.yul\":4038:4094   */\n  iszero\n  tag_73\n  jumpi\n    /* \"#utility.yul\":4074:4092   */\n  tag_74\n  tag_6\n  jump\t// in\ntag_74:\n    /* \"#utility.yul\":4038:4094   */\ntag_73:\n    /* \"#utility.yul\":4118:4156   */\n  tag_75\n    /* \"#utility.yul\":4150:4154   */\n  dup3\n    /* \"#utility.yul\":4144:4155   */\n  sload\n    /* \"#utility.yul\":4118:4156   */\n  tag_8\n  jump\t// in\ntag_75:\n    /* \"#utility.yul\":4203:4270   */\n  tag_76\n    /* \"#utility.yul\":4263:4269   */\n  dup3\n    /* \"#utility.yul\":4255:4261   */\n  dup3\n    /* \"#utility.yul\":4249:4253   */\n  dup6\n    /* \"#utility.yul\":4203:4270   */\n  tag_21\n  jump\t// in\ntag_76:\n    /* \"#utility.yul\":4297:4298   */\n  0x00\n    /* \"#utility.yul\":4321:4325   */\n  0x20\n    /* \"#utility.yul\":4308:4325   */\n  swap1\n  pop\n    /* \"#utility.yul\":4353:4355   */\n  0x1f\n    /* \"#utility.yul\":4345:4351   */\n  dup4\n    /* \"#utility.yul\":4342:4356   */\n  gt\n    /* \"#utility.yul\":4370:4371   */\n  0x01\n    /* \"#utility.yul\":4365:4983   */\n  dup2\n  eq\n  tag_78\n  jumpi\n    /* \"#utility.yul\":5027:5028   */\n  0x00\n    /* \"#utility.yul\":5044:5050   */\n  dup5\n    /* \"#utility.yul\":5041:5118   */\n  iszero\n  tag_79\n  jumpi\n    /* \"#utility.yul\":5093:5102   */\n  dup3\n    /* \"#utility.yul\":5088:5091   */\n  dup8\n    /* \"#utility.yul\":5084:5103   */\n  add\n    /* \"#utility.yul\":5078:5104   */\n  mload\n    /* \"#utility.yul\":5069:5104   */\n  swap1\n  pop\n    /* \"#utility.yul\":5041:5118   */\ntag_79:\n    /* \"#utility.yul\":5144:5211   */\n  tag_80\n    /* \"#utility.yul\":5204:5210   */\n  dup6\n    /* \"#utility.yul\":5197:5202   */\n  dup3\n    /* \"#utility.yul\":5144:5211   */\n  tag_24\n  jump\t// in\ntag_80:\n    /* \"#utility.yul\":5138:5142   */\n  dup7\n    /* \"#utility.yul\":5131:5212   */\n  sstore\n    /* \"#utility.yul\":5000:5222   */\n  pop\n    /* \"#utility.yul\":4335:5222   */\n  jump(tag_77)\n    /* \"#utility.yul\":4365:4983   */\ntag_78:\n    /* \"#utility.yul\":4417:4421   */\n  0x1f\n    /* \"#utility.yul\":4413:4422   */\n  not\n    /* \"#utility.yul\":4405:4411   */\n  dup5\n    /* \"#utility.yul\":4401:4423   */\n  and\n    /* \"#utility.yul\":4451:4488   */\n  tag_81\n    /* \"#utility.yul\":4483:4487   */\n  dup7\n    /* \"#utility.yul\":4451:4488   */\n  tag_9\n  jump\t// in\ntag_81:\n    /* \"#utility.yul\":4510:4511   */\n  0x00\n    /* \"#utility.yul\":4524:4732   */\ntag_82:\n    /* \"#utility.yul\":4538:4545   */\n  dup3\n    /* \"#utility.yul\":4535:4536   */\n  dup2\n    /* \"#utility.yul\":4532:4546   */\n  lt\n    /* \"#utility.yul\":4524:4732   */\n  iszero\n  tag_84\n  jumpi\n    /* \"#utility.yul\":4617:4626   */\n  dup5\n    /* \"#utility.yul\":4612:4615   */\n  dup10\n    /* \"#utility.yul\":4608:4627   */\n  add\n    /* \"#utility.yul\":4602:4628   */\n  mload\n    /* \"#utility.yul\":4594:4600   */\n  dup3\n    /* \"#utility.yul\":4587:4629   */\n  sstore\n    /* \"#utility.yul\":4668:4669   */\n  0x01\n    /* \"#utility.yul\":4660:4666   */\n  dup3\n    /* \"#utility.yul\":4656:4670   */\n  add\n    /* \"#utility.yul\":4646:4670   */\n  swap2\n  pop\n    /* \"#utility.yul\":4715:4717   */\n  0x20\n    /* \"#utility.yul\":4704:4713   */\n  dup6\n    /* \"#utility.yul\":4700:4718   */\n  add\n    /* \"#utility.yul\":4687:4718   */\n  swap5\n  pop\n    /* \"#utility.yul\":4561:4565   */\n  0x20\n    /* \"#utility.yul\":4558:4559   */\n  dup2\n    /* \"#utility.yul\":4554:4566   */\n  add\n    /* \"#utility.yul\":4549:4566   */\n  swap1\n  pop\n    /* \"#utility.yul\":4524:4732   */\n  jump(tag_82)\ntag_84:\n    /* \"#utility.yul\":4760:4766   */\n  dup7\n    /* \"#utility.yul\":4751:4758   */\n  dup4\n    /* \"#utility.yul\":4748:4767   */\n  lt\n    /* \"#utility.yul\":4745:4924   */\n  iszero\n  tag_85\n  jumpi\n    /* \"#utility.yul\":4818:4827   */\n  dup5\n    /* \"#utility.yul\":4813:4816   */\n  dup10\n    /* \"#utility.yul\":4809:4828   */\n  add\n    /* \"#utility.yul\":4803:4829   */\n  mload\n    /* \"#utility.yul\":4861:4909   */\n  tag_86\n    /* \"#utility.yul\":4903:4907   */\n  0x1f\n    /* \"#utility.yul\":4895:4901   */\n  dup10\n    /* \"#utility.yul\":4891:4908   */\n  and\n    /* \"#utility.yul\":4880:4889   */\n  dup3\n    /* \"#utility.yul\":4861:4909   */\n  tag_23\n  jump\t// in\ntag_86:\n    /* \"#utility.yul\":4853:4859   */\n  dup4\n    /* \"#utility.yul\":4846:4910   */\n  sstore\n    /* \"#utility.yul\":4768:4924   */\n  pop\n    /* \"#utility.yul\":4745:4924   */\ntag_85:\n    /* \"#utility.yul\":4970:4971   */\n  0x01\n    /* \"#utility.yul\":4966:4967   */\n  0x02\n    /* \"#utility.yul\":4958:4964   */\n  dup9\n    /* \"#utility.yul\":4954:4968   */\n  mul\n    /* \"#utility.yul\":4950:4972   */\n  add\n    /* \"#utility.yul\":4944:4948   */\n  dup9\n    /* \"#utility.yul\":4937:4973   */\n  sstore\n    /* \"#utility.yul\":4372:4983   */\n  pop\n  pop\n  pop\n    /* \"#utility.yul\":4335:5222   */\ntag_77:\n  pop\n    /* \"#utility.yul\":3925:5228   */\n  pop\n  pop\n  pop\n    /* \"#utility.yul\":3833:5228   */\n  pop\n  pop\n  jump\t// out\n    /* \"test/test.sol\":110:1270  contract HelloWorld{... */\ntag_4:\n  dataSize(sub_0)\n  dup1\n  dataOffset(sub_0)\n  0x00\n  codecopy\n  0x00\n  return\nstop\n\nsub_0: assembly {\n        /* \"test/test.sol\":110:1270  contract HelloWorld{... */\n      mstore(0x40, 0x80)\n      callvalue\n      dup1\n      iszero\n      tag_1\n      jumpi\n      revert(0x00, 0x00)\n    tag_1:\n      pop\n      jumpi(tag_2, lt(calldatasize, 0x04))\n      shr(0xe0, calldataload(0x00))\n      dup1\n      0x90ffded8\n      eq\n      tag_3\n      jumpi\n      dup1\n      0xef5fb05b\n      eq\n      tag_4\n      jumpi\n    tag_2:\n      revert(0x00, 0x00)\n        /* \"test/test.sol\":999:1094  function setHelloWorld (string memory newString) public{... */\n    tag_3:\n      tag_5\n      0x04\n      dup1\n      calldatasize\n      sub\n      dup2\n      add\n      swap1\n      tag_6\n      swap2\n      swap1\n      tag_7\n      jump\t// in\n    tag_6:\n      tag_8\n      jump\t// in\n    tag_5:\n      stop\n        /* \"test/test.sol\":882:981  function sayHello() public view returns(string memory) {... */\n    tag_4:\n      tag_9\n      tag_10\n      jump\t// in\n    tag_9:\n      mload(0x40)\n      tag_11\n      swap2\n      swap1\n      tag_12\n      jump\t// in\n    tag_11:\n      mload(0x40)\n      dup1\n      swap2\n      sub\n      swap1\n      return\n        /* \"test/test.sol\":999:1094  function setHelloWorld (string memory newString) public{... */\n    tag_8:\n        /* \"test/test.sol\":1077:1086  newString */\n      dup1\n        /* \"test/test.sol\":1065:1074  stringVar */\n      0x06\n        /* \"test/test.sol\":1065:1086  stringVar = newString */\n      swap1\n      dup2\n      tag_14\n      swap2\n      swap1\n      tag_15\n      jump\t// in\n    tag_14:\n      pop\n        /* \"test/test.sol\":999:1094  function setHelloWorld (string memory newString) public{... */\n      pop\n      jump\t// out\n        /* \"test/test.sol\":882:981  function sayHello() public view returns(string memory) {... */\n    tag_10:\n        /* \"test/test.sol\":922:935  string memory */\n      0x60\n        /* \"test/test.sol\":955:973  addInfo(stringVar) */\n      tag_17\n        /* \"test/test.sol\":963:972  stringVar */\n      0x06\n        /* \"test/test.sol\":955:973  addInfo(stringVar) */\n      dup1\n      sload\n      tag_18\n      swap1\n      tag_19\n      jump\t// in\n    tag_18:\n      dup1\n      0x1f\n      add\n      0x20\n      dup1\n      swap2\n      div\n      mul\n      0x20\n      add\n      mload(0x40)\n      swap1\n      dup2\n      add\n      0x40\n      mstore\n      dup1\n      swap3\n      swap2\n      swap1\n      dup2\n      dup2\n      mstore\n      0x20\n      add\n      dup3\n      dup1\n      sload\n      tag_20\n      swap1\n      tag_19\n      jump\t// in\n    tag_20:\n      dup1\n      iszero\n      tag_21\n      jumpi\n      dup1\n      0x1f\n      lt\n      tag_22\n      jumpi\n      0x0100\n      dup1\n      dup4\n      sload\n      div\n      mul\n      dup4\n      mstore\n      swap2\n      0x20\n      add\n      swap2\n      jump(tag_21)\n    tag_22:\n      dup3\n      add\n      swap2\n      swap1\n      0x00\n      mstore\n      keccak256(0x00, 0x20)\n      swap1\n    tag_23:\n      dup2\n      sload\n      dup2\n      mstore\n      swap1\n      0x01\n      add\n      swap1\n      0x20\n      add\n      dup1\n      dup4\n      gt\n      tag_23\n      jumpi\n      dup3\n      swap1\n      sub\n      0x1f\n      and\n      dup3\n      add\n      swap2\n    tag_21:\n      pop\n      pop\n      pop\n      pop\n      pop\n        /* \"test/test.sol\":955:962  addInfo */\n      tag_24\n        /* \"test/test.sol\":955:973  addInfo(stringVar) */\n      jump\t// in\n    tag_17:\n        /* \"test/test.sol\":948:973  return addInfo(stringVar) */\n      swap1\n      pop\n        /* \"test/test.sol\":882:981  function sayHello() public view returns(string memory) {... */\n      swap1\n      jump\t// out\n        /* \"test/test.sol\":1106:1267  function addInfo(string memory helloWorldStr) internal pure returns (string memory){... */\n    tag_24:\n        /* \"test/test.sol\":1175:1188  string memory */\n      0x60\n        /* \"test/test.sol\":1221:1234  helloWorldStr */\n      dup2\n        /* \"test/test.sol\":1207:1259  string.concat(helloWorldStr,\"from frank's contract\") */\n      add(0x20, mload(0x40))\n      tag_26\n      swap2\n      swap1\n      tag_27\n      jump\t// in\n    tag_26:\n      mload(0x40)\n      0x20\n      dup2\n      dup4\n      sub\n      sub\n      dup2\n      mstore\n      swap1\n      0x40\n      mstore\n        /* \"test/test.sol\":1200:1259  return string.concat(helloWorldStr,\"from frank's contract\") */\n      swap1\n      pop\n        /* \"test/test.sol\":1106:1267  function addInfo(string memory helloWorldStr) internal pure returns (string memory){... */\n      swap2\n      swap1\n      pop\n      jump\t// out\n        /* \"#utility.yul\":7:82   */\n    tag_28:\n        /* \"#utility.yul\":40:46   */\n      0x00\n        /* \"#utility.yul\":73:75   */\n      0x40\n        /* \"#utility.yul\":67:76   */\n      mload\n        /* \"#utility.yul\":57:76   */\n      swap1\n      pop\n        /* \"#utility.yul\":7:82   */\n      swap1\n      jump\t// out\n        /* \"#utility.yul\":88:205   */\n    tag_29:\n        /* \"#utility.yul\":197:198   */\n      0x00\n        /* \"#utility.yul\":194:195   */\n      0x00\n        /* \"#utility.yul\":187:199   */\n      revert\n        /* \"#utility.yul\":211:328   */\n    tag_30:\n        /* \"#utility.yul\":320:321   */\n      0x00\n        /* \"#utility.yul\":317:318   */\n      0x00\n        /* \"#utility.yul\":310:322   */\n      revert\n        /* \"#utility.yul\":334:451   */\n    tag_31:\n        /* \"#utility.yul\":443:444   */\n      0x00\n        /* \"#utility.yul\":440:441   */\n      0x00\n        /* \"#utility.yul\":433:445   */\n      revert\n        /* \"#utility.yul\":457:574   */\n    tag_32:\n        /* \"#utility.yul\":566:567   */\n      0x00\n        /* \"#utility.yul\":563:564   */\n      0x00\n        /* \"#utility.yul\":556:568   */\n      revert\n        /* \"#utility.yul\":580:682   */\n    tag_33:\n        /* \"#utility.yul\":621:627   */\n      0x00\n        /* \"#utility.yul\":672:674   */\n      0x1f\n        /* \"#utility.yul\":668:675   */\n      not\n        /* \"#utility.yul\":663:665   */\n      0x1f\n        /* \"#utility.yul\":656:661   */\n      dup4\n        /* \"#utility.yul\":652:666   */\n      add\n        /* \"#utility.yul\":648:676   */\n      and\n        /* \"#utility.yul\":638:676   */\n      swap1\n      pop\n        /* \"#utility.yul\":580:682   */\n      swap2\n      swap1\n      pop\n      jump\t// out\n        /* \"#utility.yul\":688:868   */\n    tag_34:\n        /* \"#utility.yul\":736:813   */\n      0x4e487b7100000000000000000000000000000000000000000000000000000000\n        /* \"#utility.yul\":733:734   */\n      0x00\n        /* \"#utility.yul\":726:814   */\n      mstore\n        /* \"#utility.yul\":833:837   */\n      0x41\n        /* \"#utility.yul\":830:831   */\n      0x04\n        /* \"#utility.yul\":823:838   */\n      mstore\n        /* \"#utility.yul\":857:861   */\n      0x24\n        /* \"#utility.yul\":854:855   */\n      0x00\n        /* \"#utility.yul\":847:862   */\n      revert\n        /* \"#utility.yul\":874:1155   */\n    tag_35:\n        /* \"#utility.yul\":957:984   */\n      tag_74\n        /* \"#utility.yul\":979:983   */\n      dup3\n        /* \"#utility.yul\":957:984   */\n      tag_33\n      jump\t// in\n    tag_74:\n        /* \"#utility.yul\":949:955   */\n      dup2\n        /* \"#utility.yul\":945:985   */\n      add\n        /* \"#utility.yul\":1087:1093   */\n      dup2\n        /* \"#utility.yul\":1075:1085   */\n      dup2\n        /* \"#utility.yul\":1072:1094   */\n      lt\n        /* \"#utility.yul\":1051:1069   */\n      0xffffffffffffffff\n        /* \"#utility.yul\":1039:1049   */\n      dup3\n        /* \"#utility.yul\":1036:1070   */\n      gt\n        /* \"#utility.yul\":1033:1095   */\n      or\n        /* \"#utility.yul\":1030:1118   */\n      iszero\n      tag_75\n      jumpi\n        /* \"#utility.yul\":1098:1116   */\n      tag_76\n      tag_34\n      jump\t// in\n    tag_76:\n        /* \"#utility.yul\":1030:1118   */\n    tag_75:\n        /* \"#utility.yul\":1138:1148   */\n      dup1\n        /* \"#utility.yul\":1134:1136   */\n      0x40\n        /* \"#utility.yul\":1127:1149   */\n      mstore\n        /* \"#utility.yul\":917:1155   */\n      pop\n        /* \"#utility.yul\":874:1155   */\n      pop\n      pop\n      jump\t// out\n        /* \"#utility.yul\":1161:1290   */\n    tag_36:\n        /* \"#utility.yul\":1195:1201   */\n      0x00\n        /* \"#utility.yul\":1222:1242   */\n      tag_78\n      tag_28\n      jump\t// in\n    tag_78:\n        /* \"#utility.yul\":1212:1242   */\n      swap1\n      pop\n        /* \"#utility.yul\":1251:1284   */\n      tag_79\n        /* \"#utility.yul\":1279:1283   */\n      dup3\n        /* \"#utility.yul\":1271:1277   */\n      dup3\n        /* \"#utility.yul\":1251:1284   */\n      tag_35\n      jump\t// in\n    tag_79:\n        /* \"#utility.yul\":1161:1290   */\n      swap2\n      swap1\n      pop\n      jump\t// out\n        /* \"#utility.yul\":1296:1604   */\n    tag_37:\n        /* \"#utility.yul\":1358:1362   */\n      0x00\n        /* \"#utility.yul\":1448:1466   */\n      0xffffffffffffffff\n        /* \"#utility.yul\":1440:1446   */\n      dup3\n        /* \"#utility.yul\":1437:1467   */\n      gt\n        /* \"#utility.yul\":1434:1490   */\n      iszero\n      tag_81\n      jumpi\n        /* \"#utility.yul\":1470:1488   */\n      tag_82\n      tag_34\n      jump\t// in\n    tag_82:\n        /* \"#utility.yul\":1434:1490   */\n    tag_81:\n        /* \"#utility.yul\":1508:1537   */\n      tag_83\n        /* \"#utility.yul\":1530:1536   */\n      dup3\n        /* \"#utility.yul\":1508:1537   */\n      tag_33\n      jump\t// in\n    tag_83:\n        /* \"#utility.yul\":1500:1537   */\n      swap1\n      pop\n        /* \"#utility.yul\":1592:1596   */\n      0x20\n        /* \"#utility.yul\":1586:1590   */\n      dup2\n        /* \"#utility.yul\":1582:1597   */\n      add\n        /* \"#utility.yul\":1574:1597   */\n      swap1\n      pop\n        /* \"#utility.yul\":1296:1604   */\n      swap2\n      swap1\n      pop\n      jump\t// out\n        /* \"#utility.yul\":1610:1758   */\n    tag_38:\n        /* \"#utility.yul\":1708:1714   */\n      dup3\n        /* \"#utility.yul\":1703:1706   */\n      dup2\n        /* \"#utility.yul\":1698:1701   */\n      dup4\n        /* \"#utility.yul\":1685:1715   */\n      calldatacopy\n        /* \"#utility.yul\":1749:1750   */\n      0x00\n        /* \"#utility.yul\":1740:1746   */\n      dup4\n        /* \"#utility.yul\":1735:1738   */\n      dup4\n        /* \"#utility.yul\":1731:1747   */\n      add\n        /* \"#utility.yul\":1724:1751   */\n      mstore\n        /* \"#utility.yul\":1610:1758   */\n      pop\n      pop\n      pop\n      jump\t// out\n        /* \"#utility.yul\":1764:2189   */\n    tag_39:\n        /* \"#utility.yul\":1842:1847   */\n      0x00\n        /* \"#utility.yul\":1867:1933   */\n      tag_86\n        /* \"#utility.yul\":1883:1932   */\n      tag_87\n        /* \"#utility.yul\":1925:1931   */\n      dup5\n        /* \"#utility.yul\":1883:1932   */\n      tag_37\n      jump\t// in\n    tag_87:\n        /* \"#utility.yul\":1867:1933   */\n      tag_36\n      jump\t// in\n    tag_86:\n        /* \"#utility.yul\":1858:1933   */\n      swap1\n      pop\n        /* \"#utility.yul\":1956:1962   */\n      dup3\n        /* \"#utility.yul\":1949:1954   */\n      dup2\n        /* \"#utility.yul\":1942:1963   */\n      mstore\n        /* \"#utility.yul\":1994:1998   */\n      0x20\n        /* \"#utility.yul\":1987:1992   */\n      dup2\n        /* \"#utility.yul\":1983:1999   */\n      add\n        /* \"#utility.yul\":2032:2035   */\n      dup5\n        /* \"#utility.yul\":2023:2029   */\n      dup5\n        /* \"#utility.yul\":2018:2021   */\n      dup5\n        /* \"#utility.yul\":2014:2030   */\n      add\n        /* \"#utility.yul\":2011:2036   */\n      gt\n        /* \"#utility.yul\":2008:2120   */\n      iszero\n      tag_88\n      jumpi\n        /* \"#utility.yul\":2039:2118   */\n      tag_89\n      tag_32\n      jump\t// in\n    tag_89:\n        /* \"#utility.yul\":2008:2120   */\n    tag_88:\n        /* \"#utility.yul\":2129:2183   */\n      tag_90\n        /* \"#utility.yul\":2176:2182   */\n      dup5\n        /* \"#utility.yul\":2171:2174   */\n      dup3\n        /* \"#utility.yul\":2166:2169   */\n      dup6\n        /* \"#utility.yul\":2129:2183   */\n      tag_38\n      jump\t// in\n    tag_90:\n        /* \"#utility.yul\":1848:2189   */\n      pop\n        /* \"#utility.yul\":1764:2189   */\n      swap4\n      swap3\n      pop\n      pop\n      pop\n      jump\t// out\n        /* \"#utility.yul\":2209:2549   */\n    tag_40:\n        /* \"#utility.yul\":2265:2270   */\n      0x00\n        /* \"#utility.yul\":2314:2317   */\n      dup3\n        /* \"#utility.yul\":2307:2311   */\n      0x1f\n        /* \"#utility.yul\":2299:2305   */\n      dup4\n        /* \"#utility.yul\":2295:2312   */\n      add\n        /* \"#utility.yul\":2291:2318   */\n      slt\n        /* \"#utility.yul\":2281:2403   */\n      tag_92\n      jumpi\n        /* \"#utility.yul\":2322:2401   */\n      tag_93\n      tag_31\n      jump\t// in\n    tag_93:\n        /* \"#utility.yul\":2281:2403   */\n    tag_92:\n        /* \"#utility.yul\":2439:2445   */\n      dup2\n        /* \"#utility.yul\":2426:2446   */\n      calldataload\n        /* \"#utility.yul\":2464:2543   */\n      tag_94\n        /* \"#utility.yul\":2539:2542   */\n      dup5\n        /* \"#utility.yul\":2531:2537   */\n      dup3\n        /* \"#utility.yul\":2524:2528   */\n      0x20\n        /* \"#utility.yul\":2516:2522   */\n      dup7\n        /* \"#utility.yul\":2512:2529   */\n      add\n        /* \"#utility.yul\":2464:2543   */\n      tag_39\n      jump\t// in\n    tag_94:\n        /* \"#utility.yul\":2455:2543   */\n      swap2\n      pop\n        /* \"#utility.yul\":2271:2549   */\n      pop\n        /* \"#utility.yul\":2209:2549   */\n      swap3\n      swap2\n      pop\n      pop\n      jump\t// out\n        /* \"#utility.yul\":2555:3064   */\n    tag_7:\n        /* \"#utility.yul\":2624:2630   */\n      0x00\n        /* \"#utility.yul\":2673:2675   */\n      0x20\n        /* \"#utility.yul\":2661:2670   */\n      dup3\n        /* \"#utility.yul\":2652:2659   */\n      dup5\n        /* \"#utility.yul\":2648:2671   */\n      sub\n        /* \"#utility.yul\":2644:2676   */\n      slt\n        /* \"#utility.yul\":2641:2760   */\n      iszero\n      tag_96\n      jumpi\n        /* \"#utility.yul\":2679:2758   */\n      tag_97\n      tag_29\n      jump\t// in\n    tag_97:\n        /* \"#utility.yul\":2641:2760   */\n    tag_96:\n        /* \"#utility.yul\":2827:2828   */\n      0x00\n        /* \"#utility.yul\":2816:2825   */\n      dup3\n        /* \"#utility.yul\":2812:2829   */\n      add\n        /* \"#utility.yul\":2799:2830   */\n      calldataload\n        /* \"#utility.yul\":2857:2875   */\n      0xffffffffffffffff\n        /* \"#utility.yul\":2849:2855   */\n      dup2\n        /* \"#utility.yul\":2846:2876   */\n      gt\n        /* \"#utility.yul\":2843:2960   */\n      iszero\n      tag_98\n      jumpi\n        /* \"#utility.yul\":2879:2958   */\n      tag_99\n      tag_30\n      jump\t// in\n    tag_99:\n        /* \"#utility.yul\":2843:2960   */\n    tag_98:\n        /* \"#utility.yul\":2984:3047   */\n      tag_100\n        /* \"#utility.yul\":3039:3046   */\n      dup5\n        /* \"#utility.yul\":3030:3036   */\n      dup3\n        /* \"#utility.yul\":3019:3028   */\n      dup6\n        /* \"#utility.yul\":3015:3037   */\n      add\n        /* \"#utility.yul\":2984:3047   */\n      tag_40\n      jump\t// in\n    tag_100:\n        /* \"#utility.yul\":2974:3047   */\n      swap2\n      pop\n        /* \"#utility.yul\":2770:3057   */\n      pop\n        /* \"#utility.yul\":2555:3064   */\n      swap3\n      swap2\n      pop\n      pop\n      jump\t// out\n        /* \"#utility.yul\":3070:3169   */\n    tag_41:\n        /* \"#utility.yul\":3122:3128   */\n      0x00\n        /* \"#utility.yul\":3156:3161   */\n      dup2\n        /* \"#utility.yul\":3150:3162   */\n      mload\n        /* \"#utility.yul\":3140:3162   */\n      swap1\n      pop\n        /* \"#utility.yul\":3070:3169   */\n      swap2\n      swap1\n      pop\n      jump\t// out\n        /* \"#utility.yul\":3175:3344   */\n    tag_42:\n        /* \"#utility.yul\":3259:3270   */\n      0x00\n        /* \"#utility.yul\":3293:3299   */\n      dup3\n        /* \"#utility.yul\":3288:3291   */\n      dup3\n        /* \"#utility.yul\":3281:3300   */\n      mstore\n        /* \"#utility.yul\":3333:3337   */\n      0x20\n        /* \"#utility.yul\":3328:3331   */\n      dup3\n        /* \"#utility.yul\":3324:3338   */\n      add\n        /* \"#utility.yul\":3309:3338   */\n      swap1\n      pop\n        /* \"#utility.yul\":3175:3344   */\n      swap3\n      swap2\n      pop\n      pop\n      jump\t// out\n        /* \"#utility.yul\":3350:3598   */\n    tag_43:\n        /* \"#utility.yul\":3432:3433   */\n      0x00\n        /* \"#utility.yul\":3442:3555   */\n    tag_104:\n        /* \"#utility.yul\":3456:3462   */\n      dup4\n        /* \"#utility.yul\":3453:3454   */\n      dup2\n        /* \"#utility.yul\":3450:3463   */\n      lt\n        /* \"#utility.yul\":3442:3555   */\n      iszero\n      tag_106\n      jumpi\n        /* \"#utility.yul\":3541:3542   */\n      dup1\n        /* \"#utility.yul\":3536:3539   */\n      dup3\n        /* \"#utility.yul\":3532:3543   */\n      add\n        /* \"#utility.yul\":3526:3544   */\n      mload\n        /* \"#utility.yul\":3522:3523   */\n      dup2\n        /* \"#utility.yul\":3517:3520   */\n      dup5\n        /* \"#utility.yul\":3513:3524   */\n      add\n        /* \"#utility.yul\":3506:3545   */\n      mstore\n        /* \"#utility.yul\":3478:3480   */\n      0x20\n        /* \"#utility.yul\":3475:3476   */\n      dup2\n        /* \"#utility.yul\":3471:3481   */\n      add\n        /* \"#utility.yul\":3466:3481   */\n      swap1\n      pop\n        /* \"#utility.yul\":3442:3555   */\n      jump(tag_104)\n    tag_106:\n        /* \"#utility.yul\":3589:3590   */\n      0x00\n        /* \"#utility.yul\":3580:3586   */\n      dup5\n        /* \"#utility.yul\":3575:3578   */\n      dup5\n        /* \"#utility.yul\":3571:3587   */\n      add\n        /* \"#utility.yul\":3564:3591   */\n      mstore\n        /* \"#utility.yul\":3412:3598   */\n      pop\n        /* \"#utility.yul\":3350:3598   */\n      pop\n      pop\n      pop\n      jump\t// out\n        /* \"#utility.yul\":3604:3981   */\n    tag_44:\n        /* \"#utility.yul\":3692:3695   */\n      0x00\n        /* \"#utility.yul\":3720:3759   */\n      tag_108\n        /* \"#utility.yul\":3753:3758   */\n      dup3\n        /* \"#utility.yul\":3720:3759   */\n      tag_41\n      jump\t// in\n    tag_108:\n        /* \"#utility.yul\":3775:3846   */\n      tag_109\n        /* \"#utility.yul\":3839:3845   */\n      dup2\n        /* \"#utility.yul\":3834:3837   */\n      dup6\n        /* \"#utility.yul\":3775:3846   */\n      tag_42\n      jump\t// in\n    tag_109:\n        /* \"#utility.yul\":3768:3846   */\n      swap4\n      pop\n        /* \"#utility.yul\":3855:3920   */\n      tag_110\n        /* \"#utility.yul\":3913:3919   */\n      dup2\n        /* \"#utility.yul\":3908:3911   */\n      dup6\n        /* \"#utility.yul\":3901:3905   */\n      0x20\n        /* \"#utility.yul\":3894:3899   */\n      dup7\n        /* \"#utility.yul\":3890:3906   */\n      add\n        /* \"#utility.yul\":3855:3920   */\n      tag_43\n      jump\t// in\n    tag_110:\n        /* \"#utility.yul\":3945:3974   */\n      tag_111\n        /* \"#utility.yul\":3967:3973   */\n      dup2\n        /* \"#utility.yul\":3945:3974   */\n      tag_33\n      jump\t// in\n    tag_111:\n        /* \"#utility.yul\":3940:3943   */\n      dup5\n        /* \"#utility.yul\":3936:3975   */\n      add\n        /* \"#utility.yul\":3929:3975   */\n      swap2\n      pop\n        /* \"#utility.yul\":3696:3981   */\n      pop\n        /* \"#utility.yul\":3604:3981   */\n      swap3\n      swap2\n      pop\n      pop\n      jump\t// out\n        /* \"#utility.yul\":3987:4300   */\n    tag_12:\n        /* \"#utility.yul\":4100:4104   */\n      0x00\n        /* \"#utility.yul\":4138:4140   */\n      0x20\n        /* \"#utility.yul\":4127:4136   */\n      dup3\n        /* \"#utility.yul\":4123:4141   */\n      add\n        /* \"#utility.yul\":4115:4141   */\n      swap1\n      pop\n        /* \"#utility.yul\":4187:4196   */\n      dup2\n        /* \"#utility.yul\":4181:4185   */\n      dup2\n        /* \"#utility.yul\":4177:4197   */\n      sub\n        /* \"#utility.yul\":4173:4174   */\n      0x00\n        /* \"#utility.yul\":4162:4171   */\n      dup4\n        /* \"#utility.yul\":4158:4175   */\n      add\n        /* \"#utility.yul\":4151:4198   */\n      mstore\n        /* \"#utility.yul\":4215:4293   */\n      tag_113\n        /* \"#utility.yul\":4288:4292   */\n      dup2\n        /* \"#utility.yul\":4279:4285   */\n      dup5\n        /* \"#utility.yul\":4215:4293   */\n      tag_44\n      jump\t// in\n    tag_113:\n        /* \"#utility.yul\":4207:4293   */\n      swap1\n      pop\n        /* \"#utility.yul\":3987:4300   */\n      swap3\n      swap2\n      pop\n      pop\n      jump\t// out\n        /* \"#utility.yul\":4306:4486   */\n    tag_45:\n        /* \"#utility.yul\":4354:4431   */\n      0x4e487b7100000000000000000000000000000000000000000000000000000000\n        /* \"#utility.yul\":4351:4352   */\n      0x00\n        /* \"#utility.yul\":4344:4432   */\n      mstore\n        /* \"#utility.yul\":4451:4455   */\n      0x22\n        /* \"#utility.yul\":4448:4449   */\n      0x04\n        /* \"#utility.yul\":4441:4456   */\n      mstore\n        /* \"#utility.yul\":4475:4479   */\n      0x24\n        /* \"#utility.yul\":4472:4473   */\n      0x00\n        /* \"#utility.yul\":4465:4480   */\n      revert\n        /* \"#utility.yul\":4492:4812   */\n    tag_19:\n        /* \"#utility.yul\":4536:4542   */\n      0x00\n        /* \"#utility.yul\":4573:4574   */\n      0x02\n        /* \"#utility.yul\":4567:4571   */\n      dup3\n        /* \"#utility.yul\":4563:4575   */\n      div\n        /* \"#utility.yul\":4553:4575   */\n      swap1\n      pop\n        /* \"#utility.yul\":4620:4621   */\n      0x01\n        /* \"#utility.yul\":4614:4618   */\n      dup3\n        /* \"#utility.yul\":4610:4622   */\n      and\n        /* \"#utility.yul\":4641:4659   */\n      dup1\n        /* \"#utility.yul\":4631:4712   */\n      tag_116\n      jumpi\n        /* \"#utility.yul\":4697:4701   */\n      0x7f\n        /* \"#utility.yul\":4689:4695   */\n      dup3\n        /* \"#utility.yul\":4685:4702   */\n      and\n        /* \"#utility.yul\":4675:4702   */\n      swap2\n      pop\n        /* \"#utility.yul\":4631:4712   */\n    tag_116:\n        /* \"#utility.yul\":4759:4761   */\n      0x20\n        /* \"#utility.yul\":4751:4757   */\n      dup3\n        /* \"#utility.yul\":4748:4762   */\n      lt\n        /* \"#utility.yul\":4728:4746   */\n      dup2\n        /* \"#utility.yul\":4725:4763   */\n      sub\n        /* \"#utility.yul\":4722:4806   */\n      tag_117\n      jumpi\n        /* \"#utility.yul\":4778:4796   */\n      tag_118\n      tag_45\n      jump\t// in\n    tag_118:\n        /* \"#utility.yul\":4722:4806   */\n    tag_117:\n        /* \"#utility.yul\":4543:4812   */\n      pop\n        /* \"#utility.yul\":4492:4812   */\n      swap2\n      swap1\n      pop\n      jump\t// out\n        /* \"#utility.yul\":4818:4959   */\n    tag_46:\n        /* \"#utility.yul\":4867:4871   */\n      0x00\n        /* \"#utility.yul\":4890:4893   */\n      dup2\n        /* \"#utility.yul\":4882:4893   */\n      swap1\n      pop\n        /* \"#utility.yul\":4913:4916   */\n      dup2\n        /* \"#utility.yul\":4910:4911   */\n      0x00\n        /* \"#utility.yul\":4903:4917   */\n      mstore\n        /* \"#utility.yul\":4947:4951   */\n      0x20\n        /* \"#utility.yul\":4944:4945   */\n      0x00\n        /* \"#utility.yul\":4934:4952   */\n      keccak256\n        /* \"#utility.yul\":4926:4952   */\n      swap1\n      pop\n        /* \"#utility.yul\":4818:4959   */\n      swap2\n      swap1\n      pop\n      jump\t// out\n        /* \"#utility.yul\":4965:5058   */\n    tag_47:\n        /* \"#utility.yul\":5002:5008   */\n      0x00\n        /* \"#utility.yul\":5049:5051   */\n      0x20\n        /* \"#utility.yul\":5044:5046   */\n      0x1f\n        /* \"#utility.yul\":5037:5042   */\n      dup4\n        /* \"#utility.yul\":5033:5047   */\n      add\n        /* \"#utility.yul\":5029:5052   */\n      div\n        /* \"#utility.yul\":5019:5052   */\n      swap1\n      pop\n        /* \"#utility.yul\":4965:5058   */\n      swap2\n      swap1\n      pop\n      jump\t// out\n        /* \"#utility.yul\":5064:5171   */\n    tag_48:\n        /* \"#utility.yul\":5108:5116   */\n      0x00\n        /* \"#utility.yul\":5158:5163   */\n      dup3\n        /* \"#utility.yul\":5152:5156   */\n      dup3\n        /* \"#utility.yul\":5148:5164   */\n      shl\n        /* \"#utility.yul\":5127:5164   */\n      swap1\n      pop\n        /* \"#utility.yul\":5064:5171   */\n      swap3\n      swap2\n      pop\n      pop\n      jump\t// out\n        /* \"#utility.yul\":5177:5570   */\n    tag_49:\n        /* \"#utility.yul\":5246:5252   */\n      0x00\n        /* \"#utility.yul\":5296:5297   */\n      0x08\n        /* \"#utility.yul\":5284:5294   */\n      dup4\n        /* \"#utility.yul\":5280:5298   */\n      mul\n        /* \"#utility.yul\":5319:5416   */\n      tag_123\n        /* \"#utility.yul\":5349:5415   */\n      0xffffffffffffffffffffffffffffffffffffffffffffffffffffffffffffffff\n        /* \"#utility.yul\":5338:5347   */\n      dup3\n        /* \"#utility.yul\":5319:5416   */\n      tag_48\n      jump\t// in\n    tag_123:\n        /* \"#utility.yul\":5437:5476   */\n      tag_124\n        /* \"#utility.yul\":5467:5475   */\n      dup7\n        /* \"#utility.yul\":5456:5465   */\n      dup4\n        /* \"#utility.yul\":5437:5476   */\n      tag_48\n      jump\t// in\n    tag_124:\n        /* \"#utility.yul\":5425:5476   */\n      swap6\n      pop\n        /* \"#utility.yul\":5509:5513   */\n      dup1\n        /* \"#utility.yul\":5505:5514   */\n      not\n        /* \"#utility.yul\":5498:5503   */\n      dup5\n        /* \"#utility.yul\":5494:5515   */\n      and\n        /* \"#utility.yul\":5485:5515   */\n      swap4\n      pop\n        /* \"#utility.yul\":5558:5562   */\n      dup1\n        /* \"#utility.yul\":5548:5556   */\n      dup7\n        /* \"#utility.yul\":5544:5563   */\n      and\n        /* \"#utility.yul\":5537:5542   */\n      dup5\n        /* \"#utility.yul\":5534:5564   */\n      or\n        /* \"#utility.yul\":5524:5564   */\n      swap3\n      pop\n        /* \"#utility.yul\":5253:5570   */\n      pop\n      pop\n        /* \"#utility.yul\":5177:5570   */\n      swap4\n      swap3\n      pop\n      pop\n      pop\n      jump\t// out\n        /* \"#utility.yul\":5576:5653   */\n    tag_50:\n        /* \"#utility.yul\":5613:5620   */\n      0x00\n        /* \"#utility.yul\":5642:5647   */\n      dup2\n        /* \"#utility.yul\":5631:5647   */\n      swap1\n      pop\n        /* \"#utility.yul\":5576:5653   */\n      swap2\n      swap1\n      pop\n      jump\t// out\n        /* \"#utility.yul\":5659:5719   */\n    tag_51:\n        /* \"#utility.yul\":5687:5690   */\n      0x00\n        /* \"#utility.yul\":5708:5713   */\n      dup2\n        /* \"#utility.yul\":5701:5713   */\n      swap1\n      pop\n        /* \"#utility.yul\":5659:5719   */\n      swap2\n      swap1\n      pop\n      jump\t// out\n        /* \"#utility.yul\":5725:5867   */\n    tag_52:\n        /* \"#utility.yul\":5775:5784   */\n      0x00\n        /* \"#utility.yul\":5808:5861   */\n      tag_128\n        /* \"#utility.yul\":5826:5860   */\n      tag_129\n        /* \"#utility.yul\":5835:5859   */\n      tag_130\n        /* \"#utility.yul\":5853:5858   */\n      dup5\n        /* \"#utility.yul\":5835:5859   */\n      tag_50\n      jump\t// in\n    tag_130:\n        /* \"#utility.yul\":5826:5860   */\n      tag_51\n      jump\t// in\n    tag_129:\n        /* \"#utility.yul\":5808:5861   */\n      tag_50\n      jump\t// in\n    tag_128:\n        /* \"#utility.yul\":5795:5861   */\n      swap1\n      pop\n        /* \"#utility.yul\":5725:5867   */\n      swap2\n      swap1\n      pop\n      jump\t// out\n        /* \"#utility.yul\":5873:5948   */\n    tag_53:\n        /* \"#utility.yul\":5916:5919   */\n      0x00\n        /* \"#utility.yul\":5937:5942   */\n      dup2\n        /* \"#utility.yul\":5930:5942   */\n      swap1\n      pop\n        /* \"#utility.yul\":5873:5948   */\n      swap2\n      swap1\n      pop\n      jump\t// out\n        /* \"#utility.yul\":5954:6223   */\n    tag_54:\n        /* \"#utility.yul\":6064:6103   */\n      tag_133\n        /* \"#utility.yul\":6095:6102   */\n      dup4\n        /* \"#utility.yul\":6064:6103   */\n      tag_52\n      jump\t// in\n    tag_133:\n        /* \"#utility.yul\":6125:6216   */\n      tag_134\n        /* \"#utility.yul\":6174:6215   */\n      tag_135\n        /* \"#utility.yul\":6198:6214   */\n      dup3\n        /* \"#utility.yul\":6174:6215   */\n      tag_53\n      jump\t// in\n    tag_135:\n        /* \"#utility.yul\":6166:6172   */\n      dup5\n        /* \"#utility.yul\":6159:6163   */\n      dup5\n        /* \"#utility.yul\":6153:6164   */\n      sload\n        /* \"#utility.yul\":6125:6216   */\n      tag_49\n      jump\t// in\n    tag_134:\n        /* \"#utility.yul\":6119:6123   */\n      dup3\n        /* \"#utility.yul\":6112:6217   */\n      sstore\n        /* \"#utility.yul\":6030:6223   */\n      pop\n        /* \"#utility.yul\":5954:6223   */\n      pop\n      pop\n      pop\n      jump\t// out\n        /* \"#utility.yul\":6229:6302   */\n    tag_55:\n        /* \"#utility.yul\":6274:6277   */\n      0x00\n        /* \"#utility.yul\":6295:6296   */\n      0x00\n        /* \"#utility.yul\":6288:6296   */\n      swap1\n      pop\n        /* \"#utility.yul\":6229:6302   */\n      swap1\n      jump\t// out\n        /* \"#utility.yul\":6308:6497   */\n    tag_56:\n        /* \"#utility.yul\":6385:6417   */\n      tag_138\n      tag_55\n      jump\t// in\n    tag_138:\n        /* \"#utility.yul\":6426:6491   */\n      tag_139\n        /* \"#utility.yul\":6484:6490   */\n      dup2\n        /* \"#utility.yul\":6476:6482   */\n      dup5\n        /* \"#utility.yul\":6470:6474   */\n      dup5\n        /* \"#utility.yul\":6426:6491   */\n      tag_54\n      jump\t// in\n    tag_139:\n        /* \"#utility.yul\":6361:6497   */\n      pop\n        /* \"#utility.yul\":6308:6497   */\n      pop\n      pop\n      jump\t// out\n        /* \"#utility.yul\":6503:6689   */\n    tag_57:\n        /* \"#utility.yul\":6563:6683   */\n    tag_141:\n        /* \"#utility.yul\":6580:6583   */\n      dup2\n        /* \"#utility.yul\":6573:6578   */\n      dup2\n        /* \"#utility.yul\":6570:6584   */\n      lt\n        /* \"#utility.yul\":6563:6683   */\n      iszero\n      tag_143\n      jumpi\n        /* \"#utility.yul\":6634:6673   */\n      tag_144\n        /* \"#utility.yul\":6671:6672   */\n      0x00\n        /* \"#utility.yul\":6664:6669   */\n      dup3\n        /* \"#utility.yul\":6634:6673   */\n      tag_56\n      jump\t// in\n    tag_144:\n        /* \"#utility.yul\":6607:6608   */\n      0x01\n        /* \"#utility.yul\":6600:6605   */\n      dup2\n        /* \"#utility.yul\":6596:6609   */\n      add\n        /* \"#utility.yul\":6587:6609   */\n      swap1\n      pop\n        /* \"#utility.yul\":6563:6683   */\n      jump(tag_141)\n    tag_143:\n        /* \"#utility.yul\":6503:6689   */\n      pop\n      pop\n      jump\t// out\n        /* \"#utility.yul\":6695:7238   */\n    tag_58:\n        /* \"#utility.yul\":6796:6798   */\n      0x1f\n        /* \"#utility.yul\":6791:6794   */\n      dup3\n        /* \"#utility.yul\":6788:6799   */\n      gt\n        /* \"#utility.yul\":6785:7231   */\n      iszero\n      tag_146\n      jumpi\n        /* \"#utility.yul\":6830:6868   */\n      tag_147\n        /* \"#utility.yul\":6862:6867   */\n      dup2\n        /* \"#utility.yul\":6830:6868   */\n      tag_46\n      jump\t// in\n    tag_147:\n        /* \"#utility.yul\":6914:6943   */\n      tag_148\n        /* \"#utility.yul\":6932:6942   */\n      dup5\n        /* \"#utility.yul\":6914:6943   */\n      tag_47\n      jump\t// in\n    tag_148:\n        /* \"#utility.yul\":6904:6912   */\n      dup2\n        /* \"#utility.yul\":6900:6944   */\n      add\n        /* \"#utility.yul\":7097:7099   */\n      0x20\n        /* \"#utility.yul\":7085:7095   */\n      dup6\n        /* \"#utility.yul\":7082:7100   */\n      lt\n        /* \"#utility.yul\":7079:7128   */\n      iszero\n      tag_149\n      jumpi\n        /* \"#utility.yul\":7118:7126   */\n      dup2\n        /* \"#utility.yul\":7103:7126   */\n      swap1\n      pop\n        /* \"#utility.yul\":7079:7128   */\n    tag_149:\n        /* \"#utility.yul\":7141:7221   */\n      tag_150\n        /* \"#utility.yul\":7197:7219   */\n      tag_151\n        /* \"#utility.yul\":7215:7218   */\n      dup6\n        /* \"#utility.yul\":7197:7219   */\n      tag_47\n      jump\t// in\n    tag_151:\n        /* \"#utility.yul\":7187:7195   */\n      dup4\n        /* \"#utility.yul\":7183:7220   */\n      add\n        /* \"#utility.yul\":7170:7181   */\n      dup3\n        /* \"#utility.yul\":7141:7221   */\n      tag_57\n      jump\t// in\n    tag_150:\n        /* \"#utility.yul\":6800:7231   */\n      pop\n      pop\n        /* \"#utility.yul\":6785:7231   */\n    tag_146:\n        /* \"#utility.yul\":6695:7238   */\n      pop\n      pop\n      pop\n      jump\t// out\n        /* \"#utility.yul\":7244:7361   */\n    tag_59:\n        /* \"#utility.yul\":7298:7306   */\n      0x00\n        /* \"#utility.yul\":7348:7353   */\n      dup3\n        /* \"#utility.yul\":7342:7346   */\n      dup3\n        /* \"#utility.yul\":7338:7354   */\n      shr\n        /* \"#utility.yul\":7317:7354   */\n      swap1\n      pop\n        /* \"#utility.yul\":7244:7361   */\n      swap3\n      swap2\n      pop\n      pop\n      jump\t// out\n        /* \"#utility.yul\":7367:7536   */\n    tag_60:\n        /* \"#utility.yul\":7411:7417   */\n      0x00\n        /* \"#utility.yul\":7444:7495   */\n      tag_154\n        /* \"#utility.yul\":7492:7493   */\n      0x00\n        /* \"#utility.yul\":7488:7494   */\n      not\n        /* \"#utility.yul\":7480:7485   */\n      dup5\n        /* \"#utility.yul\":7477:7478   */\n      0x08\n        /* \"#utility.yul\":7473:7486   */\n      mul\n        /* \"#utility.yul\":7444:7495   */\n      tag_59\n      jump\t// in\n    tag_154:\n        /* \"#utility.yul\":7440:7496   */\n      not\n        /* \"#utility.yul\":7525:7529   */\n      dup1\n        /* \"#utility.yul\":7519:7523   */\n      dup4\n        /* \"#utility.yul\":7515:7530   */\n      and\n        /* \"#utility.yul\":7505:7530   */\n      swap2\n      pop\n        /* \"#utility.yul\":7418:7536   */\n      pop\n        /* \"#utility.yul\":7367:7536   */\n      swap3\n      swap2\n      pop\n      pop\n      jump\t// out\n        /* \"#utility.yul\":7541:7836   */\n    tag_61:\n        /* \"#utility.yul\":7617:7621   */\n      0x00\n        /* \"#utility.yul\":7763:7792   */\n      tag_156\n        /* \"#utility.yul\":7788:7791   */\n      dup4\n        /* \"#utility.yul\":7782:7786   */\n      dup4\n        /* \"#utility.yul\":7763:7792   */\n      tag_60\n      jump\t// in\n    tag_156:\n        /* \"#utility.yul\":7755:7792   */\n      swap2\n      pop\n        /* \"#utility.yul\":7825:7828   */\n      dup3\n        /* \"#utility.yul\":7822:7823   */\n      0x02\n        /* \"#utility.yul\":7818:7829   */\n      mul\n        /* \"#utility.yul\":7812:7816   */\n      dup3\n        /* \"#utility.yul\":7809:7830   */\n      or\n        /* \"#utility.yul\":7801:7830   */\n      swap1\n      pop\n        /* \"#utility.yul\":7541:7836   */\n      swap3\n      swap2\n      pop\n      pop\n      jump\t// out\n        /* \"#utility.yul\":7841:9236   */\n    tag_15:\n        /* \"#utility.yul\":7958:7995   */\n      tag_158\n        /* \"#utility.yul\":7991:7994   */\n      dup3\n        /* \"#utility.yul\":7958:7995   */\n      tag_41\n      jump\t// in\n    tag_158:\n        /* \"#utility.yul\":8060:8078   */\n      0xffffffffffffffff\n        /* \"#utility.yul\":8052:8058   */\n      dup2\n        /* \"#utility.yul\":8049:8079   */\n      gt\n        /* \"#utility.yul\":8046:8102   */\n      iszero\n      tag_159\n      jumpi\n        /* \"#utility.yul\":8082:8100   */\n      tag_160\n      tag_34\n      jump\t// in\n    tag_160:\n        /* \"#utility.yul\":8046:8102   */\n    tag_159:\n        /* \"#utility.yul\":8126:8164   */\n      tag_161\n        /* \"#utility.yul\":8158:8162   */\n      dup3\n        /* \"#utility.yul\":8152:8163   */\n      sload\n        /* \"#utility.yul\":8126:8164   */\n      tag_19\n      jump\t// in\n    tag_161:\n        /* \"#utility.yul\":8211:8278   */\n      tag_162\n        /* \"#utility.yul\":8271:8277   */\n      dup3\n        /* \"#utility.yul\":8263:8269   */\n      dup3\n        /* \"#utility.yul\":8257:8261   */\n      dup6\n        /* \"#utility.yul\":8211:8278   */\n      tag_58\n      jump\t// in\n    tag_162:\n        /* \"#utility.yul\":8305:8306   */\n      0x00\n        /* \"#utility.yul\":8329:8333   */\n      0x20\n        /* \"#utility.yul\":8316:8333   */\n      swap1\n      pop\n        /* \"#utility.yul\":8361:8363   */\n      0x1f\n        /* \"#utility.yul\":8353:8359   */\n      dup4\n        /* \"#utility.yul\":8350:8364   */\n      gt\n        /* \"#utility.yul\":8378:8379   */\n      0x01\n        /* \"#utility.yul\":8373:8991   */\n      dup2\n      eq\n      tag_164\n      jumpi\n        /* \"#utility.yul\":9035:9036   */\n      0x00\n        /* \"#utility.yul\":9052:9058   */\n      dup5\n        /* \"#utility.yul\":9049:9126   */\n      iszero\n      tag_165\n      jumpi\n        /* \"#utility.yul\":9101:9110   */\n      dup3\n        /* \"#utility.yul\":9096:9099   */\n      dup8\n        /* \"#utility.yul\":9092:9111   */\n      add\n        /* \"#utility.yul\":9086:9112   */\n      mload\n        /* \"#utility.yul\":9077:9112   */\n      swap1\n      pop\n        /* \"#utility.yul\":9049:9126   */\n    tag_165:\n        /* \"#utility.yul\":9152:9219   */\n      tag_166\n        /* \"#utility.yul\":9212:9218   */\n      dup6\n        /* \"#utility.yul\":9205:9210   */\n      dup3\n        /* \"#utility.yul\":9152:9219   */\n      tag_61\n      jump\t// in\n    tag_166:\n        /* \"#utility.yul\":9146:9150   */\n      dup7\n        /* \"#utility.yul\":9139:9220   */\n      sstore\n        /* \"#utility.yul\":9008:9230   */\n      pop\n        /* \"#utility.yul\":8343:9230   */\n      jump(tag_163)\n        /* \"#utility.yul\":8373:8991   */\n    tag_164:\n        /* \"#utility.yul\":8425:8429   */\n      0x1f\n        /* \"#utility.yul\":8421:8430   */\n      not\n        /* \"#utility.yul\":8413:8419   */\n      dup5\n        /* \"#utility.yul\":8409:8431   */\n      and\n        /* \"#utility.yul\":8459:8496   */\n      tag_167\n        /* \"#utility.yul\":8491:8495   */\n      dup7\n        /* \"#utility.yul\":8459:8496   */\n      tag_46\n      jump\t// in\n    tag_167:\n        /* \"#utility.yul\":8518:8519   */\n      0x00\n        /* \"#utility.yul\":8532:8740   */\n    tag_168:\n        /* \"#utility.yul\":8546:8553   */\n      dup3\n        /* \"#utility.yul\":8543:8544   */\n      dup2\n        /* \"#utility.yul\":8540:8554   */\n      lt\n        /* \"#utility.yul\":8532:8740   */\n      iszero\n      tag_170\n      jumpi\n        /* \"#utility.yul\":8625:8634   */\n      dup5\n        /* \"#utility.yul\":8620:8623   */\n      dup10\n        /* \"#utility.yul\":8616:8635   */\n      add\n        /* \"#utility.yul\":8610:8636   */\n      mload\n        /* \"#utility.yul\":8602:8608   */\n      dup3\n        /* \"#utility.yul\":8595:8637   */\n      sstore\n        /* \"#utility.yul\":8676:8677   */\n      0x01\n        /* \"#utility.yul\":8668:8674   */\n      dup3\n        /* \"#utility.yul\":8664:8678   */\n      add\n        /* \"#utility.yul\":8654:8678   */\n      swap2\n      pop\n        /* \"#utility.yul\":8723:8725   */\n      0x20\n        /* \"#utility.yul\":8712:8721   */\n      dup6\n        /* \"#utility.yul\":8708:8726   */\n      add\n        /* \"#utility.yul\":8695:8726   */\n      swap5\n      pop\n        /* \"#utility.yul\":8569:8573   */\n      0x20\n        /* \"#utility.yul\":8566:8567   */\n      dup2\n        /* \"#utility.yul\":8562:8574   */\n      add\n        /* \"#utility.yul\":8557:8574   */\n      swap1\n      pop\n        /* \"#utility.yul\":8532:8740   */\n      jump(tag_168)\n    tag_170:\n        /* \"#utility.yul\":8768:8774   */\n      dup7\n        /* \"#utility.yul\":8759:8766   */\n      dup4\n        /* \"#utility.yul\":8756:8775   */\n      lt\n        /* \"#utility.yul\":8753:8932   */\n      iszero\n      tag_171\n      jumpi\n        /* \"#utility.yul\":8826:8835   */\n      dup5\n        /* \"#utility.yul\":8821:8824   */\n      dup10\n        /* \"#utility.yul\":8817:8836   */\n      add\n        /* \"#utility.yul\":8811:8837   */\n      mload\n        /* \"#utility.yul\":8869:8917   */\n      tag_172\n        /* \"#utility.yul\":8911:8915   */\n      0x1f\n        /* \"#utility.yul\":8903:8909   */\n      dup10\n        /* \"#utility.yul\":8899:8916   */\n      and\n        /* \"#utility.yul\":8888:8897   */\n      dup3\n        /* \"#utility.yul\":8869:8917   */\n      tag_60\n      jump\t// in\n    tag_172:\n        /* \"#utility.yul\":8861:8867   */\n      dup4\n        /* \"#utility.yul\":8854:8918   */\n      sstore\n        /* \"#utility.yul\":8776:8932   */\n      pop\n        /* \"#utility.yul\":8753:8932   */\n    tag_171:\n        /* \"#utility.yul\":8978:8979   */\n      0x01\n        /* \"#utility.yul\":8974:8975   */\n      0x02\n        /* \"#utility.yul\":8966:8972   */\n      dup9\n        /* \"#utility.yul\":8962:8976   */\n      mul\n        /* \"#utility.yul\":8958:8980   */\n      add\n        /* \"#utility.yul\":8952:8956   */\n      dup9\n        /* \"#utility.yul\":8945:8981   */\n      sstore\n        /* \"#utility.yul\":8380:8991   */\n      pop\n      pop\n      pop\n        /* \"#utility.yul\":8343:9230   */\n    tag_163:\n      pop\n        /* \"#utility.yul\":7933:9236   */\n      pop\n      pop\n      pop\n        /* \"#utility.yul\":7841:9236   */\n      pop\n      pop\n      jump\t// out\n        /* \"#utility.yul\":9242:9390   */\n    tag_62:\n        /* \"#utility.yul\":9344:9355   */\n      0x00\n        /* \"#utility.yul\":9381:9384   */\n      dup2\n        /* \"#utility.yul\":9366:9384   */\n      swap1\n      pop\n        /* \"#utility.yul\":9242:9390   */\n      swap3\n      swap2\n      pop\n      pop\n      jump\t// out\n        /* \"#utility.yul\":9396:9786   */\n    tag_63:\n        /* \"#utility.yul\":9502:9505   */\n      0x00\n        /* \"#utility.yul\":9530:9569   */\n      tag_175\n        /* \"#utility.yul\":9563:9568   */\n      dup3\n        /* \"#utility.yul\":9530:9569   */\n      tag_41\n      jump\t// in\n    tag_175:\n        /* \"#utility.yul\":9585:9674   */\n      tag_176\n        /* \"#utility.yul\":9667:9673   */\n      dup2\n        /* \"#utility.yul\":9662:9665   */\n      dup6\n        /* \"#utility.yul\":9585:9674   */\n      tag_62\n      jump\t// in\n    tag_176:\n        /* \"#utility.yul\":9578:9674   */\n      swap4\n      pop\n        /* \"#utility.yul\":9683:9748   */\n      tag_177\n        /* \"#utility.yul\":9741:9747   */\n      dup2\n        /* \"#utility.yul\":9736:9739   */\n      dup6\n        /* \"#utility.yul\":9729:9733   */\n      0x20\n        /* \"#utility.yul\":9722:9727   */\n      dup7\n        /* \"#utility.yul\":9718:9734   */\n      add\n        /* \"#utility.yul\":9683:9748   */\n      tag_43\n      jump\t// in\n    tag_177:\n        /* \"#utility.yul\":9773:9779   */\n      dup1\n        /* \"#utility.yul\":9768:9771   */\n      dup5\n        /* \"#utility.yul\":9764:9780   */\n      add\n        /* \"#utility.yul\":9757:9780   */\n      swap2\n      pop\n        /* \"#utility.yul\":9506:9786   */\n      pop\n        /* \"#utility.yul\":9396:9786   */\n      swap3\n      swap2\n      pop\n      pop\n      jump\t// out\n        /* \"#utility.yul\":9792:9991   */\n    tag_64:\n        /* \"#utility.yul\":9961:9984   */\n      0x66726f6d206672616e6b277320636f6e74726163740000000000000000000000\n        /* \"#utility.yul\":9956:9959   */\n      dup2\n        /* \"#utility.yul\":9949:9985   */\n      mstore\n        /* \"#utility.yul\":9792:9991   */\n      pop\n      jump\t// out\n        /* \"#utility.yul\":9997:10539   */\n    tag_27:\n        /* \"#utility.yul\":10220:10223   */\n      0x00\n        /* \"#utility.yul\":10242:10337   */\n      tag_180\n        /* \"#utility.yul\":10333:10336   */\n      dup3\n        /* \"#utility.yul\":10324:10330   */\n      dup5\n        /* \"#utility.yul\":10242:10337   */\n      tag_63\n      jump\t// in\n    tag_180:\n        /* \"#utility.yul\":10235:10337   */\n      swap2\n      pop\n        /* \"#utility.yul\":10347:10485   */\n      tag_181\n        /* \"#utility.yul\":10481:10484   */\n      dup3\n        /* \"#utility.yul\":10347:10485   */\n      tag_64\n      jump\t// in\n    tag_181:\n        /* \"#utility.yul\":10510:10512   */\n      0x15\n        /* \"#utility.yul\":10505:10508   */\n      dup3\n        /* \"#utility.yul\":10501:10513   */\n      add\n        /* \"#utility.yul\":10494:10513   */\n      swap2\n      pop\n        /* \"#utility.yul\":10530:10533   */\n      dup2\n        /* \"#utility.yul\":10523:10533   */\n      swap1\n      pop\n        /* \"#utility.yul\":9997:10539   */\n      swap3\n      swap2\n      pop\n      pop\n      jump\t// out\n\n    auxdata: 0xa2646970667358221220584b49ab0e45404b04eb28dabe93a96b22f6cd8cd62b9a68e25a8528244b371464736f6c634300081e0033\n}\n",
				"bytecode": {
					"linkReferences": {},
					"object": "608060405260015f5f6101000a81548160ff0219169083151502179055505f5f60016101000a81548160ff021916908315150217905550607b5f60026101000a81548160ff021916908360ff1602179055506101c86001557fffffffffffffffffffffffffffffffffffffffffffffffffffffffffffffff8560025f6101000a81548160ff02191690835f0b60ff1602179055507ffffffffffffffffffffffffffffffffffffffffffffffffffffffffffffffe386003557f68656c6c6f00000000000000000000000000000000000000000000000000000060045f6101000a81548167ffffffffffffffff021916908360c01c02179055507f68656c6c6f576f726c64000000000000000000000000000000000000000000006005556040518060400160405280600b81526020017f68656c6c6f20776f726c64000000000000000000000000000000000000000000815250600690816101609190610403565b50735b38da6a701c568545dcfcb03fcb875f56beddc460075f6101000a81548173ffffffffffffffffffffffffffffffffffffffff021916908373ffffffffffffffffffffffffffffffffffffffff1602179055503480156101c0575f5ffd5b506104d2565b5f81519050919050565b7f4e487b71000000000000000000000000000000000000000000000000000000005f52604160045260245ffd5b7f4e487b71000000000000000000000000000000000000000000000000000000005f52602260045260245ffd5b5f600282049050600182168061024157607f821691505b602082108103610254576102536101fd565b5b50919050565b5f819050815f5260205f209050919050565b5f6020601f8301049050919050565b5f82821b905092915050565b5f600883026102b67fffffffffffffffffffffffffffffffffffffffffffffffffffffffffffffffff8261027b565b6102c0868361027b565b95508019841693508086168417925050509392505050565b5f819050919050565b5f819050919050565b5f6103046102ff6102fa846102d8565b6102e1565b6102d8565b9050919050565b5f819050919050565b61031d836102ea565b6103316103298261030b565b848454610287565b825550505050565b5f5f905090565b610348610339565b610353818484610314565b505050565b5b818110156103765761036b5f82610340565b600181019050610359565b5050565b601f8211156103bb5761038c8161025a565b6103958461026c565b810160208510156103a4578190505b6103b86103b08561026c565b830182610358565b50505b505050565b5f82821c905092915050565b5f6103db5f19846008026103c0565b1980831691505092915050565b5f6103f383836103cc565b9150826002028217905092915050565b61040c826101c6565b67ffffffffffffffff811115610425576104246101d0565b5b61042f825461022a565b61043a82828561037a565b5f60209050601f83116001811461046b575f8415610459578287015190505b61046385826103e8565b8655506104ca565b601f1984166104798661025a565b5f5b828110156104a05784890151825560018201915060208501945060208101905061047b565b868310156104bd57848901516104b9601f8916826103cc565b8355505b6001600288020188555050505b505050505050565b610704806104df5f395ff3fe608060405234801561000f575f5ffd5b5060043610610034575f3560e01c806390ffded814610038578063ef5fb05b14610054575b5f5ffd5b610052600480360381019061004d9190610293565b610072565b005b61005c610085565b6040516100699190610354565b60405180910390f35b8060069081610081919061057a565b5050565b606061011860068054610097906103a1565b80601f01602080910402602001604051908101604052809291908181526020018280546100c3906103a1565b801561010e5780601f106100e55761010080835404028352916020019161010e565b820191905f5260205f20905b8154815290600101906020018083116100f157829003601f168201915b505050505061011d565b905090565b60608160405160200161013091906106a9565b6040516020818303038152906040529050919050565b5f604051905090565b5f5ffd5b5f5ffd5b5f5ffd5b5f5ffd5b5f601f19601f8301169050919050565b7f4e487b71000000000000000000000000000000000000000000000000000000005f52604160045260245ffd5b6101a58261015f565b810181811067ffffffffffffffff821117156101c4576101c361016f565b5b80604052505050565b5f6101d6610146565b90506101e2828261019c565b919050565b5f67ffffffffffffffff8211156102015761020061016f565b5b61020a8261015f565b9050602081019050919050565b828183375f83830152505050565b5f610237610232846101e7565b6101cd565b9050828152602081018484840111156102535761025261015b565b5b61025e848285610217565b509392505050565b5f82601f83011261027a57610279610157565b5b813561028a848260208601610225565b91505092915050565b5f602082840312156102a8576102a761014f565b5b5f82013567ffffffffffffffff8111156102c5576102c4610153565b5b6102d184828501610266565b91505092915050565b5f81519050919050565b5f82825260208201905092915050565b5f5b838110156103115780820151818401526020810190506102f6565b5f8484015250505050565b5f610326826102da565b61033081856102e4565b93506103408185602086016102f4565b6103498161015f565b840191505092915050565b5f6020820190508181035f83015261036c818461031c565b905092915050565b7f4e487b71000000000000000000000000000000000000000000000000000000005f52602260045260245ffd5b5f60028204905060018216806103b857607f821691505b6020821081036103cb576103ca610374565b5b50919050565b5f819050815f5260205f209050919050565b5f6020601f8301049050919050565b5f82821b905092915050565b5f6008830261042d7fffffffffffffffffffffffffffffffffffffffffffffffffffffffffffffffff826103f2565b61043786836103f2565b95508019841693508086168417925050509392505050565b5f819050919050565b5f819050919050565b5f61047b6104766104718461044f565b610458565b61044f565b9050919050565b5f819050919050565b61049483610461565b6104a86104a082610482565b8484546103fe565b825550505050565b5f5f905090565b6104bf6104b0565b6104ca81848461048b565b505050565b5b818110156104ed576104e25f826104b7565b6001810190506104d0565b5050565b601f82111561053257610503816103d1565b61050c846103e3565b8101602085101561051b578190505b61052f610527856103e3565b8301826104cf565b50505b505050565b5f82821c905092915050565b5f6105525f1984600802610537565b1980831691505092915050565b5f61056a8383610543565b9150826002028217905092915050565b610583826102da565b67ffffffffffffffff81111561059c5761059b61016f565b5b6105a682546103a1565b6105b18282856104f1565b5f60209050601f8311600181146105e2575f84156105d0578287015190505b6105da858261055f565b865550610641565b601f1984166105f0866103d1565b5f5b82811015610617578489015182556001820191506020850194506020810190506105f2565b868310156106345784890151610630601f891682610543565b8355505b6001600288020188555050505b505050505050565b5f81905092915050565b5f61065d826102da565b6106678185610649565b93506106778185602086016102f4565b80840191505092915050565b7f66726f6d206672616e6b277320636f6e74726163740000000000000000000000815250565b5f6106b48284610653565b91506106bf82610683565b6015820191508190509291505056fea2646970667358221220584b49ab0e45404b04eb28dabe93a96b22f6cd8cd62b9a68e25a8528244b371464736f6c634300081e0033",
					"opcodes": "PUSH1 0x80 PUSH1 0x40 MSTORE PUSH1 0x1 PUSH0 PUSH0 PUSH2 0x100 EXP DUP2 SLOAD DUP2 PUSH1 0xFF MUL NOT AND SWAP1 DUP4 ISZERO ISZERO MUL OR SWAP1 SSTORE POP PUSH0 PUSH0 PUSH1 0x1 PUSH2 0x100 EXP DUP2 SLOAD DUP2 PUSH1 0xFF MUL NOT AND SWAP1 DUP4 ISZERO ISZERO MUL OR SWAP1 SSTORE POP PUSH1 0x7B PUSH0 PUSH1 0x2 PUSH2 0x100 EXP DUP2 SLOAD DUP2 PUSH1 0xFF MUL NOT AND SWAP1 DUP4 PUSH1 0xFF AND MUL OR SWAP1 SSTORE POP PUSH2 0x1C8 PUSH1 0x1 SSTORE PUSH32 0xFFFFFFFFFFFFFFFFFFFFFFFFFFFFFFFFFFFFFFFFFFFFFFFFFFFFFFFFFFFFFF85 PUSH1 0x2 PUSH0 PUSH2 0x100 EXP DUP2 SLOAD DUP2 PUSH1 0xFF MUL NOT AND SWAP1 DUP4 PUSH0 SIGNEXTEND PUSH1 0xFF AND MUL OR SWAP1 SSTORE POP PUSH32 0xFFFFFFFFFFFFFFFFFFFFFFFFFFFFFFFFFFFFFFFFFFFFFFFFFFFFFFFFFFFFFE38 PUSH1 0x3 SSTORE PUSH32 0x68656C6C6F000000000000000000000000000000000000000000000000000000 PUSH1 0x4 PUSH0 PUSH2 0x100 EXP DUP2 SLOAD DUP2 PUSH8 0xFFFFFFFFFFFFFFFF MUL NOT AND SWAP1 DUP4 PUSH1 0xC0 SHR MUL OR SWAP1 SSTORE POP PUSH32 0x68656C6C6F576F726C6400000000000000000000000000000000000000000000 PUSH1 0x5 SSTORE PUSH1 0x40 MLOAD DUP1 PUSH1 0x40 ADD PUSH1 0x40 MSTORE DUP1 PUSH1 0xB DUP2 MSTORE PUSH1 0x20 ADD PUSH32 0x68656C6C6F20776F726C64000000000000000000000000000000000000000000 DUP2 MSTORE POP PUSH1 0x6 SWAP1 DUP2 PUSH2 0x160 SWAP2 SWAP1 PUSH2 0x403 JUMP JUMPDEST POP PUSH20 0x5B38DA6A701C568545DCFCB03FCB875F56BEDDC4 PUSH1 0x7 PUSH0 PUSH2 0x100 EXP DUP2 SLOAD DUP2 PUSH20 0xFFFFFFFFFFFFFFFFFFFFFFFFFFFFFFFFFFFFFFFF MUL NOT AND SWAP1 DUP4 PUSH20 0xFFFFFFFFFFFFFFFFFFFFFFFFFFFFFFFFFFFFFFFF AND MUL OR SWAP1 SSTORE POP CALLVALUE DUP1 ISZERO PUSH2 0x1C0 JUMPI PUSH0 PUSH0 REVERT JUMPDEST POP PUSH2 0x4D2 JUMP JUMPDEST PUSH0 DUP2 MLOAD SWAP1 POP SWAP2 SWAP1 POP JUMP JUMPDEST PUSH32 0x4E487B7100000000000000000000000000000000000000000000000000000000 PUSH0 MSTORE PUSH1 0x41 PUSH1 0x4 MSTORE PUSH1 0x24 PUSH0 REVERT JUMPDEST PUSH32 0x4E487B7100000000000000000000000000000000000000000000000000000000 PUSH0 MSTORE PUSH1 0x22 PUSH1 0x4 MSTORE PUSH1 0x24 PUSH0 REVERT JUMPDEST PUSH0 PUSH1 0x2 DUP3 DIV SWAP1 POP PUSH1 0x1 DUP3 AND DUP1 PUSH2 0x241 JUMPI PUSH1 0x7F DUP3 AND SWAP2 POP JUMPDEST PUSH1 0x20 DUP3 LT DUP2 SUB PUSH2 0x254 JUMPI PUSH2 0x253 PUSH2 0x1FD JUMP JUMPDEST JUMPDEST POP SWAP2 SWAP1 POP JUMP JUMPDEST PUSH0 DUP2 SWAP1 POP DUP2 PUSH0 MSTORE PUSH1 0x20 PUSH0 KECCAK256 SWAP1 POP SWAP2 SWAP1 POP JUMP JUMPDEST PUSH0 PUSH1 0x20 PUSH1 0x1F DUP4 ADD DIV SWAP1 POP SWAP2 SWAP1 POP JUMP JUMPDEST PUSH0 DUP3 DUP3 SHL SWAP1 POP SWAP3 SWAP2 POP POP JUMP JUMPDEST PUSH0 PUSH1 0x8 DUP4 MUL PUSH2 0x2B6 PUSH32 0xFFFFFFFFFFFFFFFFFFFFFFFFFFFFFFFFFFFFFFFFFFFFFFFFFFFFFFFFFFFFFFFF DUP3 PUSH2 0x27B JUMP JUMPDEST PUSH2 0x2C0 DUP7 DUP4 PUSH2 0x27B JUMP JUMPDEST SWAP6 POP DUP1 NOT DUP5 AND SWAP4 POP DUP1 DUP7 AND DUP5 OR SWAP3 POP POP POP SWAP4 SWAP3 POP POP POP JUMP JUMPDEST PUSH0 DUP2 SWAP1 POP SWAP2 SWAP1 POP JUMP JUMPDEST PUSH0 DUP2 SWAP1 POP SWAP2 SWAP1 POP JUMP JUMPDEST PUSH0 PUSH2 0x304 PUSH2 0x2FF PUSH2 0x2FA DUP5 PUSH2 0x2D8 JUMP JUMPDEST PUSH2 0x2E1 JUMP JUMPDEST PUSH2 0x2D8 JUMP JUMPDEST SWAP1 POP SWAP2 SWAP1 POP JUMP JUMPDEST PUSH0 DUP2 SWAP1 POP SWAP2 SWAP1 POP JUMP JUMPDEST PUSH2 0x31D DUP4 PUSH2 0x2EA JUMP JUMPDEST PUSH2 0x331 PUSH2 0x329 DUP3 PUSH2 0x30B JUMP JUMPDEST DUP5 DUP5 SLOAD PUSH2 0x287 JUMP JUMPDEST DUP3 SSTORE POP POP POP POP JUMP JUMPDEST PUSH0 PUSH0 SWAP1 POP SWAP1 JUMP JUMPDEST PUSH2 0x348 PUSH2 0x339 JUMP JUMPDEST PUSH2 0x353 DUP2 DUP5 DUP5 PUSH2 0x314 JUMP JUMPDEST POP POP POP JUMP JUMPDEST JUMPDEST DUP2 DUP2 LT ISZERO PUSH2 0x376 JUMPI PUSH2 0x36B PUSH0 DUP3 PUSH2 0x340 JUMP JUMPDEST PUSH1 0x1 DUP2 ADD SWAP1 POP PUSH2 0x359 JUMP JUMPDEST POP POP JUMP JUMPDEST PUSH1 0x1F DUP3 GT ISZERO PUSH2 0x3BB JUMPI PUSH2 0x38C DUP2 PUSH2 0x25A JUMP JUMPDEST PUSH2 0x395 DUP5 PUSH2 0x26C JUMP JUMPDEST DUP2 ADD PUSH1 0x20 DUP6 LT ISZERO PUSH2 0x3A4 JUMPI DUP2 SWAP1 POP JUMPDEST PUSH2 0x3B8 PUSH2 0x3B0 DUP6 PUSH2 0x26C JUMP JUMPDEST DUP4 ADD DUP3 PUSH2 0x358 JUMP JUMPDEST POP POP JUMPDEST POP POP POP JUMP JUMPDEST PUSH0 DUP3 DUP3 SHR SWAP1 POP SWAP3 SWAP2 POP POP JUMP JUMPDEST PUSH0 PUSH2 0x3DB PUSH0 NOT DUP5 PUSH1 0x8 MUL PUSH2 0x3C0 JUMP JUMPDEST NOT DUP1 DUP4 AND SWAP2 POP POP SWAP3 SWAP2 POP POP JUMP JUMPDEST PUSH0 PUSH2 0x3F3 DUP4 DUP4 PUSH2 0x3CC JUMP JUMPDEST SWAP2 POP DUP3 PUSH1 0x2 MUL DUP3 OR SWAP1 POP SWAP3 SWAP2 POP POP JUMP JUMPDEST PUSH2 0x40C DUP3 PUSH2 0x1C6 JUMP JUMPDEST PUSH8 0xFFFFFFFFFFFFFFFF DUP2 GT ISZERO PUSH2 0x425 JUMPI PUSH2 0x424 PUSH2 0x1D0 JUMP JUMPDEST JUMPDEST PUSH2 0x42F DUP3 SLOAD PUSH2 0x22A JUMP JUMPDEST PUSH2 0x43A DUP3 DUP3 DUP6 PUSH2 0x37A JUMP JUMPDEST PUSH0 PUSH1 0x20 SWAP1 POP PUSH1 0x1F DUP4 GT PUSH1 0x1 DUP2 EQ PUSH2 0x46B JUMPI PUSH0 DUP5 ISZERO PUSH2 0x459 JUMPI DUP3 DUP8 ADD MLOAD SWAP1 POP JUMPDEST PUSH2 0x463 DUP6 DUP3 PUSH2 0x3E8 JUMP JUMPDEST DUP7 SSTORE POP PUSH2 0x4CA JUMP JUMPDEST PUSH1 0x1F NOT DUP5 AND PUSH2 0x479 DUP7 PUSH2 0x25A JUMP JUMPDEST PUSH0 JUMPDEST DUP3 DUP2 LT ISZERO PUSH2 0x4A0 JUMPI DUP5 DUP10 ADD MLOAD DUP3 SSTORE PUSH1 0x1 DUP3 ADD SWAP2 POP PUSH1 0x20 DUP6 ADD SWAP5 POP PUSH1 0x20 DUP2 ADD SWAP1 POP PUSH2 0x47B JUMP JUMPDEST DUP7 DUP4 LT ISZERO PUSH2 0x4BD JUMPI DUP5 DUP10 ADD MLOAD PUSH2 0x4B9 PUSH1 0x1F DUP10 AND DUP3 PUSH2 0x3CC JUMP JUMPDEST DUP4 SSTORE POP JUMPDEST PUSH1 0x1 PUSH1 0x2 DUP9 MUL ADD DUP9 SSTORE POP POP POP JUMPDEST POP POP POP POP POP POP JUMP JUMPDEST PUSH2 0x704 DUP1 PUSH2 0x4DF PUSH0 CODECOPY PUSH0 RETURN INVALID PUSH1 0x80 PUSH1 0x40 MSTORE CALLVALUE DUP1 ISZERO PUSH2 0xF JUMPI PUSH0 PUSH0 REVERT JUMPDEST POP PUSH1 0x4 CALLDATASIZE LT PUSH2 0x34 JUMPI PUSH0 CALLDATALOAD PUSH1 0xE0 SHR DUP1 PUSH4 0x90FFDED8 EQ PUSH2 0x38 JUMPI DUP1 PUSH4 0xEF5FB05B EQ PUSH2 0x54 JUMPI JUMPDEST PUSH0 PUSH0 REVERT JUMPDEST PUSH2 0x52 PUSH1 0x4 DUP1 CALLDATASIZE SUB DUP2 ADD SWAP1 PUSH2 0x4D SWAP2 SWAP1 PUSH2 0x293 JUMP JUMPDEST PUSH2 0x72 JUMP JUMPDEST STOP JUMPDEST PUSH2 0x5C PUSH2 0x85 JUMP JUMPDEST PUSH1 0x40 MLOAD PUSH2 0x69 SWAP2 SWAP1 PUSH2 0x354 JUMP JUMPDEST PUSH1 0x40 MLOAD DUP1 SWAP2 SUB SWAP1 RETURN JUMPDEST DUP1 PUSH1 0x6 SWAP1 DUP2 PUSH2 0x81 SWAP2 SWAP1 PUSH2 0x57A JUMP JUMPDEST POP POP JUMP JUMPDEST PUSH1 0x60 PUSH2 0x118 PUSH1 0x6 DUP1 SLOAD PUSH2 0x97 SWAP1 PUSH2 0x3A1 JUMP JUMPDEST DUP1 PUSH1 0x1F ADD PUSH1 0x20 DUP1 SWAP2 DIV MUL PUSH1 0x20 ADD PUSH1 0x40 MLOAD SWAP1 DUP2 ADD PUSH1 0x40 MSTORE DUP1 SWAP3 SWAP2 SWAP1 DUP2 DUP2 MSTORE PUSH1 0x20 ADD DUP3 DUP1 SLOAD PUSH2 0xC3 SWAP1 PUSH2 0x3A1 JUMP JUMPDEST DUP1 ISZERO PUSH2 0x10E JUMPI DUP1 PUSH1 0x1F LT PUSH2 0xE5 JUMPI PUSH2 0x100 DUP1 DUP4 SLOAD DIV MUL DUP4 MSTORE SWAP2 PUSH1 0x20 ADD SWAP2 PUSH2 0x10E JUMP JUMPDEST DUP3 ADD SWAP2 SWAP1 PUSH0 MSTORE PUSH1 0x20 PUSH0 KECCAK256 SWAP1 JUMPDEST DUP2 SLOAD DUP2 MSTORE SWAP1 PUSH1 0x1 ADD SWAP1 PUSH1 0x20 ADD DUP1 DUP4 GT PUSH2 0xF1 JUMPI DUP3 SWAP1 SUB PUSH1 0x1F AND DUP3 ADD SWAP2 JUMPDEST POP POP POP POP POP PUSH2 0x11D JUMP JUMPDEST SWAP1 POP SWAP1 JUMP JUMPDEST PUSH1 0x60 DUP2 PUSH1 0x40 MLOAD PUSH1 0x20 ADD PUSH2 0x130 SWAP2 SWAP1 PUSH2 0x6A9 JUMP JUMPDEST PUSH1 0x40 MLOAD PUSH1 0x20 DUP2 DUP4 SUB SUB DUP2 MSTORE SWAP1 PUSH1 0x40 MSTORE SWAP1 POP SWAP2 SWAP1 POP JUMP JUMPDEST PUSH0 PUSH1 0x40 MLOAD SWAP1 POP SWAP1 JUMP JUMPDEST PUSH0 PUSH0 REVERT JUMPDEST PUSH0 PUSH0 REVERT JUMPDEST PUSH0 PUSH0 REVERT JUMPDEST PUSH0 PUSH0 REVERT JUMPDEST PUSH0 PUSH1 0x1F NOT PUSH1 0x1F DUP4 ADD AND SWAP1 POP SWAP2 SWAP1 POP JUMP JUMPDEST PUSH32 0x4E487B7100000000000000000000000000000000000000000000000000000000 PUSH0 MSTORE PUSH1 0x41 PUSH1 0x4 MSTORE PUSH1 0x24 PUSH0 REVERT JUMPDEST PUSH2 0x1A5 DUP3 PUSH2 0x15F JUMP JUMPDEST DUP2 ADD DUP2 DUP2 LT PUSH8 0xFFFFFFFFFFFFFFFF DUP3 GT OR ISZERO PUSH2 0x1C4 JUMPI PUSH2 0x1C3 PUSH2 0x16F JUMP JUMPDEST JUMPDEST DUP1 PUSH1 0x40 MSTORE POP POP POP JUMP JUMPDEST PUSH0 PUSH2 0x1D6 PUSH2 0x146 JUMP JUMPDEST SWAP1 POP PUSH2 0x1E2 DUP3 DUP3 PUSH2 0x19C JUMP JUMPDEST SWAP2 SWAP1 POP JUMP JUMPDEST PUSH0 PUSH8 0xFFFFFFFFFFFFFFFF DUP3 GT ISZERO PUSH2 0x201 JUMPI PUSH2 0x200 PUSH2 0x16F JUMP JUMPDEST JUMPDEST PUSH2 0x20A DUP3 PUSH2 0x15F JUMP JUMPDEST SWAP1 POP PUSH1 0x20 DUP2 ADD SWAP1 POP SWAP2 SWAP1 POP JUMP JUMPDEST DUP3 DUP2 DUP4 CALLDATACOPY PUSH0 DUP4 DUP4 ADD MSTORE POP POP POP JUMP JUMPDEST PUSH0 PUSH2 0x237 PUSH2 0x232 DUP5 PUSH2 0x1E7 JUMP JUMPDEST PUSH2 0x1CD JUMP JUMPDEST SWAP1 POP DUP3 DUP2 MSTORE PUSH1 0x20 DUP2 ADD DUP5 DUP5 DUP5 ADD GT ISZERO PUSH2 0x253 JUMPI PUSH2 0x252 PUSH2 0x15B JUMP JUMPDEST JUMPDEST PUSH2 0x25E DUP5 DUP3 DUP6 PUSH2 0x217 JUMP JUMPDEST POP SWAP4 SWAP3 POP POP POP JUMP JUMPDEST PUSH0 DUP3 PUSH1 0x1F DUP4 ADD SLT PUSH2 0x27A JUMPI PUSH2 0x279 PUSH2 0x157 JUMP JUMPDEST JUMPDEST DUP2 CALLDATALOAD PUSH2 0x28A DUP5 DUP3 PUSH1 0x20 DUP7 ADD PUSH2 0x225 JUMP JUMPDEST SWAP2 POP POP SWAP3 SWAP2 POP POP JUMP JUMPDEST PUSH0 PUSH1 0x20 DUP3 DUP5 SUB SLT ISZERO PUSH2 0x2A8 JUMPI PUSH2 0x2A7 PUSH2 0x14F JUMP JUMPDEST JUMPDEST PUSH0 DUP3 ADD CALLDATALOAD PUSH8 0xFFFFFFFFFFFFFFFF DUP2 GT ISZERO PUSH2 0x2C5 JUMPI PUSH2 0x2C4 PUSH2 0x153 JUMP JUMPDEST JUMPDEST PUSH2 0x2D1 DUP5 DUP3 DUP6 ADD PUSH2 0x266 JUMP JUMPDEST SWAP2 POP POP SWAP3 SWAP2 POP POP JUMP JUMPDEST PUSH0 DUP2 MLOAD SWAP1 POP SWAP2 SWAP1 POP JUMP JUMPDEST PUSH0 DUP3 DUP3 MSTORE PUSH1 0x20 DUP3 ADD SWAP1 POP SWAP3 SWAP2 POP POP JUMP JUMPDEST PUSH0 JUMPDEST DUP4 DUP2 LT ISZERO PUSH2 0x311 JUMPI DUP1 DUP3 ADD MLOAD DUP2 DUP5 ADD MSTORE PUSH1 0x20 DUP2 ADD SWAP1 POP PUSH2 0x2F6 JUMP JUMPDEST PUSH0 DUP5 DUP5 ADD MSTORE POP POP POP POP JUMP JUMPDEST PUSH0 PUSH2 0x326 DUP3 PUSH2 0x2DA JUMP JUMPDEST PUSH2 0x330 DUP2 DUP6 PUSH2 0x2E4 JUMP JUMPDEST SWAP4 POP PUSH2 0x340 DUP2 DUP6 PUSH1 0x20 DUP7 ADD PUSH2 0x2F4 JUMP JUMPDEST PUSH2 0x349 DUP2 PUSH2 0x15F JUMP JUMPDEST DUP5 ADD SWAP2 POP POP SWAP3 SWAP2 POP POP JUMP JUMPDEST PUSH0 PUSH1 0x20 DUP3 ADD SWAP1 POP DUP2 DUP2 SUB PUSH0 DUP4 ADD MSTORE PUSH2 0x36C DUP2 DUP5 PUSH2 0x31C JUMP JUMPDEST SWAP1 POP SWAP3 SWAP2 POP POP JUMP JUMPDEST PUSH32 0x4E487B7100000000000000000000000000000000000000000000000000000000 PUSH0 MSTORE PUSH1 0x22 PUSH1 0x4 MSTORE PUSH1 0x24 PUSH0 REVERT JUMPDEST PUSH0 PUSH1 0x2 DUP3 DIV SWAP1 POP PUSH1 0x1 DUP3 AND DUP1 PUSH2 0x3B8 JUMPI PUSH1 0x7F DUP3 AND SWAP2 POP JUMPDEST PUSH1 0x20 DUP3 LT DUP2 SUB PUSH2 0x3CB JUMPI PUSH2 0x3CA PUSH2 0x374 JUMP JUMPDEST JUMPDEST POP SWAP2 SWAP1 POP JUMP JUMPDEST PUSH0 DUP2 SWAP1 POP DUP2 PUSH0 MSTORE PUSH1 0x20 PUSH0 KECCAK256 SWAP1 POP SWAP2 SWAP1 POP JUMP JUMPDEST PUSH0 PUSH1 0x20 PUSH1 0x1F DUP4 ADD DIV SWAP1 POP SWAP2 SWAP1 POP JUMP JUMPDEST PUSH0 DUP3 DUP3 SHL SWAP1 POP SWAP3 SWAP2 POP POP JUMP JUMPDEST PUSH0 PUSH1 0x8 DUP4 MUL PUSH2 0x42D PUSH32 0xFFFFFFFFFFFFFFFFFFFFFFFFFFFFFFFFFFFFFFFFFFFFFFFFFFFFFFFFFFFFFFFF DUP3 PUSH2 0x3F2 JUMP JUMPDEST PUSH2 0x437 DUP7 DUP4 PUSH2 0x3F2 JUMP JUMPDEST SWAP6 POP DUP1 NOT DUP5 AND SWAP4 POP DUP1 DUP7 AND DUP5 OR SWAP3 POP POP POP SWAP4 SWAP3 POP POP POP JUMP JUMPDEST PUSH0 DUP2 SWAP1 POP SWAP2 SWAP1 POP JUMP JUMPDEST PUSH0 DUP2 SWAP1 POP SWAP2 SWAP1 POP JUMP JUMPDEST PUSH0 PUSH2 0x47B PUSH2 0x476 PUSH2 0x471 DUP5 PUSH2 0x44F JUMP JUMPDEST PUSH2 0x458 JUMP JUMPDEST PUSH2 0x44F JUMP JUMPDEST SWAP1 POP SWAP2 SWAP1 POP JUMP JUMPDEST PUSH0 DUP2 SWAP1 POP SWAP2 SWAP1 POP JUMP JUMPDEST PUSH2 0x494 DUP4 PUSH2 0x461 JUMP JUMPDEST PUSH2 0x4A8 PUSH2 0x4A0 DUP3 PUSH2 0x482 JUMP JUMPDEST DUP5 DUP5 SLOAD PUSH2 0x3FE JUMP JUMPDEST DUP3 SSTORE POP POP POP POP JUMP JUMPDEST PUSH0 PUSH0 SWAP1 POP SWAP1 JUMP JUMPDEST PUSH2 0x4BF PUSH2 0x4B0 JUMP JUMPDEST PUSH2 0x4CA DUP2 DUP5 DUP5 PUSH2 0x48B JUMP JUMPDEST POP POP POP JUMP JUMPDEST JUMPDEST DUP2 DUP2 LT ISZERO PUSH2 0x4ED JUMPI PUSH2 0x4E2 PUSH0 DUP3 PUSH2 0x4B7 JUMP JUMPDEST PUSH1 0x1 DUP2 ADD SWAP1 POP PUSH2 0x4D0 JUMP JUMPDEST POP POP JUMP JUMPDEST PUSH1 0x1F DUP3 GT ISZERO PUSH2 0x532 JUMPI PUSH2 0x503 DUP2 PUSH2 0x3D1 JUMP JUMPDEST PUSH2 0x50C DUP5 PUSH2 0x3E3 JUMP JUMPDEST DUP2 ADD PUSH1 0x20 DUP6 LT ISZERO PUSH2 0x51B JUMPI DUP2 SWAP1 POP JUMPDEST PUSH2 0x52F PUSH2 0x527 DUP6 PUSH2 0x3E3 JUMP JUMPDEST DUP4 ADD DUP3 PUSH2 0x4CF JUMP JUMPDEST POP POP JUMPDEST POP POP POP JUMP JUMPDEST PUSH0 DUP3 DUP3 SHR SWAP1 POP SWAP3 SWAP2 POP POP JUMP JUMPDEST PUSH0 PUSH2 0x552 PUSH0 NOT DUP5 PUSH1 0x8 MUL PUSH2 0x537 JUMP JUMPDEST NOT DUP1 DUP4 AND SWAP2 POP POP SWAP3 SWAP2 POP POP JUMP JUMPDEST PUSH0 PUSH2 0x56A DUP4 DUP4 PUSH2 0x543 JUMP JUMPDEST SWAP2 POP DUP3 PUSH1 0x2 MUL DUP3 OR SWAP1 POP SWAP3 SWAP2 POP POP JUMP JUMPDEST PUSH2 0x583 DUP3 PUSH2 0x2DA JUMP JUMPDEST PUSH8 0xFFFFFFFFFFFFFFFF DUP2 GT ISZERO PUSH2 0x59C JUMPI PUSH2 0x59B PUSH2 0x16F JUMP JUMPDEST JUMPDEST PUSH2 0x5A6 DUP3 SLOAD PUSH2 0x3A1 JUMP JUMPDEST PUSH2 0x5B1 DUP3 DUP3 DUP6 PUSH2 0x4F1 JUMP JUMPDEST PUSH0 PUSH1 0x20 SWAP1 POP PUSH1 0x1F DUP4 GT PUSH1 0x1 DUP2 EQ PUSH2 0x5E2 JUMPI PUSH0 DUP5 ISZERO PUSH2 0x5D0 JUMPI DUP3 DUP8 ADD MLOAD SWAP1 POP JUMPDEST PUSH2 0x5DA DUP6 DUP3 PUSH2 0x55F JUMP JUMPDEST DUP7 SSTORE POP PUSH2 0x641 JUMP JUMPDEST PUSH1 0x1F NOT DUP5 AND PUSH2 0x5F0 DUP7 PUSH2 0x3D1 JUMP JUMPDEST PUSH0 JUMPDEST DUP3 DUP2 LT ISZERO PUSH2 0x617 JUMPI DUP5 DUP10 ADD MLOAD DUP3 SSTORE PUSH1 0x1 DUP3 ADD SWAP2 POP PUSH1 0x20 DUP6 ADD SWAP5 POP PUSH1 0x20 DUP2 ADD SWAP1 POP PUSH2 0x5F2 JUMP JUMPDEST DUP7 DUP4 LT ISZERO PUSH2 0x634 JUMPI DUP5 DUP10 ADD MLOAD PUSH2 0x630 PUSH1 0x1F DUP10 AND DUP3 PUSH2 0x543 JUMP JUMPDEST DUP4 SSTORE POP JUMPDEST PUSH1 0x1 PUSH1 0x2 DUP9 MUL ADD DUP9 SSTORE POP POP POP JUMPDEST POP POP POP POP POP POP JUMP JUMPDEST PUSH0 DUP2 SWAP1 POP SWAP3 SWAP2 POP POP JUMP JUMPDEST PUSH0 PUSH2 0x65D DUP3 PUSH2 0x2DA JUMP JUMPDEST PUSH2 0x667 DUP2 DUP6 PUSH2 0x649 JUMP JUMPDEST SWAP4 POP PUSH2 0x677 DUP2 DUP6 PUSH1 0x20 DUP7 ADD PUSH2 0x2F4 JUMP JUMPDEST DUP1 DUP5 ADD SWAP2 POP POP SWAP3 SWAP2 POP POP JUMP JUMPDEST PUSH32 0x66726F6D206672616E6B277320636F6E74726163740000000000000000000000 DUP2 MSTORE POP JUMP JUMPDEST PUSH0 PUSH2 0x6B4 DUP3 DUP5 PUSH2 0x653 JUMP JUMPDEST SWAP2 POP PUSH2 0x6BF DUP3 PUSH2 0x683 JUMP JUMPDEST PUSH1 0x15 DUP3 ADD SWAP2 POP DUP2 SWAP1 POP SWAP3 SWAP2 POP POP JUMP INVALID LOG2 PUSH5 0x6970667358 0x22 SLT KECCAK256 PC 0x4B BLOBHASH 0xAB 0xE GASLIMIT BLOCKHASH 0x4B DIV 0xEB 0x28 0xDA 0xBE SWAP4 0xA9 PUSH12 0x22F6CD8CD62B9A68E25A8528 0x24 0x4B CALLDATACOPY EQ PUSH5 0x736F6C6343 STOP ADDMOD 0x1E STOP CALLER "
				},
				"gasEstimates": {
					"creation": {
						"codeDepositCost": "359200",
						"executionCost": "infinite",
						"totalCost": "infinite"
					},
					"external": {
						"sayHello()": "infinite",
						"setHelloWorld(string)": "infinite"
					},
					"internal": {
						"addInfo(string memory)": "infinite"
					}
				},
				"methodIdentifiers": {
					"sayHello()": "ef5fb05b",
					"setHelloWorld(string)": "90ffded8"
				}
			},
			"storageLayout": {
				"storage": [
					{
						"astId": 4,
						"contract": "test/test.sol:HelloWorld",
						"label": "boolVar_1",
						"offset": 0,
						"slot": "0",
						"type": "t_bool"
					},
					{
						"astId": 7,
						"contract": "test/test.sol:HelloWorld",
						"label": "boolVar_2",
						"offset": 1,
						"slot": "0",
						"type": "t_bool"
					},
					{
						"astId": 10,
						"contract": "test/test.sol:HelloWorld",
						"label": "unit8Var",
						"offset": 2,
						"slot": "0",
						"type": "t_uint8"
					},
					{
						"astId": 13,
						"contract": "test/test.sol:HelloWorld",
						"label": "unit256",
						"offset": 0,
						"slot": "1",
						"type": "t_uint256"
					},
					{
						"astId": 17,
						"contract": "test/test.sol:HelloWorld",
						"label": "int8Var",
						"offset": 0,
						"slot": "2",
						"type": "t_int8"
					},
					{
						"astId": 21,
						"contract": "test/test.sol:HelloWorld",
						"label": "int256Var",
						"offset": 0,
						"slot": "3",
						"type": "t_int256"
					},
					{
						"astId": 24,
						"contract": "test/test.sol:HelloWorld",
						"label": "bytesVar",
						"offset": 0,
						"slot": "4",
						"type": "t_bytes8"
					},
					{
						"astId": 27,
						"contract": "test/test.sol:HelloWorld",
						"label": "bytes32Var",
						"offset": 0,
						"slot": "5",
						"type": "t_bytes32"
					},
					{
						"astId": 30,
						"contract": "test/test.sol:HelloWorld",
						"label": "stringVar",
						"offset": 0,
						"slot": "6",
						"type": "t_string_storage"
					},
					{
						"astId": 33,
						"contract": "test/test.sol:HelloWorld",
						"label": "addrVar",
						"offset": 0,
						"slot": "7",
						"type": "t_address"
					}
				],
				"types": {
					"t_address": {
						"encoding": "inplace",
						"label": "address",
						"numberOfBytes": "20"
					},
					"t_bool": {
						"encoding": "inplace",
						"label": "bool",
						"numberOfBytes": "1"
					},
					"t_bytes32": {
						"encoding": "inplace",
						"label": "bytes32",
						"numberOfBytes": "32"
					},
					"t_bytes8": {
						"encoding": "inplace",
						"label": "bytes8",
						"numberOfBytes": "8"
					},
					"t_int256": {
						"encoding": "inplace",
						"label": "int256",
						"numberOfBytes": "32"
					},
					"t_int8": {
						"encoding": "inplace",
						"label": "int8",
						"numberOfBytes": "1"
					},
					"t_string_storage": {
						"encoding": "bytes",
						"label": "string",
						"numberOfBytes": "32"
					},
					"t_uint256": {
						"encoding": "inplace",
						"label": "uint256",
						"numberOfBytes": "32"
					},
					"t_uint8": {
						"encoding": "inplace",
						"label": "uint8",
						"numberOfBytes": "1"
					}
				}
			},
			"userdoc": {
				"kind": "user",
				"methods": {},
				"version": 1
			}
		}
	}
}